{
  "_format": "hh-sol-artifact-1",
  "contractName": "ContributorsProxy",
  "sourceName": "contracts/contribute/ContributorsProxy.sol",
  "abi": [
    {
      "inputs": [
        {
          "internalType": "address",
          "name": "implementation",
          "type": "address"
        },
        {
          "internalType": "bytes",
          "name": "contributorsData",
          "type": "bytes"
        }
      ],
      "stateMutability": "nonpayable",
      "type": "constructor"
    },
    {
      "inputs": [],
      "name": "InitializationFailed",
      "type": "error"
    },
    {
      "inputs": [],
      "name": "ZeroContributorsData",
      "type": "error"
    },
    {
      "inputs": [],
      "name": "ZeroImplementationAddress",
      "type": "error"
    },
    {
      "stateMutability": "nonpayable",
      "type": "fallback"
    },
    {
      "inputs": [],
      "name": "CONTRIBUTORS_PROXY",
      "outputs": [
        {
          "internalType": "bytes32",
          "name": "",
          "type": "bytes32"
        }
      ],
      "stateMutability": "view",
      "type": "function"
    }
  ],
  "bytecode": "0x608060405234801561000f575f5ffd5b506040516102f23803806102f283398101604081905261002e9161012d565b6001600160a01b0382166100555760405163d02c623d60e01b815260040160405180910390fd5b80515f0361007657604051636ac8756160e01b815260040160405180910390fd5b817f8f33b4c48c4f3159dc130f2111086160da6c94439c147bd337ecee0aa81518c7555f826001600160a01b0316826040516100b291906101fc565b5f60405180830381855af49150503d805f81146100ea576040519150601f19603f3d011682016040523d82523d5f602084013e6100ef565b606091505b505090508061011157604051630337323560e31b815260040160405180910390fd5b505050610212565b634e487b7160e01b5f52604160045260245ffd5b5f5f6040838503121561013e575f5ffd5b82516001600160a01b0381168114610154575f5ffd5b60208401519092506001600160401b0381111561016f575f5ffd5b8301601f8101851361017f575f5ffd5b80516001600160401b0381111561019857610198610119565b604051601f8201601f19908116603f011681016001600160401b03811182821017156101c6576101c6610119565b6040528181528282016020018710156101dd575f5ffd5b8160208401602083015e5f602083830101528093505050509250929050565b5f82518060208501845e5f920191825250919050565b60d48061021e5f395ff3fe6080604052348015600e575f5ffd5b50600436106026575f3560e01c80633db25aab146066575b7f8f33b4c48c4f3159dc130f2111086160da6c94439c147bd337ecee0aa81518c754365f5f375f5f365f845af490503d5f5f3e806061573d5ffd5b503d5ff35b608c7f8f33b4c48c4f3159dc130f2111086160da6c94439c147bd337ecee0aa81518c781565b60405190815260200160405180910390f3fea26469706673582212209210556d97be336c48db73e448de839c62e80e98479698d4d5db3532e918887c64736f6c634300081c0033",
  "linkReferences": {},
  "deployedLinkReferences": {}
}