{
  "_format": "hh-sol-artifact-1",
  "contractName": "Contributors",
  "sourceName": "contracts/contribute/Contributors.sol",
  "abi": [
    {
      "inputs": [],
      "name": "AlreadyInitialized",
      "type": "error"
    },
    {
      "inputs": [
        {
          "internalType": "address",
          "name": "sender",
          "type": "address"
        },
        {
          "internalType": "address",
          "name": "manager",
          "type": "address"
        }
      ],
      "name": "OnlyManager",
      "type": "error"
    },
    {
      "inputs": [
        {
          "internalType": "address",
          "name": "sender",
          "type": "address"
        },
        {
          "internalType": "address",
          "name": "owner",
          "type": "address"
        }
      ],
      "name": "OwnerOnly",
      "type": "error"
    },
    {
      "inputs": [
        {
          "internalType": "address",
          "name": "account",
          "type": "address"
        }
      ],
      "name": "UnauthorizedAccount",
      "type": "error"
    },
    {
      "inputs": [
        {
          "internalType": "uint256",
          "name": "numValues1",
          "type": "uint256"
        },
        {
          "internalType": "uint256",
          "name": "numValues2",
          "type": "uint256"
        }
      ],
      "name": "WrongArrayLength",
      "type": "error"
    },
    {
      "inputs": [],
      "name": "ZeroAddress",
      "type": "error"
    },
    {
      "anonymous": false,
      "inputs": [
        {
          "indexed": true,
          "internalType": "address",
          "name": "implementation",
          "type": "address"
        }
      ],
      "name": "ImplementationUpdated",
      "type": "event"
    },
    {
      "anonymous": false,
      "inputs": [
        {
          "indexed": true,
          "internalType": "address",
          "name": "manager",
          "type": "address"
        }
      ],
      "name": "ManagerUpdated",
      "type": "event"
    },
    {
      "anonymous": false,
      "inputs": [
        {
          "indexed": true,
          "internalType": "address",
          "name": "senderAgent",
          "type": "address"
        },
        {
          "indexed": false,
          "internalType": "address[]",
          "name": "multisigs",
          "type": "address[]"
        },
        {
          "indexed": false,
          "internalType": "uint256[]",
          "name": "activityChanges",
          "type": "uint256[]"
        }
      ],
      "name": "MultisigActivityChanged",
      "type": "event"
    },
    {
      "anonymous": false,
      "inputs": [
        {
          "indexed": true,
          "internalType": "address",
          "name": "owner",
          "type": "address"
        }
      ],
      "name": "OwnerUpdated",
      "type": "event"
    },
    {
      "anonymous": false,
      "inputs": [
        {
          "indexed": false,
          "internalType": "address[]",
          "name": "contributeAgents",
          "type": "address[]"
        },
        {
          "indexed": false,
          "internalType": "bool[]",
          "name": "statuses",
          "type": "bool[]"
        }
      ],
      "name": "SetContributeAgentStatuses",
      "type": "event"
    },
    {
      "anonymous": false,
      "inputs": [
        {
          "indexed": true,
          "internalType": "address",
          "name": "serviceOwner",
          "type": "address"
        },
        {
          "indexed": true,
          "internalType": "uint256",
          "name": "socialId",
          "type": "uint256"
        },
        {
          "indexed": true,
          "internalType": "uint256",
          "name": "serviceId",
          "type": "uint256"
        },
        {
          "indexed": false,
          "internalType": "address",
          "name": "multisig",
          "type": "address"
        },
        {
          "indexed": false,
          "internalType": "address",
          "name": "stakingInstance",
          "type": "address"
        }
      ],
      "name": "SetServiceInfoForId",
      "type": "event"
    },
    {
      "inputs": [],
      "name": "CONTRIBUTORS_PROXY",
      "outputs": [
        {
          "internalType": "bytes32",
          "name": "",
          "type": "bytes32"
        }
      ],
      "stateMutability": "view",
      "type": "function"
    },
    {
      "inputs": [],
      "name": "VERSION",
      "outputs": [
        {
          "internalType": "string",
          "name": "",
          "type": "string"
        }
      ],
      "stateMutability": "view",
      "type": "function"
    },
    {
      "inputs": [
        {
          "internalType": "address",
          "name": "newImplementation",
          "type": "address"
        }
      ],
      "name": "changeImplementation",
      "outputs": [],
      "stateMutability": "nonpayable",
      "type": "function"
    },
    {
      "inputs": [
        {
          "internalType": "address",
          "name": "newManager",
          "type": "address"
        }
      ],
      "name": "changeManager",
      "outputs": [],
      "stateMutability": "nonpayable",
      "type": "function"
    },
    {
      "inputs": [
        {
          "internalType": "address",
          "name": "newOwner",
          "type": "address"
        }
      ],
      "name": "changeOwner",
      "outputs": [],
      "stateMutability": "nonpayable",
      "type": "function"
    },
    {
      "inputs": [
        {
          "internalType": "address[]",
          "name": "multisigs",
          "type": "address[]"
        },
        {
          "internalType": "uint256[]",
          "name": "activityChanges",
          "type": "uint256[]"
        }
      ],
      "name": "increaseActivity",
      "outputs": [],
      "stateMutability": "nonpayable",
      "type": "function"
    },
    {
      "inputs": [],
      "name": "initialize",
      "outputs": [],
      "stateMutability": "nonpayable",
      "type": "function"
    },
    {
      "inputs": [],
      "name": "manager",
      "outputs": [
        {
          "internalType": "address",
          "name": "",
          "type": "address"
        }
      ],
      "stateMutability": "view",
      "type": "function"
    },
    {
      "inputs": [
        {
          "internalType": "address",
          "name": "",
          "type": "address"
        }
      ],
      "name": "mapAccountServiceInfo",
      "outputs": [
        {
          "internalType": "uint256",
          "name": "socialId",
          "type": "uint256"
        },
        {
          "internalType": "uint256",
          "name": "serviceId",
          "type": "uint256"
        },
        {
          "internalType": "address",
          "name": "multisig",
          "type": "address"
        },
        {
          "internalType": "address",
          "name": "stakingInstance",
          "type": "address"
        }
      ],
      "stateMutability": "view",
      "type": "function"
    },
    {
      "inputs": [
        {
          "internalType": "address",
          "name": "",
          "type": "address"
        }
      ],
      "name": "mapContributeAgents",
      "outputs": [
        {
          "internalType": "bool",
          "name": "",
          "type": "bool"
        }
      ],
      "stateMutability": "view",
      "type": "function"
    },
    {
      "inputs": [
        {
          "internalType": "address",
          "name": "",
          "type": "address"
        }
      ],
      "name": "mapMutisigActivities",
      "outputs": [
        {
          "internalType": "uint256",
          "name": "",
          "type": "uint256"
        }
      ],
      "stateMutability": "view",
      "type": "function"
    },
    {
      "inputs": [],
      "name": "owner",
      "outputs": [
        {
          "internalType": "address",
          "name": "",
          "type": "address"
        }
      ],
      "stateMutability": "view",
      "type": "function"
    },
    {
      "inputs": [
        {
          "internalType": "address[]",
          "name": "contributeAgents",
          "type": "address[]"
        },
        {
          "internalType": "bool[]",
          "name": "statuses",
          "type": "bool[]"
        }
      ],
      "name": "setContributeAgentStatuses",
      "outputs": [],
      "stateMutability": "nonpayable",
      "type": "function"
    },
    {
      "inputs": [
        {
          "internalType": "address",
          "name": "serviceOwner",
          "type": "address"
        },
        {
          "internalType": "uint256",
          "name": "socialId",
          "type": "uint256"
        },
        {
          "internalType": "uint256",
          "name": "serviceId",
          "type": "uint256"
        },
        {
          "internalType": "address",
          "name": "multisig",
          "type": "address"
        },
        {
          "internalType": "address",
          "name": "stakingInstance",
          "type": "address"
        }
      ],
      "name": "setServiceInfoForId",
      "outputs": [],
      "stateMutability": "nonpayable",
      "type": "function"
    }
  ],
  "bytecode": "0x6080604052348015600e575f5ffd5b506110f08061001c5f395ff3fe608060405234801561000f575f5ffd5b50600436106100e5575f3560e01c80638129fc1c11610088578063a3fbbaae11610063578063a3fbbaae146102a6578063a6f9dae1146102b9578063d7831072146102cc578063ffa1ad74146102df575f5ffd5b80638129fc1c146101f45780638b494a39146101fc5780638da5cb5b14610287575f5ffd5b8063481c6a75116100c3578063481c6a751461014b5780634990408f146101905780635078690b146101af5780636859d1d8146101c2575f5ffd5b806317a68dd8146100e95780633db25aab146100fe57806341c952a414610138575b5f5ffd5b6100fc6100f7366004610c08565b610328565b005b6101257f8f33b4c48c4f3159dc130f2111086160da6c94439c147bd337ecee0aa81518c781565b6040519081526020015b60405180910390f35b6100fc610146366004610d38565b610452565b60015461016b9073ffffffffffffffffffffffffffffffffffffffff1681565b60405173ffffffffffffffffffffffffffffffffffffffff909116815260200161012f565b61012561019e366004610c08565b60036020525f908152604090205481565b6100fc6101bd366004610df6565b6105cf565b6101e46101d0366004610c08565b60046020525f908152604090205460ff1681565b604051901515815260200161012f565b6100fc6106fd565b61024b61020a366004610c08565b600260208190525f9182526040909120805460018201549282015460039092015490929173ffffffffffffffffffffffffffffffffffffffff908116911684565b60408051948552602085019390935273ffffffffffffffffffffffffffffffffffffffff9182169284019290925216606082015260800161012f565b5f5461016b9073ffffffffffffffffffffffffffffffffffffffff1681565b6100fc6102b4366004610c08565b610777565b6100fc6102c7366004610c08565b6108a3565b6100fc6102da366004610e49565b6109cd565b61031b6040518060400160405280600581526020017f312e302e3000000000000000000000000000000000000000000000000000000081525081565b60405161012f9190610f06565b5f5473ffffffffffffffffffffffffffffffffffffffff16331461039e575f546040517fa43d6ada00000000000000000000000000000000000000000000000000000000815233600482015273ffffffffffffffffffffffffffffffffffffffff90911660248201526044015b60405180910390fd5b73ffffffffffffffffffffffffffffffffffffffff81166103eb576040517fd92e233d00000000000000000000000000000000000000000000000000000000815260040160405180910390fd5b7f8f33b4c48c4f3159dc130f2111086160da6c94439c147bd337ecee0aa81518c781905560405173ffffffffffffffffffffffffffffffffffffffff8216907f310ba5f1d2ed074b51e2eccd052a47ae9ab7c6b800d1fca3db3999d6a592ca03905f90a250565b335f9081526004602052604090205460ff1661049c576040517f32b2baa3000000000000000000000000000000000000000000000000000000008152336004820152602401610395565b80518251146104e457815181516040517f8151c11000000000000000000000000000000000000000000000000000000000815260048101929092526024820152604401610395565b5f5b825181101561057a5781818151811061050157610501610f59565b602002602001015160035f85848151811061051e5761051e610f59565b602002602001015173ffffffffffffffffffffffffffffffffffffffff1673ffffffffffffffffffffffffffffffffffffffff1681526020019081526020015f205f82825461056d9190610f86565b90915550506001016104e6565b503373ffffffffffffffffffffffffffffffffffffffff167fa979bfa637f10d403f5b074e0ee52626618f5969e71d33fa0f5daf0caa22065683836040516105c3929190611014565b60405180910390a25050565b60015473ffffffffffffffffffffffffffffffffffffffff163314610642576001546040517f59c8c6cc00000000000000000000000000000000000000000000000000000000815233600482015273ffffffffffffffffffffffffffffffffffffffff9091166024820152604401610395565b73ffffffffffffffffffffffffffffffffffffffff8581165f818152600260208181526040928390208981556001810189905591820180548887167fffffffffffffffffffffffff000000000000000000000000000000000000000091821681179092556003840180549789169790911687179055835190815290810194909452928692889290917f2c50df9a1dea57a91edc18dc7b7d135675e66bca942cb9ab6009bc7647f09c64910160405180910390a4505050505050565b5f5473ffffffffffffffffffffffffffffffffffffffff161561074c576040517f0dc149f000000000000000000000000000000000000000000000000000000000815260040160405180910390fd5b5f80547fffffffffffffffffffffffff00000000000000000000000000000000000000001633179055565b5f5473ffffffffffffffffffffffffffffffffffffffff1633146107e8575f546040517fa43d6ada00000000000000000000000000000000000000000000000000000000815233600482015273ffffffffffffffffffffffffffffffffffffffff9091166024820152604401610395565b73ffffffffffffffffffffffffffffffffffffffff8116610835576040517fd92e233d00000000000000000000000000000000000000000000000000000000815260040160405180910390fd5b600180547fffffffffffffffffffffffff00000000000000000000000000000000000000001673ffffffffffffffffffffffffffffffffffffffff83169081179091556040517f2c1c11af44aa5608f1dca38c00275c30ea091e02417d36e70e9a1538689c433d905f90a250565b5f5473ffffffffffffffffffffffffffffffffffffffff163314610914575f546040517fa43d6ada00000000000000000000000000000000000000000000000000000000815233600482015273ffffffffffffffffffffffffffffffffffffffff9091166024820152604401610395565b73ffffffffffffffffffffffffffffffffffffffff8116610961576040517fd92e233d00000000000000000000000000000000000000000000000000000000815260040160405180910390fd5b5f80547fffffffffffffffffffffffff00000000000000000000000000000000000000001673ffffffffffffffffffffffffffffffffffffffff8316908117825560405190917f4ffd725fc4a22075e9ec71c59edf9c38cdeb588a91b24fc5b61388c5be41282b91a250565b5f5473ffffffffffffffffffffffffffffffffffffffff163314610a3e575f546040517fa43d6ada00000000000000000000000000000000000000000000000000000000815233600482015273ffffffffffffffffffffffffffffffffffffffff9091166024820152604401610395565b8051825114610a8657815181516040517f8151c11000000000000000000000000000000000000000000000000000000000815260048101929092526024820152604401610395565b5f5b8251811015610ba2575f73ffffffffffffffffffffffffffffffffffffffff16838281518110610aba57610aba610f59565b602002602001015173ffffffffffffffffffffffffffffffffffffffff1603610b0f576040517fd92e233d00000000000000000000000000000000000000000000000000000000815260040160405180910390fd5b818181518110610b2157610b21610f59565b602002602001015160045f858481518110610b3e57610b3e610f59565b60209081029190910181015173ffffffffffffffffffffffffffffffffffffffff1682528101919091526040015f2080547fffffffffffffffffffffffffffffffffffffffffffffffffffffffffffffff0016911515919091179055600101610a88565b507ff8883c5b3d29b436411eaabf250a87533e54aedaa97bf4968077574532fad3cd8282604051610bd492919061106c565b60405180910390a15050565b803573ffffffffffffffffffffffffffffffffffffffff81168114610c03575f5ffd5b919050565b5f60208284031215610c18575f5ffd5b610c2182610be0565b9392505050565b7f4e487b71000000000000000000000000000000000000000000000000000000005f52604160045260245ffd5b604051601f82017fffffffffffffffffffffffffffffffffffffffffffffffffffffffffffffffe016810167ffffffffffffffff81118282101715610c9c57610c9c610c28565b604052919050565b5f67ffffffffffffffff821115610cbd57610cbd610c28565b5060051b60200190565b5f82601f830112610cd6575f5ffd5b8135610ce9610ce482610ca4565b610c55565b8082825260208201915060208360051b860101925085831115610d0a575f5ffd5b602085015b83811015610d2e57610d2081610be0565b835260209283019201610d0f565b5095945050505050565b5f5f60408385031215610d49575f5ffd5b823567ffffffffffffffff811115610d5f575f5ffd5b610d6b85828601610cc7565b925050602083013567ffffffffffffffff811115610d87575f5ffd5b8301601f81018513610d97575f5ffd5b8035610da5610ce482610ca4565b8082825260208201915060208360051b850101925087831115610dc6575f5ffd5b6020840193505b82841015610de8578335825260209384019390910190610dcd565b809450505050509250929050565b5f5f5f5f5f60a08688031215610e0a575f5ffd5b610e1386610be0565b94506020860135935060408601359250610e2f60608701610be0565b9150610e3d60808701610be0565b90509295509295909350565b5f5f60408385031215610e5a575f5ffd5b823567ffffffffffffffff811115610e70575f5ffd5b610e7c85828601610cc7565b925050602083013567ffffffffffffffff811115610e98575f5ffd5b8301601f81018513610ea8575f5ffd5b8035610eb6610ce482610ca4565b8082825260208201915060208360051b850101925087831115610ed7575f5ffd5b6020840193505b82841015610de85783358015158114610ef5575f5ffd5b825260209384019390910190610ede565b602081525f82518060208401528060208501604085015e5f6040828501015260407fffffffffffffffffffffffffffffffffffffffffffffffffffffffffffffffe0601f83011684010191505092915050565b7f4e487b71000000000000000000000000000000000000000000000000000000005f52603260045260245ffd5b80820180821115610fbe577f4e487b71000000000000000000000000000000000000000000000000000000005f52601160045260245ffd5b92915050565b5f8151808452602084019350602083015f5b8281101561100a57815173ffffffffffffffffffffffffffffffffffffffff16865260209586019590910190600101610fd6565b5093949350505050565b604081525f6110266040830185610fc4565b82810360208401528084518083526020830191506020860192505f5b81811015611060578351835260209384019390920191600101611042565b50909695505050505050565b604081525f61107e6040830185610fc4565b82810360208401528084518083526020830191506020860192505f5b81811015611060578351151583526020938401939092019160010161109a56fea2646970667358221220a6bfff76c5ba6d51d6238eb8a3f8213209d48b27f144415147c96c325006fcc064736f6c634300081c0033",
  "linkReferences": {},
  "deployedLinkReferences": {}
}