{
  "_format": "hh-sol-artifact-1",
  "contractName": "DualStakingTokenActivityChecker",
  "sourceName": "contracts/dual_token/DualStakingTokenActivityChecker.sol",
  "abi": [
    {
      "inputs": [
        {
          "internalType": "uint256",
          "name": "_livenessRatio",
          "type": "uint256"
        }
      ],
      "stateMutability": "nonpayable",
      "type": "constructor"
    },
    {
      "inputs": [
        {
          "internalType": "address",
          "name": "account",
          "type": "address"
        }
      ],
      "name": "UnauthorizedAccount",
      "type": "error"
    },
    {
      "inputs": [],
      "name": "ZeroAddress",
      "type": "error"
    },
    {
      "inputs": [],
      "name": "ZeroValue",
      "type": "error"
    },
    {
      "inputs": [],
      "name": "dualStakingToken",
      "outputs": [
        {
          "internalType": "address",
          "name": "",
          "type": "address"
        }
      ],
      "stateMutability": "view",
      "type": "function"
    },
    {
      "inputs": [
        {
          "internalType": "address",
          "name": "multisig",
          "type": "address"
        }
      ],
      "name": "getMultisigNonces",
      "outputs": [
        {
          "internalType": "uint256[]",
          "name": "nonces",
          "type": "uint256[]"
        }
      ],
      "stateMutability": "view",
      "type": "function"
    },
    {
      "inputs": [
        {
          "internalType": "uint256[]",
          "name": "curNonces",
          "type": "uint256[]"
        },
        {
          "internalType": "uint256[]",
          "name": "lastNonces",
          "type": "uint256[]"
        },
        {
          "internalType": "uint256",
          "name": "ts",
          "type": "uint256"
        }
      ],
      "name": "isRatioPass",
      "outputs": [
        {
          "internalType": "bool",
          "name": "ratioPass",
          "type": "bool"
        }
      ],
      "stateMutability": "view",
      "type": "function"
    },
    {
      "inputs": [],
      "name": "livenessRatio",
      "outputs": [
        {
          "internalType": "uint256",
          "name": "",
          "type": "uint256"
        }
      ],
      "stateMutability": "view",
      "type": "function"
    },
    {
      "inputs": [],
      "name": "owner",
      "outputs": [
        {
          "internalType": "address",
          "name": "",
          "type": "address"
        }
      ],
      "stateMutability": "view",
      "type": "function"
    },
    {
      "inputs": [
        {
          "internalType": "address",
          "name": "_dualStakingToken",
          "type": "address"
        }
      ],
      "name": "setDualStakingToken",
      "outputs": [],
      "stateMutability": "nonpayable",
      "type": "function"
    }
  ],
  "bytecode": "0x60a0604052348015600e575f5ffd5b5060405161084c38038061084c833981016040819052602b916065565b80805f03604b57604051637c946ed760e01b815260040160405180910390fd5b60805250600180546001600160a01b03191633179055607b565b5f602082840312156074575f5ffd5b5051919050565b6080516107b36100995f395f818160a0015261020d01526107b35ff3fe608060405234801561000f575f5ffd5b506004361061006f575f3560e01c80638da5cb5b1161004d5780638da5cb5b146100e557806399a391111461012a578063d564c4bf14610149575f5ffd5b8063184023a514610073578063592cf3fb1461009b57806359fa62b1146100d0575b5f5ffd5b6100866100813660046105a2565b610169565b60405190151581526020015b60405180910390f35b6100c27f000000000000000000000000000000000000000000000000000000000000000081565b604051908152602001610092565b6100e36100de366004610610565b610239565b005b6001546101059073ffffffffffffffffffffffffffffffffffffffff1681565b60405173ffffffffffffffffffffffffffffffffffffffff9091168152602001610092565b5f546101059073ffffffffffffffffffffffffffffffffffffffff1681565b61015c610157366004610610565b61032b565b6040516100929190610643565b5f5f821180156101aa5750825f8151811061018657610186610685565b6020026020010151845f815181106101a0576101a0610685565b6020026020010151115b15610232575f82845f815181106101c3576101c3610685565b6020026020010151865f815181106101dd576101dd610685565b60200260200101516101ef91906106df565b61020190670de0b6b3a76400006106f8565b61020b919061070f565b7f000000000000000000000000000000000000000000000000000000000000000011159150505b9392505050565b60015473ffffffffffffffffffffffffffffffffffffffff163314610291576040517f32b2baa30000000000000000000000000000000000000000000000000000000081523360048201526024015b60405180910390fd5b73ffffffffffffffffffffffffffffffffffffffff81166102de576040517fd92e233d00000000000000000000000000000000000000000000000000000000815260040160405180910390fd5b5f805473ffffffffffffffffffffffffffffffffffffffff9092167fffffffffffffffffffffffff0000000000000000000000000000000000000000928316179055600180549091169055565b5f546040517f60d964c300000000000000000000000000000000000000000000000000000000815273ffffffffffffffffffffffffffffffffffffffff838116600483015260609216906360d964c390602401602060405180830381865afa158015610399573d5f5f3e3d5ffd5b505050506040513d601f19601f820116820180604052508101906103bd9190610747565b61040b576040517f32b2baa300000000000000000000000000000000000000000000000000000000815273ffffffffffffffffffffffffffffffffffffffff83166004820152602401610288565b60408051600180825281830190925290602080830190803683370190505090508173ffffffffffffffffffffffffffffffffffffffff1663affed0e06040518163ffffffff1660e01b8152600401602060405180830381865afa158015610474573d5f5f3e3d5ffd5b505050506040513d601f19601f820116820180604052508101906104989190610766565b815f815181106104aa576104aa610685565b602002602001018181525050919050565b7f4e487b71000000000000000000000000000000000000000000000000000000005f52604160045260245ffd5b5f82601f8301126104f7575f5ffd5b813567ffffffffffffffff811115610511576105116104bb565b8060051b6040517fffffffffffffffffffffffffffffffffffffffffffffffffffffffffffffffe0603f830116810181811067ffffffffffffffff8211171561055c5761055c6104bb565b604052918252602081850181019290810186841115610579575f5ffd5b6020860192505b83831015610598578235815260209283019201610580565b5095945050505050565b5f5f5f606084860312156105b4575f5ffd5b833567ffffffffffffffff8111156105ca575f5ffd5b6105d6868287016104e8565b935050602084013567ffffffffffffffff8111156105f2575f5ffd5b6105fe868287016104e8565b93969395505050506040919091013590565b5f60208284031215610620575f5ffd5b813573ffffffffffffffffffffffffffffffffffffffff81168114610232575f5ffd5b602080825282518282018190525f918401906040840190835b8181101561067a57835183526020938401939092019160010161065c565b509095945050505050565b7f4e487b71000000000000000000000000000000000000000000000000000000005f52603260045260245ffd5b7f4e487b71000000000000000000000000000000000000000000000000000000005f52601160045260245ffd5b818103818111156106f2576106f26106b2565b92915050565b80820281158282048414176106f2576106f26106b2565b5f82610742577f4e487b71000000000000000000000000000000000000000000000000000000005f52601260045260245ffd5b500490565b5f60208284031215610757575f5ffd5b81518015158114610232575f5ffd5b5f60208284031215610776575f5ffd5b505191905056fea2646970667358221220954239efc098f002b1ea1d2e81e2de1e6634289e06598e4d5416d9221c0c21eb64736f6c634300081c0033",
  "linkReferences": {},
  "deployedLinkReferences": {}
}