{
  "_format": "hh-sol-artifact-1",
  "contractName": "DualStakingToken",
  "sourceName": "contracts/dual_token/DualStakingToken.sol",
  "abi": [
    {
      "inputs": [
        {
          "internalType": "address",
          "name": "_serviceRegistry",
          "type": "address"
        },
        {
          "internalType": "address",
          "name": "_secondToken",
          "type": "address"
        },
        {
          "internalType": "address",
          "name": "_stakingInstance",
          "type": "address"
        },
        {
          "internalType": "uint256",
          "name": "_rewardRatio",
          "type": "uint256"
        }
      ],
      "stateMutability": "nonpayable",
      "type": "constructor"
    },
    {
      "inputs": [
        {
          "internalType": "uint256",
          "name": "serviceId",
          "type": "uint256"
        }
      ],
      "name": "AlreadyStaked",
      "type": "error"
    },
    {
      "inputs": [],
      "name": "ReentrancyGuard",
      "type": "error"
    },
    {
      "inputs": [
        {
          "internalType": "address",
          "name": "sender",
          "type": "address"
        },
        {
          "internalType": "address",
          "name": "staker",
          "type": "address"
        }
      ],
      "name": "StakerOnly",
      "type": "error"
    },
    {
      "inputs": [
        {
          "internalType": "address",
          "name": "token",
          "type": "address"
        },
        {
          "internalType": "address",
          "name": "from",
          "type": "address"
        },
        {
          "internalType": "address",
          "name": "to",
          "type": "address"
        },
        {
          "internalType": "uint256",
          "name": "value",
          "type": "uint256"
        }
      ],
      "name": "TokenTransferFailed",
      "type": "error"
    },
    {
      "inputs": [
        {
          "internalType": "uint256",
          "name": "serviceId",
          "type": "uint256"
        },
        {
          "internalType": "enum IStaking.StakingState",
          "name": "state",
          "type": "uint8"
        }
      ],
      "name": "WrongStakingState",
      "type": "error"
    },
    {
      "inputs": [],
      "name": "ZeroAddress",
      "type": "error"
    },
    {
      "inputs": [],
      "name": "ZeroValue",
      "type": "error"
    },
    {
      "anonymous": false,
      "inputs": [
        {
          "indexed": true,
          "internalType": "uint256",
          "name": "serviceId",
          "type": "uint256"
        },
        {
          "indexed": false,
          "internalType": "uint256",
          "name": "reward",
          "type": "uint256"
        }
      ],
      "name": "Claimed",
      "type": "event"
    },
    {
      "anonymous": false,
      "inputs": [
        {
          "indexed": true,
          "internalType": "address",
          "name": "sender",
          "type": "address"
        },
        {
          "indexed": false,
          "internalType": "uint256",
          "name": "amount",
          "type": "uint256"
        },
        {
          "indexed": false,
          "internalType": "uint256",
          "name": "balance",
          "type": "uint256"
        },
        {
          "indexed": false,
          "internalType": "uint256",
          "name": "availableRewards",
          "type": "uint256"
        }
      ],
      "name": "Deposit",
      "type": "event"
    },
    {
      "anonymous": false,
      "inputs": [
        {
          "indexed": true,
          "internalType": "uint256",
          "name": "serviceId",
          "type": "uint256"
        }
      ],
      "name": "Staked",
      "type": "event"
    },
    {
      "anonymous": false,
      "inputs": [
        {
          "indexed": true,
          "internalType": "uint256",
          "name": "serviceId",
          "type": "uint256"
        }
      ],
      "name": "Unstaked",
      "type": "event"
    },
    {
      "anonymous": false,
      "inputs": [
        {
          "indexed": true,
          "internalType": "address",
          "name": "to",
          "type": "address"
        },
        {
          "indexed": false,
          "internalType": "uint256",
          "name": "amount",
          "type": "uint256"
        }
      ],
      "name": "Withdraw",
      "type": "event"
    },
    {
      "inputs": [],
      "name": "checkpoint",
      "outputs": [],
      "stateMutability": "nonpayable",
      "type": "function"
    },
    {
      "inputs": [
        {
          "internalType": "uint256",
          "name": "serviceId",
          "type": "uint256"
        }
      ],
      "name": "claim",
      "outputs": [],
      "stateMutability": "nonpayable",
      "type": "function"
    },
    {
      "inputs": [
        {
          "internalType": "address",
          "name": "",
          "type": "address"
        }
      ],
      "name": "mapMutisigs",
      "outputs": [
        {
          "internalType": "bool",
          "name": "",
          "type": "bool"
        }
      ],
      "stateMutability": "view",
      "type": "function"
    },
    {
      "inputs": [
        {
          "internalType": "uint256",
          "name": "",
          "type": "uint256"
        }
      ],
      "name": "mapServiceIdStakers",
      "outputs": [
        {
          "internalType": "address",
          "name": "",
          "type": "address"
        }
      ],
      "stateMutability": "view",
      "type": "function"
    },
    {
      "inputs": [],
      "name": "numServices",
      "outputs": [
        {
          "internalType": "uint256",
          "name": "",
          "type": "uint256"
        }
      ],
      "stateMutability": "view",
      "type": "function"
    },
    {
      "inputs": [
        {
          "internalType": "address",
          "name": "",
          "type": "address"
        },
        {
          "internalType": "address",
          "name": "",
          "type": "address"
        },
        {
          "internalType": "uint256",
          "name": "",
          "type": "uint256"
        },
        {
          "internalType": "bytes",
          "name": "",
          "type": "bytes"
        }
      ],
      "name": "onERC721Received",
      "outputs": [
        {
          "internalType": "bytes4",
          "name": "",
          "type": "bytes4"
        }
      ],
      "stateMutability": "nonpayable",
      "type": "function"
    },
    {
      "inputs": [
        {
          "internalType": "uint256",
          "name": "serviceId",
          "type": "uint256"
        }
      ],
      "name": "restake",
      "outputs": [],
      "stateMutability": "nonpayable",
      "type": "function"
    },
    {
      "inputs": [],
      "name": "rewardRatio",
      "outputs": [
        {
          "internalType": "uint256",
          "name": "",
          "type": "uint256"
        }
      ],
      "stateMutability": "view",
      "type": "function"
    },
    {
      "inputs": [],
      "name": "secondToken",
      "outputs": [
        {
          "internalType": "address",
          "name": "",
          "type": "address"
        }
      ],
      "stateMutability": "view",
      "type": "function"
    },
    {
      "inputs": [],
      "name": "secondTokenAmount",
      "outputs": [
        {
          "internalType": "uint256",
          "name": "",
          "type": "uint256"
        }
      ],
      "stateMutability": "view",
      "type": "function"
    },
    {
      "inputs": [],
      "name": "serviceRegistry",
      "outputs": [
        {
          "internalType": "address",
          "name": "",
          "type": "address"
        }
      ],
      "stateMutability": "view",
      "type": "function"
    },
    {
      "inputs": [
        {
          "internalType": "uint256",
          "name": "serviceId",
          "type": "uint256"
        }
      ],
      "name": "stake",
      "outputs": [],
      "stateMutability": "nonpayable",
      "type": "function"
    },
    {
      "inputs": [],
      "name": "stakingInstance",
      "outputs": [
        {
          "internalType": "address",
          "name": "",
          "type": "address"
        }
      ],
      "stateMutability": "view",
      "type": "function"
    },
    {
      "inputs": [
        {
          "internalType": "uint256",
          "name": "serviceId",
          "type": "uint256"
        }
      ],
      "name": "unstake",
      "outputs": [],
      "stateMutability": "nonpayable",
      "type": "function"
    }
  ],
  "bytecode": "0x61012060405260018055348015610014575f5ffd5b5060405161203a38038061203a833981016040819052610033916101e2565b6001600160a01b038416158061005057506001600160a01b038316155b8061006257506001600160a01b038216155b156100805760405163d92e233d60e01b815260040160405180910390fd5b805f036100a057604051637c946ed760e01b815260040160405180910390fd5b6001600160a01b0380851660805283811660a052821660c08190526101008290526040805163160a717b60e21b815290515f9291635829c5ec9160048083019260209291908290030181865afa1580156100fc573d5f5f3e3d5ffd5b505050506040513d601f19601f82011682018060405250810190610120919061022a565b90505f836001600160a01b031663e77cdcc96040518163ffffffff1660e01b8152600401602060405180830381865afa15801561015f573d5f5f3e3d5ffd5b505050506040513d601f19601f82011682018060405250810190610183919061022a565b9050670de0b6b3a76400008361019a846001610255565b6101a4908461026e565b6101ae919061026e565b6101b89190610285565b60e052506102a4945050505050565b80516001600160a01b03811681146101dd575f5ffd5b919050565b5f5f5f5f608085870312156101f5575f5ffd5b6101fe856101c7565b935061020c602086016101c7565b925061021a604086016101c7565b6060959095015193969295505050565b5f6020828403121561023a575f5ffd5b5051919050565b634e487b7160e01b5f52601160045260245ffd5b8082018082111561026857610268610241565b92915050565b808202811582820484141761026857610268610241565b5f8261029f57634e487b7160e01b5f52601260045260245ffd5b500490565b60805160a05160c05160e05161010051611caa6103905f395f818161023f015261148f01525f81816102f001528181610525015281816109ea01528181610cd401526114c501525f818161015c0152818161057a0152818161081301528181610dda01528181610e8f015281816110210152818161111f015281816111dc0152818161128f015261134c01525f81816101d001528181610a3c01528181610cb101528181611407015261151c01525f81816102c90152818161040701528181610698015281816108cb01528181610b8f01528181610d3301528181610e09015261120b0152611caa5ff3fe608060405234801561000f575f5ffd5b50600436106100e5575f3560e01c8063646033bc11610088578063bce1b52011610063578063bce1b520146102a9578063c2c4c5c1146102bc578063cbcf252a146102c4578063cc656725146102eb575f5ffd5b8063646033bc1461023a57806368ff20c814610261578063a694fc3a14610296575f5ffd5b8063379607f5116100c3578063379607f5146101b85780633bfd49da146101cb5780635ba19af4146101f257806360d964c314610208575f5ffd5b8063150b7a02146100e957806326e86d95146101575780632e17de78146101a3575b5f5ffd5b6101216100f73660046117a6565b7f150b7a020000000000000000000000000000000000000000000000000000000095945050505050565b6040517fffffffff0000000000000000000000000000000000000000000000000000000090911681526020015b60405180910390f35b61017e7f000000000000000000000000000000000000000000000000000000000000000081565b60405173ffffffffffffffffffffffffffffffffffffffff909116815260200161014e565b6101b66101b136600461183f565b610312565b005b6101b66101c636600461183f565b610723565b61017e7f000000000000000000000000000000000000000000000000000000000000000081565b6101fa5f5481565b60405190815260200161014e565b61022a610216366004611856565b60036020525f908152604090205460ff1681565b604051901515815260200161014e565b6101fa7f000000000000000000000000000000000000000000000000000000000000000081565b61017e61026f36600461183f565b60026020525f908152604090205473ffffffffffffffffffffffffffffffffffffffff1681565b6101b66102a436600461183f565b6109a0565b6101b66102b736600461183f565b610f31565b6101b6611306565b61017e7f000000000000000000000000000000000000000000000000000000000000000081565b6101fa7f000000000000000000000000000000000000000000000000000000000000000081565b60018054111561034e576040517f8beb9d1600000000000000000000000000000000000000000000000000000000815260040160405180910390fd5b600260018190555f828152602091909152604090205473ffffffffffffffffffffffffffffffffffffffff163381146103d6576040517f1728a1a900000000000000000000000000000000000000000000000000000000815233600482015273ffffffffffffffffffffffffffffffffffffffff821660248201526044015b60405180910390fd5b6040517f4236aff8000000000000000000000000000000000000000000000000000000008152600481018390525f907f000000000000000000000000000000000000000000000000000000000000000073ffffffffffffffffffffffffffffffffffffffff1690634236aff89060240160e060405180830381865afa158015610461573d5f5f3e3d5ffd5b505050506040513d601f19601f820116820180604052508101906104859190611890565b5050505f87815260026020908152604080832080547fffffffffffffffffffffffff000000000000000000000000000000000000000016905573ffffffffffffffffffffffffffffffffffffffff861683526003909152812080547fffffffffffffffffffffffffffffffffffffffffffffffffffffffffffffff00169055805493955092935082915061051a905083611956565b9190505550610549827f0000000000000000000000000000000000000000000000000000000000000000611402565b6040517f2e17de78000000000000000000000000000000000000000000000000000000008152600481018490525f907f000000000000000000000000000000000000000000000000000000000000000073ffffffffffffffffffffffffffffffffffffffff1690632e17de78906024016020604051808303815f875af11580156105d5573d5f5f3e3d5ffd5b505050506040513d601f19601f820116820180604052508101906105f9919061198a565b905080156106465761060b8282611481565b837fc83b5086ce94ec8d5a88a9f5fea4b18a522bb238ed0d2d8abd959549a80c16b88260405161063d91815260200190565b60405180910390a25b6040517f23b872dd00000000000000000000000000000000000000000000000000000000815230600482015273ffffffffffffffffffffffffffffffffffffffff8481166024830152604482018690527f000000000000000000000000000000000000000000000000000000000000000016906323b872dd906064015f604051808303815f87803b1580156106d9575f5ffd5b505af11580156106eb573d5f5f3e3d5ffd5b50506040518692507f11725367022c3ff288940f4b5473aa61c2da6a24af7363a1128ee2401e8983b291505f90a25050600180555050565b60018054111561075f576040517f8beb9d1600000000000000000000000000000000000000000000000000000000815260040160405180910390fd5b600260018190555f828152602091909152604090205473ffffffffffffffffffffffffffffffffffffffff163381146107e2576040517f1728a1a900000000000000000000000000000000000000000000000000000000815233600482015273ffffffffffffffffffffffffffffffffffffffff821660248201526044016103cd565b6040517f379607f5000000000000000000000000000000000000000000000000000000008152600481018390525f907f000000000000000000000000000000000000000000000000000000000000000073ffffffffffffffffffffffffffffffffffffffff169063379607f5906024016020604051808303815f875af115801561086e573d5f5f3e3d5ffd5b505050506040513d601f19601f82011682018060405250810190610892919061198a565b90508015610997576040517f4236aff8000000000000000000000000000000000000000000000000000000008152600481018490525f907f000000000000000000000000000000000000000000000000000000000000000073ffffffffffffffffffffffffffffffffffffffff1690634236aff89060240160e060405180830381865afa158015610925573d5f5f3e3d5ffd5b505050506040513d601f19601f820116820180604052508101906109499190611890565b505050505091505061095b8183611481565b837fc83b5086ce94ec8d5a88a9f5fea4b18a522bb238ed0d2d8abd959549a80c16b88360405161098d91815260200190565b60405180910390a2505b50506001805550565b6001805411156109dc576040517f8beb9d1600000000000000000000000000000000000000000000000000000000815260040160405180910390fd5b60026001555f8054610a0e907f00000000000000000000000000000000000000000000000000000000000000006119a1565b6040517f70a082310000000000000000000000000000000000000000000000000000000081523060048201527f000000000000000000000000000000000000000000000000000000000000000073ffffffffffffffffffffffffffffffffffffffff16906370a0823190602401602060405180830381865afa158015610a96573d5f5f3e3d5ffd5b505050506040513d601f19601f82011682018060405250810190610aba919061198a565b610ac491906119be565b9050805f03610aff576040517f7c946ed700000000000000000000000000000000000000000000000000000000815260040160405180910390fd5b5f8281526002602052604090205473ffffffffffffffffffffffffffffffffffffffff168015610b5e576040517f7a5afbde000000000000000000000000000000000000000000000000000000008152600481018490526024016103cd565b6040517f4236aff8000000000000000000000000000000000000000000000000000000008152600481018490525f907f000000000000000000000000000000000000000000000000000000000000000073ffffffffffffffffffffffffffffffffffffffff1690634236aff89060240160e060405180830381865afa158015610be9573d5f5f3e3d5ffd5b505050506040513d601f19601f82011682018060405250810190610c0d9190611890565b5050505f88815260026020908152604080832080547fffffffffffffffffffffffff0000000000000000000000000000000000000000163317905573ffffffffffffffffffffffffffffffffffffffff861683526003909152812080547fffffffffffffffffffffffffffffffffffffffffffffffffffffffffffffff001660011790558054939550929350829150610ca79050836119d1565b9190505550610cf87f000000000000000000000000000000000000000000000000000000000000000033307f00000000000000000000000000000000000000000000000000000000000000006115c1565b6040517f42842e0e000000000000000000000000000000000000000000000000000000008152336004820152306024820152604481018590527f000000000000000000000000000000000000000000000000000000000000000073ffffffffffffffffffffffffffffffffffffffff16906342842e0e906064015f604051808303815f87803b158015610d89575f5ffd5b505af1158015610d9b573d5f5f3e3d5ffd5b50506040517f095ea7b300000000000000000000000000000000000000000000000000000000815273ffffffffffffffffffffffffffffffffffffffff7f000000000000000000000000000000000000000000000000000000000000000081166004830152602482018890527f000000000000000000000000000000000000000000000000000000000000000016925063095ea7b391506044015f604051808303815f87803b158015610e4c575f5ffd5b505af1158015610e5e573d5f5f3e3d5ffd5b50506040517fa694fc3a000000000000000000000000000000000000000000000000000000008152600481018790527f000000000000000000000000000000000000000000000000000000000000000073ffffffffffffffffffffffffffffffffffffffff16925063a694fc3a91506024015f604051808303815f87803b158015610ee7575f5ffd5b505af1158015610ef9573d5f5f3e3d5ffd5b50506040518692507feebbaa86c348cb664e392b180fd0ff2e1998af9fa833ef69a778cb0b42d3ca2791505f90a25050600180555050565b600180541115610f6d576040517f8beb9d1600000000000000000000000000000000000000000000000000000000815260040160405180910390fd5b600260018190555f828152602091909152604090205473ffffffffffffffffffffffffffffffffffffffff16338114610ff0576040517f1728a1a900000000000000000000000000000000000000000000000000000000815233600482015273ffffffffffffffffffffffffffffffffffffffff821660248201526044016103cd565b6040517ffd0bba8c000000000000000000000000000000000000000000000000000000008152600481018390525f907f000000000000000000000000000000000000000000000000000000000000000073ffffffffffffffffffffffffffffffffffffffff169063fd0bba8c90602401602060405180830381865afa15801561107b573d5f5f3e3d5ffd5b505050506040513d601f19601f8201168201806040525081019061109f9190611a08565b905060028160028111156110b5576110b5611a26565b146110f05782816040517f1bcf512c0000000000000000000000000000000000000000000000000000000081526004016103cd929190611a53565b6040517f2e17de78000000000000000000000000000000000000000000000000000000008152600481018490527f000000000000000000000000000000000000000000000000000000000000000073ffffffffffffffffffffffffffffffffffffffff1690632e17de78906024016020604051808303815f875af115801561117a573d5f5f3e3d5ffd5b505050506040513d601f19601f8201168201806040525081019061119e919061198a565b506040517f095ea7b300000000000000000000000000000000000000000000000000000000815273ffffffffffffffffffffffffffffffffffffffff7f000000000000000000000000000000000000000000000000000000000000000081166004830152602482018590527f0000000000000000000000000000000000000000000000000000000000000000169063095ea7b3906044015f604051808303815f87803b15801561124c575f5ffd5b505af115801561125e573d5f5f3e3d5ffd5b50506040517fa694fc3a000000000000000000000000000000000000000000000000000000008152600481018690527f000000000000000000000000000000000000000000000000000000000000000073ffffffffffffffffffffffffffffffffffffffff16925063a694fc3a91506024015f604051808303815f87803b1580156112e7575f5ffd5b505af11580156112f9573d5f5f3e3d5ffd5b5050600180555050505050565b600180541115611342576040517f8beb9d1600000000000000000000000000000000000000000000000000000000815260040160405180910390fd5b60026001819055507f000000000000000000000000000000000000000000000000000000000000000073ffffffffffffffffffffffffffffffffffffffff1663c2c4c5c16040518163ffffffff1660e01b81526004015f604051808303815f875af11580156113b3573d5f5f3e3d5ffd5b505050506040513d5f823e601f3d9081017fffffffffffffffffffffffffffffffffffffffffffffffffffffffffffffffe01682016040526113f89190810190611b83565b5050600180555050565b61142d7f000000000000000000000000000000000000000000000000000000000000000083836116b0565b8173ffffffffffffffffffffffffffffffffffffffff167f884edad9ce6fa2440d8a54cc123490eb96d2768479d49ff9c7366125a94243648260405161147591815260200190565b60405180910390a25050565b670de0b6b3a76400006114b47f0000000000000000000000000000000000000000000000000000000000000000836119a1565b6114be9190611c3c565b90505f5f547f00000000000000000000000000000000000000000000000000000000000000006114ee91906119a1565b6040517f70a082310000000000000000000000000000000000000000000000000000000081523060048201527f000000000000000000000000000000000000000000000000000000000000000073ffffffffffffffffffffffffffffffffffffffff16906370a0823190602401602060405180830381865afa158015611576573d5f5f3e3d5ffd5b505050506040513d601f19601f8201168201806040525081019061159a919061198a565b6115a491906119be565b9050808211156115b2578091505b6115bc8383611402565b505050565b5f6040517f23b872dd000000000000000000000000000000000000000000000000000000005f5273ffffffffffffffffffffffffffffffffffffffff851660045273ffffffffffffffffffffffffffffffffffffffff84166024528260445260205f60645f5f8a5af13d15601f3d1160015f511416171691505f6060528060405250806116a9576040517fabae3d6d00000000000000000000000000000000000000000000000000000000815273ffffffffffffffffffffffffffffffffffffffff8087166004830152808616602483015284166044820152606481018390526084016103cd565b5050505050565b5f6040517fa9059cbb000000000000000000000000000000000000000000000000000000005f5273ffffffffffffffffffffffffffffffffffffffff84166004528260245260205f60445f5f895af13d15601f3d1160015f511416171691505f60605280604052508061177c576040517fabae3d6d00000000000000000000000000000000000000000000000000000000815273ffffffffffffffffffffffffffffffffffffffff808616600483015230602483015284166044820152606481018390526084016103cd565b50505050565b73ffffffffffffffffffffffffffffffffffffffff811681146117a3575f5ffd5b50565b5f5f5f5f5f608086880312156117ba575f5ffd5b85356117c581611782565b945060208601356117d581611782565b935060408601359250606086013567ffffffffffffffff8111156117f7575f5ffd5b8601601f81018813611807575f5ffd5b803567ffffffffffffffff81111561181d575f5ffd5b88602082840101111561182e575f5ffd5b959894975092955050506020019190565b5f6020828403121561184f575f5ffd5b5035919050565b5f60208284031215611866575f5ffd5b813561187181611782565b9392505050565b805163ffffffff8116811461188b575f5ffd5b919050565b5f5f5f5f5f5f5f60e0888a0312156118a6575f5ffd5b87516bffffffffffffffffffffffff811681146118c1575f5ffd5b60208901519097506118d281611782565b604089015190965094506118e860608901611878565b93506118f660808901611878565b925061190460a08901611878565b915060c088015160ff81168114611919575f5ffd5b8091505092959891949750929550565b7f4e487b71000000000000000000000000000000000000000000000000000000005f52601160045260245ffd5b5f8161196457611964611929565b507fffffffffffffffffffffffffffffffffffffffffffffffffffffffffffffffff0190565b5f6020828403121561199a575f5ffd5b5051919050565b80820281158282048414176119b8576119b8611929565b92915050565b818103818111156119b8576119b8611929565b5f7fffffffffffffffffffffffffffffffffffffffffffffffffffffffffffffffff8203611a0157611a01611929565b5060010190565b5f60208284031215611a18575f5ffd5b815160038110611871575f5ffd5b7f4e487b71000000000000000000000000000000000000000000000000000000005f52602160045260245ffd5b8281526040810160038310611a8f577f4e487b71000000000000000000000000000000000000000000000000000000005f52602160045260245ffd5b8260208301529392505050565b7f4e487b71000000000000000000000000000000000000000000000000000000005f52604160045260245ffd5b5f82601f830112611ad8575f5ffd5b815167ffffffffffffffff811115611af257611af2611a9c565b8060051b6040517fffffffffffffffffffffffffffffffffffffffffffffffffffffffffffffffe0603f830116810181811067ffffffffffffffff82111715611b3d57611b3d611a9c565b604052918252602081850181019290810186841115611b5a575f5ffd5b6020860192505b83831015611b79578251815260209283019201611b61565b5095945050505050565b5f5f5f5f60808587031215611b96575f5ffd5b845167ffffffffffffffff811115611bac575f5ffd5b611bb887828801611ac9565b945050602085015167ffffffffffffffff811115611bd4575f5ffd5b611be087828801611ac9565b935050604085015167ffffffffffffffff811115611bfc575f5ffd5b611c0887828801611ac9565b925050606085015167ffffffffffffffff811115611c24575f5ffd5b611c3087828801611ac9565b91505092959194509250565b5f82611c6f577f4e487b71000000000000000000000000000000000000000000000000000000005f52601260045260245ffd5b50049056fea2646970667358221220ab4f76de42e01f1c758c75e1c9ec46f79bf64e562af1de4742619f83aadbc36964736f6c634300081c0033",
  "linkReferences": {},
  "deployedLinkReferences": {}
}