{
  "_format": "hh-sol-artifact-1",
  "contractName": "StakingActivityChecker",
  "sourceName": "lib/autonolas-registries/contracts/staking/StakingActivityChecker.sol",
  "abi": [
    {
      "inputs": [
        {
          "internalType": "uint256",
          "name": "_livenessRatio",
          "type": "uint256"
        }
      ],
      "stateMutability": "nonpayable",
      "type": "constructor"
    },
    {
      "inputs": [],
      "name": "ZeroValue",
      "type": "error"
    },
    {
      "inputs": [
        {
          "internalType": "address",
          "name": "multisig",
          "type": "address"
        }
      ],
      "name": "getMultisigNonces",
      "outputs": [
        {
          "internalType": "uint256[]",
          "name": "nonces",
          "type": "uint256[]"
        }
      ],
      "stateMutability": "view",
      "type": "function"
    },
    {
      "inputs": [
        {
          "internalType": "uint256[]",
          "name": "curNonces",
          "type": "uint256[]"
        },
        {
          "internalType": "uint256[]",
          "name": "lastNonces",
          "type": "uint256[]"
        },
        {
          "internalType": "uint256",
          "name": "ts",
          "type": "uint256"
        }
      ],
      "name": "isRatioPass",
      "outputs": [
        {
          "internalType": "bool",
          "name": "ratioPass",
          "type": "bool"
        }
      ],
      "stateMutability": "view",
      "type": "function"
    },
    {
      "inputs": [],
      "name": "livenessRatio",
      "outputs": [
        {
          "internalType": "uint256",
          "name": "",
          "type": "uint256"
        }
      ],
      "stateMutability": "view",
      "type": "function"
    }
  ],
  "bytecode": "0x60a0604052348015600e575f5ffd5b506040516105a03803806105a0833981016040819052602b916051565b805f03604a57604051637c946ed760e01b815260040160405180910390fd5b6080526067565b5f602082840312156060575f5ffd5b5051919050565b60805161051b6100855f395f818160700152610164015261051b5ff3fe608060405234801561000f575f5ffd5b506004361061003f575f3560e01c8063184023a514610043578063592cf3fb1461006b578063d564c4bf146100a0575b5f5ffd5b610056610051366004610329565b6100c0565b60405190151581526020015b60405180910390f35b6100927f000000000000000000000000000000000000000000000000000000000000000081565b604051908152602001610062565b6100b36100ae366004610397565b610190565b60405161006291906103ca565b5f5f821180156101015750825f815181106100dd576100dd61040c565b6020026020010151845f815181106100f7576100f761040c565b6020026020010151115b15610189575f82845f8151811061011a5761011a61040c565b6020026020010151865f815181106101345761013461040c565b60200260200101516101469190610466565b61015890670de0b6b3a764000061047f565b6101629190610496565b7f000000000000000000000000000000000000000000000000000000000000000011159150505b9392505050565b604080516001808252818301909252606091602080830190803683370190505090508173ffffffffffffffffffffffffffffffffffffffff1663affed0e06040518163ffffffff1660e01b8152600401602060405180830381865afa1580156101fb573d5f5f3e3d5ffd5b505050506040513d601f19601f8201168201806040525081019061021f91906104ce565b815f815181106102315761023161040c565b602002602001018181525050919050565b7f4e487b71000000000000000000000000000000000000000000000000000000005f52604160045260245ffd5b5f82601f83011261027e575f5ffd5b813567ffffffffffffffff81111561029857610298610242565b8060051b6040517fffffffffffffffffffffffffffffffffffffffffffffffffffffffffffffffe0603f830116810181811067ffffffffffffffff821117156102e3576102e3610242565b604052918252602081850181019290810186841115610300575f5ffd5b6020860192505b8383101561031f578235815260209283019201610307565b5095945050505050565b5f5f5f6060848603121561033b575f5ffd5b833567ffffffffffffffff811115610351575f5ffd5b61035d8682870161026f565b935050602084013567ffffffffffffffff811115610379575f5ffd5b6103858682870161026f565b93969395505050506040919091013590565b5f602082840312156103a7575f5ffd5b813573ffffffffffffffffffffffffffffffffffffffff81168114610189575f5ffd5b602080825282518282018190525f918401906040840190835b818110156104015783518352602093840193909201916001016103e3565b509095945050505050565b7f4e487b71000000000000000000000000000000000000000000000000000000005f52603260045260245ffd5b7f4e487b71000000000000000000000000000000000000000000000000000000005f52601160045260245ffd5b8181038181111561047957610479610439565b92915050565b808202811582820484141761047957610479610439565b5f826104c9577f4e487b71000000000000000000000000000000000000000000000000000000005f52601260045260245ffd5b500490565b5f602082840312156104de575f5ffd5b505191905056fea2646970667358221220a30295460a6ce48d2af339d2fd61f69438d5566faa21d93a1ee467371cf0658f64736f6c634300081c0033",
  "linkReferences": {},
  "deployedLinkReferences": {}
}