{
  "_format": "hh-sol-artifact-1",
  "contractName": "ServiceStakingMechUsage",
  "sourceName": "contracts/mech_usage/ServiceStakingMechUsage.sol",
  "abi": [
    {
      "inputs": [
        {
          "components": [
            {
              "internalType": "uint256",
              "name": "maxNumServices",
              "type": "uint256"
            },
            {
              "internalType": "uint256",
              "name": "rewardsPerSecond",
              "type": "uint256"
            },
            {
              "internalType": "uint256",
              "name": "minStakingDeposit",
              "type": "uint256"
            },
            {
              "internalType": "uint256",
              "name": "livenessPeriod",
              "type": "uint256"
            },
            {
              "internalType": "uint256",
              "name": "livenessRatio",
              "type": "uint256"
            },
            {
              "internalType": "uint256",
              "name": "numAgentInstances",
              "type": "uint256"
            },
            {
              "internalType": "uint256[]",
              "name": "agentIds",
              "type": "uint256[]"
            },
            {
              "internalType": "uint256",
              "name": "threshold",
              "type": "uint256"
            },
            {
              "internalType": "bytes32",
              "name": "configHash",
              "type": "bytes32"
            }
          ],
          "internalType": "struct ServiceStakingBase.StakingParams",
          "name": "_stakingParams",
          "type": "tuple"
        },
        {
          "internalType": "address",
          "name": "_serviceRegistry",
          "type": "address"
        },
        {
          "internalType": "bytes32",
          "name": "_proxyHash",
          "type": "bytes32"
        },
        {
          "internalType": "address",
          "name": "_agentMech",
          "type": "address"
        }
      ],
      "stateMutability": "nonpayable",
      "type": "constructor"
    },
    {
      "inputs": [
        {
          "internalType": "address",
          "name": "operator",
          "type": "address"
        }
      ],
      "name": "AgentInstanceRegistered",
      "type": "error"
    },
    {
      "inputs": [
        {
          "internalType": "uint256",
          "name": "serviceId",
          "type": "uint256"
        }
      ],
      "name": "AgentInstancesSlotsFilled",
      "type": "error"
    },
    {
      "inputs": [
        {
          "internalType": "uint256",
          "name": "agentId",
          "type": "uint256"
        }
      ],
      "name": "AgentNotFound",
      "type": "error"
    },
    {
      "inputs": [
        {
          "internalType": "uint256",
          "name": "agentId",
          "type": "uint256"
        },
        {
          "internalType": "uint256",
          "name": "serviceId",
          "type": "uint256"
        }
      ],
      "name": "AgentNotInService",
      "type": "error"
    },
    {
      "inputs": [
        {
          "internalType": "uint256",
          "name": "componentId",
          "type": "uint256"
        }
      ],
      "name": "ComponentNotFound",
      "type": "error"
    },
    {
      "inputs": [],
      "name": "HashExists",
      "type": "error"
    },
    {
      "inputs": [
        {
          "internalType": "uint256",
          "name": "sent",
          "type": "uint256"
        },
        {
          "internalType": "uint256",
          "name": "expected",
          "type": "uint256"
        },
        {
          "internalType": "uint256",
          "name": "serviceId",
          "type": "uint256"
        }
      ],
      "name": "IncorrectAgentBondingValue",
      "type": "error"
    },
    {
      "inputs": [
        {
          "internalType": "uint256",
          "name": "sent",
          "type": "uint256"
        },
        {
          "internalType": "uint256",
          "name": "expected",
          "type": "uint256"
        },
        {
          "internalType": "uint256",
          "name": "serviceId",
          "type": "uint256"
        }
      ],
      "name": "IncorrectRegistrationDepositValue",
      "type": "error"
    },
    {
      "inputs": [
        {
          "internalType": "uint256",
          "name": "provided",
          "type": "uint256"
        },
        {
          "internalType": "uint256",
          "name": "expected",
          "type": "uint256"
        }
      ],
      "name": "LowerThan",
      "type": "error"
    },
    {
      "inputs": [
        {
          "internalType": "address",
          "name": "sender",
          "type": "address"
        },
        {
          "internalType": "address",
          "name": "manager",
          "type": "address"
        }
      ],
      "name": "ManagerOnly",
      "type": "error"
    },
    {
      "inputs": [
        {
          "internalType": "uint256",
          "name": "maxNumServices",
          "type": "uint256"
        }
      ],
      "name": "MaxNumServicesReached",
      "type": "error"
    },
    {
      "inputs": [],
      "name": "NoRewardsAvailable",
      "type": "error"
    },
    {
      "inputs": [
        {
          "internalType": "address",
          "name": "provided",
          "type": "address"
        },
        {
          "internalType": "address",
          "name": "expected",
          "type": "address"
        },
        {
          "internalType": "uint256",
          "name": "serviceId",
          "type": "uint256"
        }
      ],
      "name": "OnlyOwnServiceMultisig",
      "type": "error"
    },
    {
      "inputs": [
        {
          "internalType": "address",
          "name": "operator",
          "type": "address"
        },
        {
          "internalType": "uint256",
          "name": "serviceId",
          "type": "uint256"
        }
      ],
      "name": "OperatorHasNoInstances",
      "type": "error"
    },
    {
      "inputs": [
        {
          "internalType": "uint256",
          "name": "provided",
          "type": "uint256"
        },
        {
          "internalType": "uint256",
          "name": "max",
          "type": "uint256"
        }
      ],
      "name": "Overflow",
      "type": "error"
    },
    {
      "inputs": [
        {
          "internalType": "address",
          "name": "sender",
          "type": "address"
        },
        {
          "internalType": "address",
          "name": "owner",
          "type": "address"
        }
      ],
      "name": "OwnerOnly",
      "type": "error"
    },
    {
      "inputs": [],
      "name": "Paused",
      "type": "error"
    },
    {
      "inputs": [],
      "name": "ReentrancyGuard",
      "type": "error"
    },
    {
      "inputs": [
        {
          "internalType": "uint256",
          "name": "serviceId",
          "type": "uint256"
        }
      ],
      "name": "ServiceMustBeInactive",
      "type": "error"
    },
    {
      "inputs": [
        {
          "internalType": "uint256",
          "name": "serviceId",
          "type": "uint256"
        }
      ],
      "name": "ServiceNotStaked",
      "type": "error"
    },
    {
      "inputs": [
        {
          "internalType": "address",
          "name": "token",
          "type": "address"
        },
        {
          "internalType": "address",
          "name": "from",
          "type": "address"
        },
        {
          "internalType": "address",
          "name": "to",
          "type": "address"
        },
        {
          "internalType": "uint256",
          "name": "value",
          "type": "uint256"
        }
      ],
      "name": "TransferFailed",
      "type": "error"
    },
    {
      "inputs": [
        {
          "internalType": "address",
          "name": "multisig",
          "type": "address"
        }
      ],
      "name": "UnauthorizedMultisig",
      "type": "error"
    },
    {
      "inputs": [
        {
          "internalType": "uint256",
          "name": "agentId",
          "type": "uint256"
        }
      ],
      "name": "WrongAgentId",
      "type": "error"
    },
    {
      "inputs": [
        {
          "internalType": "uint256",
          "name": "numValues1",
          "type": "uint256"
        },
        {
          "internalType": "uint256",
          "name": "numValues2",
          "type": "uint256"
        }
      ],
      "name": "WrongArrayLength",
      "type": "error"
    },
    {
      "inputs": [
        {
          "internalType": "uint256",
          "name": "serviceId",
          "type": "uint256"
        }
      ],
      "name": "WrongOperator",
      "type": "error"
    },
    {
      "inputs": [
        {
          "internalType": "uint256",
          "name": "serviceId",
          "type": "uint256"
        }
      ],
      "name": "WrongServiceConfiguration",
      "type": "error"
    },
    {
      "inputs": [
        {
          "internalType": "uint256",
          "name": "state",
          "type": "uint256"
        },
        {
          "internalType": "uint256",
          "name": "serviceId",
          "type": "uint256"
        }
      ],
      "name": "WrongServiceState",
      "type": "error"
    },
    {
      "inputs": [
        {
          "internalType": "uint256",
          "name": "currentThreshold",
          "type": "uint256"
        },
        {
          "internalType": "uint256",
          "name": "minThreshold",
          "type": "uint256"
        },
        {
          "internalType": "uint256",
          "name": "maxThreshold",
          "type": "uint256"
        }
      ],
      "name": "WrongThreshold",
      "type": "error"
    },
    {
      "inputs": [],
      "name": "ZeroAddress",
      "type": "error"
    },
    {
      "inputs": [],
      "name": "ZeroMechAgentAddress",
      "type": "error"
    },
    {
      "inputs": [],
      "name": "ZeroValue",
      "type": "error"
    },
    {
      "anonymous": false,
      "inputs": [
        {
          "indexed": false,
          "internalType": "uint256",
          "name": "availableRewards",
          "type": "uint256"
        },
        {
          "indexed": false,
          "internalType": "uint256",
          "name": "numServices",
          "type": "uint256"
        }
      ],
      "name": "Checkpoint",
      "type": "event"
    },
    {
      "anonymous": false,
      "inputs": [
        {
          "indexed": true,
          "internalType": "address",
          "name": "sender",
          "type": "address"
        },
        {
          "indexed": false,
          "internalType": "uint256",
          "name": "amount",
          "type": "uint256"
        },
        {
          "indexed": false,
          "internalType": "uint256",
          "name": "balance",
          "type": "uint256"
        },
        {
          "indexed": false,
          "internalType": "uint256",
          "name": "availableRewards",
          "type": "uint256"
        }
      ],
      "name": "Deposit",
      "type": "event"
    },
    {
      "anonymous": false,
      "inputs": [
        {
          "indexed": true,
          "internalType": "uint256",
          "name": "serviceId",
          "type": "uint256"
        },
        {
          "indexed": true,
          "internalType": "address",
          "name": "owner",
          "type": "address"
        },
        {
          "indexed": true,
          "internalType": "address",
          "name": "multisig",
          "type": "address"
        },
        {
          "indexed": false,
          "internalType": "uint256[]",
          "name": "nonces",
          "type": "uint256[]"
        }
      ],
      "name": "ServiceStaked",
      "type": "event"
    },
    {
      "anonymous": false,
      "inputs": [
        {
          "indexed": true,
          "internalType": "uint256",
          "name": "serviceId",
          "type": "uint256"
        },
        {
          "indexed": true,
          "internalType": "address",
          "name": "owner",
          "type": "address"
        },
        {
          "indexed": true,
          "internalType": "address",
          "name": "multisig",
          "type": "address"
        },
        {
          "indexed": false,
          "internalType": "uint256[]",
          "name": "nonces",
          "type": "uint256[]"
        },
        {
          "indexed": false,
          "internalType": "uint256",
          "name": "reward",
          "type": "uint256"
        },
        {
          "indexed": false,
          "internalType": "uint256",
          "name": "tsStart",
          "type": "uint256"
        }
      ],
      "name": "ServiceUnstaked",
      "type": "event"
    },
    {
      "anonymous": false,
      "inputs": [
        {
          "indexed": true,
          "internalType": "address",
          "name": "to",
          "type": "address"
        },
        {
          "indexed": false,
          "internalType": "uint256",
          "name": "amount",
          "type": "uint256"
        }
      ],
      "name": "Withdraw",
      "type": "event"
    },
    {
      "inputs": [],
      "name": "VERSION",
      "outputs": [
        {
          "internalType": "string",
          "name": "",
          "type": "string"
        }
      ],
      "stateMutability": "view",
      "type": "function"
    },
    {
      "inputs": [
        {
          "internalType": "uint256",
          "name": "",
          "type": "uint256"
        }
      ],
      "name": "agentIds",
      "outputs": [
        {
          "internalType": "uint256",
          "name": "",
          "type": "uint256"
        }
      ],
      "stateMutability": "view",
      "type": "function"
    },
    {
      "inputs": [],
      "name": "agentMech",
      "outputs": [
        {
          "internalType": "address",
          "name": "",
          "type": "address"
        }
      ],
      "stateMutability": "view",
      "type": "function"
    },
    {
      "inputs": [],
      "name": "availableRewards",
      "outputs": [
        {
          "internalType": "uint256",
          "name": "",
          "type": "uint256"
        }
      ],
      "stateMutability": "view",
      "type": "function"
    },
    {
      "inputs": [],
      "name": "balance",
      "outputs": [
        {
          "internalType": "uint256",
          "name": "",
          "type": "uint256"
        }
      ],
      "stateMutability": "view",
      "type": "function"
    },
    {
      "inputs": [
        {
          "internalType": "uint256",
          "name": "serviceId",
          "type": "uint256"
        }
      ],
      "name": "calculateServiceStakingReward",
      "outputs": [
        {
          "internalType": "uint256",
          "name": "reward",
          "type": "uint256"
        }
      ],
      "stateMutability": "view",
      "type": "function"
    },
    {
      "inputs": [],
      "name": "checkpoint",
      "outputs": [
        {
          "internalType": "uint256[]",
          "name": "",
          "type": "uint256[]"
        },
        {
          "internalType": "uint256[][]",
          "name": "",
          "type": "uint256[][]"
        },
        {
          "internalType": "uint256",
          "name": "",
          "type": "uint256"
        },
        {
          "internalType": "uint256[]",
          "name": "",
          "type": "uint256[]"
        },
        {
          "internalType": "uint256[]",
          "name": "",
          "type": "uint256[]"
        },
        {
          "internalType": "bool",
          "name": "success",
          "type": "bool"
        }
      ],
      "stateMutability": "nonpayable",
      "type": "function"
    },
    {
      "inputs": [],
      "name": "configHash",
      "outputs": [
        {
          "internalType": "bytes32",
          "name": "",
          "type": "bytes32"
        }
      ],
      "stateMutability": "view",
      "type": "function"
    },
    {
      "inputs": [],
      "name": "getNextRewardCheckpointTimestamp",
      "outputs": [
        {
          "internalType": "uint256",
          "name": "tsNext",
          "type": "uint256"
        }
      ],
      "stateMutability": "view",
      "type": "function"
    },
    {
      "inputs": [],
      "name": "getServiceIds",
      "outputs": [
        {
          "internalType": "uint256[]",
          "name": "serviceIds",
          "type": "uint256[]"
        }
      ],
      "stateMutability": "view",
      "type": "function"
    },
    {
      "inputs": [
        {
          "internalType": "uint256",
          "name": "serviceId",
          "type": "uint256"
        }
      ],
      "name": "isServiceStaked",
      "outputs": [
        {
          "internalType": "bool",
          "name": "isStaked",
          "type": "bool"
        }
      ],
      "stateMutability": "view",
      "type": "function"
    },
    {
      "inputs": [],
      "name": "livenessPeriod",
      "outputs": [
        {
          "internalType": "uint256",
          "name": "",
          "type": "uint256"
        }
      ],
      "stateMutability": "view",
      "type": "function"
    },
    {
      "inputs": [],
      "name": "livenessRatio",
      "outputs": [
        {
          "internalType": "uint256",
          "name": "",
          "type": "uint256"
        }
      ],
      "stateMutability": "view",
      "type": "function"
    },
    {
      "inputs": [
        {
          "internalType": "uint256",
          "name": "",
          "type": "uint256"
        }
      ],
      "name": "mapServiceInfo",
      "outputs": [
        {
          "internalType": "address",
          "name": "multisig",
          "type": "address"
        },
        {
          "internalType": "address",
          "name": "owner",
          "type": "address"
        },
        {
          "internalType": "uint256",
          "name": "tsStart",
          "type": "uint256"
        },
        {
          "internalType": "uint256",
          "name": "reward",
          "type": "uint256"
        }
      ],
      "stateMutability": "view",
      "type": "function"
    },
    {
      "inputs": [],
      "name": "maxNumServices",
      "outputs": [
        {
          "internalType": "uint256",
          "name": "",
          "type": "uint256"
        }
      ],
      "stateMutability": "view",
      "type": "function"
    },
    {
      "inputs": [],
      "name": "minStakingDeposit",
      "outputs": [
        {
          "internalType": "uint256",
          "name": "",
          "type": "uint256"
        }
      ],
      "stateMutability": "view",
      "type": "function"
    },
    {
      "inputs": [],
      "name": "numAgentInstances",
      "outputs": [
        {
          "internalType": "uint256",
          "name": "",
          "type": "uint256"
        }
      ],
      "stateMutability": "view",
      "type": "function"
    },
    {
      "inputs": [
        {
          "internalType": "address",
          "name": "",
          "type": "address"
        },
        {
          "internalType": "address",
          "name": "",
          "type": "address"
        },
        {
          "internalType": "uint256",
          "name": "",
          "type": "uint256"
        },
        {
          "internalType": "bytes",
          "name": "",
          "type": "bytes"
        }
      ],
      "name": "onERC721Received",
      "outputs": [
        {
          "internalType": "bytes4",
          "name": "",
          "type": "bytes4"
        }
      ],
      "stateMutability": "nonpayable",
      "type": "function"
    },
    {
      "inputs": [],
      "name": "proxyHash",
      "outputs": [
        {
          "internalType": "bytes32",
          "name": "",
          "type": "bytes32"
        }
      ],
      "stateMutability": "view",
      "type": "function"
    },
    {
      "inputs": [],
      "name": "rewardsPerSecond",
      "outputs": [
        {
          "internalType": "uint256",
          "name": "",
          "type": "uint256"
        }
      ],
      "stateMutability": "view",
      "type": "function"
    },
    {
      "inputs": [],
      "name": "serviceRegistry",
      "outputs": [
        {
          "internalType": "address",
          "name": "",
          "type": "address"
        }
      ],
      "stateMutability": "view",
      "type": "function"
    },
    {
      "inputs": [
        {
          "internalType": "uint256",
          "name": "",
          "type": "uint256"
        }
      ],
      "name": "setServiceIds",
      "outputs": [
        {
          "internalType": "uint256",
          "name": "",
          "type": "uint256"
        }
      ],
      "stateMutability": "view",
      "type": "function"
    },
    {
      "inputs": [
        {
          "internalType": "uint256",
          "name": "serviceId",
          "type": "uint256"
        }
      ],
      "name": "stake",
      "outputs": [],
      "stateMutability": "nonpayable",
      "type": "function"
    },
    {
      "inputs": [],
      "name": "threshold",
      "outputs": [
        {
          "internalType": "uint256",
          "name": "",
          "type": "uint256"
        }
      ],
      "stateMutability": "view",
      "type": "function"
    },
    {
      "inputs": [],
      "name": "tsCheckpoint",
      "outputs": [
        {
          "internalType": "uint256",
          "name": "",
          "type": "uint256"
        }
      ],
      "stateMutability": "view",
      "type": "function"
    },
    {
      "inputs": [
        {
          "internalType": "uint256",
          "name": "serviceId",
          "type": "uint256"
        }
      ],
      "name": "unstake",
      "outputs": [],
      "stateMutability": "nonpayable",
      "type": "function"
    },
    {
      "stateMutability": "payable",
      "type": "receive"
    }
  ],
  "bytecode": "0x6101e06040523480156200001257600080fd5b50604051620028b8380380620028b88339810160408190526200003591620003a7565b808484848282828260000151600014806200005257506020830151155b806200006057506060830151155b806200006e57506080830151155b806200007c575060a0830151155b156200009b57604051637c946ed760e01b815260040160405180910390fd5b600283604001511015620000d757604080840151905163491a2bb160e01b81526004810191909152600260248201526044015b60405180910390fd5b6001600160a01b038216620000ff5760405163d92e233d60e01b815260040160405180910390fd5b82516080908152602084015160a0908152604085015160c052606085015160e09081529185015161010090815290850151610120526001600160a01b038416610180529084015161014052830151610160526000805b8460c00151518110156200023757818560c0015182815181106200017d576200017d6200049e565b602002602001015111620001c9578460c001518181518110620001a457620001a46200049e565b6020026020010151604051632ab10b0b60e21b8152600401620000ce91815260200190565b8460c001518181518110620001e257620001e26200049e565b6020908102919091010151600380546001810182556000919091527fc2575a0e9e593c00f959f8c92f12db2869c3395a3b0502d05e2516446f71f85b0181905591506200022f81620004b4565b905062000155565b50816200025757604051637c946ed760e01b815260040160405180910390fd5b506101a0525050426002555050506001600160a01b0381166200028c5760405162ca95f960e81b815260040160405180910390fd5b6001600160a01b03166101c05250620004dc92505050565b634e487b7160e01b600052604160045260246000fd5b60405161012081016001600160401b0381118282101715620002e057620002e0620002a4565b60405290565b600082601f830112620002f857600080fd5b815160206001600160401b0380831115620003175762000317620002a4565b8260051b604051601f19603f830116810181811084821117156200033f576200033f620002a4565b6040529384528581018301938381019250878511156200035e57600080fd5b83870191505b848210156200037f5781518352918301919083019062000364565b979650505050505050565b80516001600160a01b0381168114620003a257600080fd5b919050565b60008060008060808587031215620003be57600080fd5b84516001600160401b0380821115620003d657600080fd5b908601906101208289031215620003ec57600080fd5b620003f6620002ba565b825181526020830151602082015260408301516040820152606083015160608201526080830151608082015260a083015160a082015260c0830151828111156200043f57600080fd5b6200044d8a828601620002e6565b60c08301525060e0838101519082015261010092830151928101929092525093506200047c602086016200038a565b92506040850151915062000493606086016200038a565b905092959194509250565b634e487b7160e01b600052603260045260246000fd5b600060018201620004d557634e487b7160e01b600052601160045260246000fd5b5060010190565b60805160a05160c05160e05161010051610120516101405161016051610180516101a0516101c0516122d7620005e1600039600081816104010152611ad701526000818161046d0152610ead0152600081816105900152818161093e01528181610c6901526110b201526000818161060601528181610d310152610d6001526000818161031101528181610da70152610ddb0152600081816103990152610cef0152600081816103cd0152611c9e01526000818161034501528181611528015261161c01526000818161063a0152818161198601526119c201526000818161066e01526118cd01526000818161029701528181610bf00152610c2401526122d76000f3fe6080604052600436106101a55760003560e01c8063a694fc3a116100e1578063e1f1176d1161008a578063eb338c9611610064578063eb338c9614610690578063f189e85a146106b0578063f4dce714146106d2578063ffa1ad74146106e757600080fd5b8063e1f1176d146105f4578063e77cdcc914610628578063eacdaabc1461065c57600080fd5b8063c2c4c5c1116100bb578063c2c4c5c114610557578063cbcf252a1461057e578063cd25fe38146105b257600080fd5b8063a694fc3a146104a5578063a74466ad146104c5578063b69ef8a81461054157600080fd5b806356e760581161014e57806375af4b6d1161012857806375af4b6d146103ef57806378e061361461043b578063809cee2f1461045b578063879d90901461048f57600080fd5b806356e76058146103675780635829c5ec14610387578063592cf3fb146103bb57600080fd5b80633e7329971161017f5780633e732997146102e957806342cde4e8146102ff57806352c824f51461033357600080fd5b8063150b7a021461022357806316a75172146102855780632e17de78146102c757600080fd5b3661021e576000346000546101ba9190611d64565b90506000346001546101cc9190611d64565b60008390556001819055604080513481526020810185905290810182905290915033907f36af321ec8d3c75236829c5317affd40ddb308863a1236d2d277a4025cccee1e9060600160405180910390a2005b600080fd5b34801561022f57600080fd5b5061024f61023e366004611d8c565b630a85bd0160e11b95945050505050565b6040517fffffffff0000000000000000000000000000000000000000000000000000000090911681526020015b60405180910390f35b34801561029157600080fd5b506102b97f000000000000000000000000000000000000000000000000000000000000000081565b60405190815260200161027c565b3480156102d357600080fd5b506102e76102e2366004611e2b565b610725565b005b3480156102f557600080fd5b506102b960025481565b34801561030b57600080fd5b506102b97f000000000000000000000000000000000000000000000000000000000000000081565b34801561033f57600080fd5b506102b97f000000000000000000000000000000000000000000000000000000000000000081565b34801561037357600080fd5b506102b9610382366004611e2b565b610a08565b34801561039357600080fd5b506102b97f000000000000000000000000000000000000000000000000000000000000000081565b3480156103c757600080fd5b506102b97f000000000000000000000000000000000000000000000000000000000000000081565b3480156103fb57600080fd5b506104237f000000000000000000000000000000000000000000000000000000000000000081565b6040516001600160a01b03909116815260200161027c565b34801561044757600080fd5b506102b9610456366004611e2b565b610a29565b34801561046757600080fd5b506102b97f000000000000000000000000000000000000000000000000000000000000000081565b34801561049b57600080fd5b506102b960015481565b3480156104b157600080fd5b506102e76104c0366004611e2b565b610bc8565b3480156104d157600080fd5b506105166104e0366004611e2b565b600460208190526000918252604090912080546001820154600383015492909301546001600160a01b0391821693909116919084565b604080516001600160a01b03958616815294909316602085015291830152606082015260800161027c565b34801561054d57600080fd5b506102b960005481565b34801561056357600080fd5b5061056c61116f565b60405161027c96959493929190611e7f565b34801561058a57600080fd5b506104237f000000000000000000000000000000000000000000000000000000000000000081565b3480156105be57600080fd5b506105e46105cd366004611e2b565b600090815260046020526040902060030154151590565b604051901515815260200161027c565b34801561060057600080fd5b506102b97f000000000000000000000000000000000000000000000000000000000000000081565b34801561063457600080fd5b506102b97f000000000000000000000000000000000000000000000000000000000000000081565b34801561066857600080fd5b506102b97f000000000000000000000000000000000000000000000000000000000000000081565b34801561069c57600080fd5b506102b96106ab366004611e2b565b61146e565b3480156106bc57600080fd5b506106c561147e565b60405161027c9190611f57565b3480156106de57600080fd5b506102b9611524565b3480156106f357600080fd5b50610718604051806040016040528060058152602001640302e312e360dc1b81525081565b60405161027c9190611f6a565b600081815260046020526040902060018101546001600160a01b0316331461077c57600181015460405163521eb56d60e11b81523360048201526001600160a01b0390911660248201526044015b60405180910390fd5b60008061078761116f565b95505050505091508061079f5761079c61147e565b91505b60005b82518110156107dc57848382815181106107be576107be611fb8565b602002602001015103156107dc576107d581611fce565b90506107a2565b6004840154600285018054604080516020808402820181019092528281526000939092909183018282801561083057602002820191906000526020600020905b81548152602001906001019080831161081c575b5050506003890154895460008c8152600460205260408120805473ffffffffffffffffffffffffffffffffffffffff199081168255600182018054909116905595965091946001600160a01b03909116935091506108916002830182611ccd565b50600060038201819055600490910155600580546108b190600190611fe7565b815481106108c1576108c1611fb8565b9060005260206000200154600586815481106108df576108df611fb8565b60009182526020909120015560058054806108fc576108fc611ffa565b600082815260208120820160001990810191909155019055604051632142170760e11b8152306004820152336024820152604481018a90526001600160a01b037f000000000000000000000000000000000000000000000000000000000000000016906342842e0e90606401600060405180830381600087803b15801561098257600080fd5b505af1158015610996573d6000803e3d6000fd5b5050505060008411156109ad576109ad8185611559565b806001600160a01b0316336001600160a01b03168a7f246ee6115bfd84e00097b16569c2ff2f822026bb9595a82cd2c1e69d4b6ea50c8688876040516109f593929190612010565b60405180910390a4505050505050505050565b60038181548110610a1857600080fd5b600091825260209091200154905081565b6000818152600460209081526040808320815160a08101835281546001600160a01b0390811682526001830154168185015260028201805484518187028101870186528181528796939586019390929190830182828015610aa957602002820191906000526020600020905b815481526020019060010190808311610a95575b50505050508152602001600382015481526020016004820154815250509050806080015191508060600151600003610af75760405163e0606b6360e01b815260048101849052602401610773565b6000806000806000610b07611605565b50509450945094509450945060005b84811015610bbc5788838281518110610b3157610b31611fb8565b602002602001015103610bac5785841115610b87578386838381518110610b5a57610b5a611fb8565b6020026020010151610b6c9190612035565b610b76919061204c565b610b809089611d64565b9750610bbc565b818181518110610b9957610b99611fb8565b602002602001015188610b809190611d64565b610bb581611fce565b9050610b16565b50505050505050919050565b600154600003610beb5760405163afb0be3360e01b815260040160405180910390fd5b6005547f00000000000000000000000000000000000000000000000000000000000000008103610c505760405163fd20861560e01b81527f00000000000000000000000000000000000000000000000000000000000000006004820152602401610773565b60405163ef0e239b60e01b8152600481018390526000907f00000000000000000000000000000000000000000000000000000000000000006001600160a01b03169063ef0e239b90602401600060405180830381865afa158015610cb8573d6000803e3d6000fd5b505050506040513d6000823e601f3d908101601f19168201604052610ce09190810190612194565b9050806080015163ffffffff167f000000000000000000000000000000000000000000000000000000000000000014610d2f57604051637ad404bf60e11b815260048101849052602401610773565b7f000000000000000000000000000000000000000000000000000000000000000015801590610d82575080604001517f000000000000000000000000000000000000000000000000000000000000000014155b15610da357604051637ad404bf60e11b815260048101849052602401610773565b60007f0000000000000000000000000000000000000000000000000000000000000000118015610dfd5750806060015163ffffffff167f000000000000000000000000000000000000000000000000000000000000000014155b15610e1e57604051637ad404bf60e11b815260048101849052602401610773565b60048160c001516005811115610e3657610e36612272565b14610e75578060c001516005811115610e5157610e51612272565b604051633c053f9d60e21b8152600481019190915260248101849052604401610773565b600081602001516001600160a01b0316803b806020016040519081016040528181526000908060200190933c805190602001209050807f000000000000000000000000000000000000000000000000000000000000000014610efa57602082015160405162a2307960e51b81526001600160a01b039091166004820152602401610773565b6003548015610fcb5760e083015151818114610f2c57604051637ad404bf60e11b815260048101879052602401610773565b60005b81811015610fc8578460e001518181518110610f4d57610f4d611fb8565b602002602001015163ffffffff1660038281548110610f6e57610f6e611fb8565b906000526020600020015414610fb85760038181548110610f9157610f91611fb8565b9060005260206000200154604051632ab10b0b60e21b815260040161077391815260200190565b610fc181611fce565b9050610f2f565b50505b610fe78584600001516bffffffffffffffffffffffff16611984565b600085815260046020908152604082209085015181546001600160a01b03821673ffffffffffffffffffffffffffffffffffffffff199182161783556001830180549091163317905590919061103c906119f2565b80519091506110549060028401906020840190611cee565b50426003830155600580546001810182556000919091527f036b6384b5eca791c62761152d0c79bb0604c104a5fb6f4eb0703f3154bb3db001879055604051632142170760e11b8152336004820152306024820152604481018890527f00000000000000000000000000000000000000000000000000000000000000006001600160a01b0316906342842e0e90606401600060405180830381600087803b1580156110fe57600080fd5b505af1158015611112573d6000803e3d6000fd5b5050505084602001516001600160a01b0316336001600160a01b0316887f5d43ac9b1b213902df90d405b0006308578486b6c62182c5df202ed572c844e48460405161115e9190611f57565b60405180910390a450505050505050565b606080600060608060008060008060008060008061118b611605565b9650965096509650965096509650600086111561138f576000878611156112fe5760008060015b8981101561125057888b8883815181106111ce576111ce611fb8565b60200260200101516111e09190612035565b6111ea919061204c565b92506111f68383611d64565b915087818151811061120a5761120a611fb8565b602002602001015193508260046000868152602001908152602001600020600401600082825461123a9190611d64565b90915550611249905081611fce565b90506111b2565b50878a8760008151811061126657611266611fb8565b60200260200101516112789190612035565b611282919061204c565b915061128e8282611d64565b9050866000815181106112a3576112a3611fb8565b60200260200101519250808a11156112cc576112bf818b611fe7565b6112c99083611d64565b91505b600083815260046020819052604082200180548492906112ed908490611d64565b9091555060009a5061138892505050565b60005b8781101561137a5785818151811061131b5761131b611fb8565b6020026020010151915084818151811061133757611337611fb8565b60200260200101516004600084815260200190815260200160002060040160008282546113649190611d64565b90915550611373905081611fce565b9050611301565b506113858689611fe7565b97505b5060018790555b8051156114595760005b82518110156114165760008382815181106113b6576113b6611fb8565b602002602001015190508282815181106113d2576113d2611fb8565b6020026020010151600460008381526020019081526020016000206002019080519060200190611403929190611cee565b50508061140f90611fce565b9050611399565b50426002556040805188815260208101889052600199507f21d81d5d656869e8ce3ba8d65526a2f0dbbcd3d36f5f9999eb7c84360e45eced910160405180910390a15b909c909b509399509097509550929350915050565b60058181548110610a1857600080fd5b6005546060908067ffffffffffffffff81111561149d5761149d61206e565b6040519080825280602002602001820160405280156114c6578160200160208202803683370190505b50915060005b8181101561151f57600581815481106114e7576114e7611fb8565b906000526020600020015483828151811061150457611504611fb8565b602090810291909101015261151881611fce565b90506114cc565b505090565b60007f00000000000000000000000000000000000000000000000000000000000000006002546115549190611d64565b905090565b8060008082825461156a9190611fe7565b90915550506040516000906001600160a01b0384169083908381818185875af1925050503d80600081146115ba576040519150601f19603f3d011682016040523d82523d6000602084013e6115bf565b606091505b50509050806116005760405163cd3f165960e01b8152600060048201523060248201526001600160a01b038416604482015260648101839052608401610773565b505050565b6002546001549060009081906060908190819081907f00000000000000000000000000000000000000000000000000000000000000006116458242611fe7565b101580156116535750600088115b1561197a576005548067ffffffffffffffff8111156116745761167461206e565b60405190808252806020026020018201604052801561169d578160200160208202803683370190505b5093508067ffffffffffffffff8111156116b9576116b961206e565b6040519080825280602002602001820160405280156116e2578160200160208202803683370190505b5095508067ffffffffffffffff8111156116fe576116fe61206e565b604051908082528060200260200182016040528015611727578160200160208202803683370190505b5094508067ffffffffffffffff8111156117435761174361206e565b60405190808252806020026020018201604052801561177657816020015b60608152602001906001900390816117615790505b50925060005b81811015611977576005818154811061179757611797611fb8565b90600052602060002001548582815181106117b4576117b4611fb8565b6020026020010181815250506000600460008784815181106117d8576117d8611fb8565b60209081029190910181015182528101919091526040016000208054909150611809906001600160a01b03166119f2565b85838151811061181b5761181b611fb8565b60209081029190910101526003810154849081811115611839578091505b6118438242611fe7565b905060006118bd88868151811061185c5761185c611fb8565b6020026020010151856002018054806020026020016040519081016040528092919081815260200182805480156118b257602002820191906000526020600020905b81548152602001906001019080831161189e575b505050505084611a03565b905080156119625760006118f1837f0000000000000000000000000000000000000000000000000000000000000000612035565b90506118fd818e611d64565b9c50808b8f8151811061191257611912611fb8565b60200260200101818152505089868151811061193057611930611fb8565b60200260200101518c8f8151811061194a5761194a611fb8565b602090810291909101015261195e8e611fce565b9d50505b505050508061197090611fce565b905061177c565b50505b5090919293949596565b7f00000000000000000000000000000000000000000000000000000000000000008110156119ee5760405163491a2bb160e01b8152600481018290527f00000000000000000000000000000000000000000000000000000000000000006024820152604401610773565b5050565b60606119fd82611a18565b92915050565b6000611a10848484611b66565b949350505050565b6040805160028082526060808301845292602083019080368337019050509050816001600160a01b031663affed0e06040518163ffffffff1660e01b8152600401602060405180830381865afa158015611a76573d6000803e3d6000fd5b505050506040513d601f19601f82011682018060405250810190611a9a9190612288565b81600081518110611aad57611aad611fb8565b6020908102919091010152604051637af7347360e01b81526001600160a01b0383811660048301527f00000000000000000000000000000000000000000000000000000000000000001690637af7347390602401602060405180830381865afa158015611b1e573d6000803e3d6000fd5b505050506040513d601f19601f82011682018060405250810190611b429190612288565b81600181518110611b5557611b55611fb8565b602002602001018181525050919050565b60008082118015611baa575082600081518110611b8557611b85611fb8565b602002602001015184600081518110611ba057611ba0611fb8565b6020026020010151115b8015611be9575082600181518110611bc457611bc4611fb8565b602002602001015184600181518110611bdf57611bdf611fb8565b6020026020010151115b15611cc657600083600081518110611c0357611c03611fb8565b602002602001015185600081518110611c1e57611c1e611fb8565b6020026020010151611c309190611fe7565b9050600084600181518110611c4757611c47611fb8565b602002602001015186600181518110611c6257611c62611fb8565b6020026020010151611c749190611fe7565b9050818111611cc357600084611c9283670de0b6b3a7640000612035565b611c9c919061204c565b7f000000000000000000000000000000000000000000000000000000000000000011159350505b50505b9392505050565b5080546000825590600052602060002090810190611ceb9190611d39565b50565b828054828255906000526020600020908101928215611d29579160200282015b82811115611d29578251825591602001919060010190611d0e565b50611d35929150611d39565b5090565b5b80821115611d355760008155600101611d3a565b634e487b7160e01b600052601160045260246000fd5b808201808211156119fd576119fd611d4e565b6001600160a01b0381168114611ceb57600080fd5b600080600080600060808688031215611da457600080fd5b8535611daf81611d77565b94506020860135611dbf81611d77565b935060408601359250606086013567ffffffffffffffff80821115611de357600080fd5b818801915088601f830112611df757600080fd5b813581811115611e0657600080fd5b896020828501011115611e1857600080fd5b9699959850939650602001949392505050565b600060208284031215611e3d57600080fd5b5035919050565b600081518084526020808501945080840160005b83811015611e7457815187529582019590820190600101611e58565b509495945050505050565b60c081526000611e9260c0830189611e44565b6020838203818501528189518084528284019150828160051b850101838c016000805b84811015611f0857878403601f19018652825180518086529088019088860190845b81811015611ef35783518352928a0192918a0191600101611ed7565b50509688019694505091860191600101611eb5565b5050508a60408801528681036060880152611f23818b611e44565b9450505050508281036080840152611f3b8186611e44565b915050611f4c60a083018415159052565b979650505050505050565b602081526000611cc66020830184611e44565b600060208083528351808285015260005b81811015611f9757858101830151858201604001528201611f7b565b506000604082860101526040601f19601f8301168501019250505092915050565b634e487b7160e01b600052603260045260246000fd5b600060018201611fe057611fe0611d4e565b5060010190565b818103818111156119fd576119fd611d4e565b634e487b7160e01b600052603160045260246000fd5b6060815260006120236060830186611e44565b60208301949094525060400152919050565b80820281158282048414176119fd576119fd611d4e565b60008261206957634e487b7160e01b600052601260045260246000fd5b500490565b634e487b7160e01b600052604160045260246000fd5b604051610100810167ffffffffffffffff811182821017156120a8576120a861206e565b60405290565b80516bffffffffffffffffffffffff811681146120ca57600080fd5b919050565b80516120ca81611d77565b805163ffffffff811681146120ca57600080fd5b8051600681106120ca57600080fd5b600082601f83011261210e57600080fd5b8151602067ffffffffffffffff8083111561212b5761212b61206e565b8260051b604051601f19603f830116810181811084821117156121505761215061206e565b60405293845285810183019383810192508785111561216e57600080fd5b83870191505b84821015611f4c57612185826120da565b83529183019190830190612174565b6000602082840312156121a657600080fd5b815167ffffffffffffffff808211156121be57600080fd5b9083019061010082860312156121d357600080fd5b6121db612084565b6121e4836120ae565b81526121f2602084016120cf565b60208201526040830151604082015261220d606084016120da565b606082015261221e608084016120da565b608082015261222f60a084016120da565b60a082015261224060c084016120ee565b60c082015260e08301518281111561225757600080fd5b612263878286016120fd565b60e08301525095945050505050565b634e487b7160e01b600052602160045260246000fd5b60006020828403121561229a57600080fd5b505191905056fea26469706673582212202ac60e1e5d036f773b2fc79e34c0afb24927afbc73cb4069108e3bae4093752f64736f6c63430008150033",
  "linkReferences": {},
  "deployedLinkReferences": {}
}