{
  "_format": "hh-sol-artifact-1",
  "contractName": "ServiceStakingTokenMechUsage",
  "sourceName": "contracts/mech_usage/ServiceStakingTokenMechUsage.sol",
  "abi": [
    {
      "inputs": [
        {
          "components": [
            {
              "internalType": "uint256",
              "name": "maxNumServices",
              "type": "uint256"
            },
            {
              "internalType": "uint256",
              "name": "rewardsPerSecond",
              "type": "uint256"
            },
            {
              "internalType": "uint256",
              "name": "minStakingDeposit",
              "type": "uint256"
            },
            {
              "internalType": "uint256",
              "name": "livenessPeriod",
              "type": "uint256"
            },
            {
              "internalType": "uint256",
              "name": "livenessRatio",
              "type": "uint256"
            },
            {
              "internalType": "uint256",
              "name": "numAgentInstances",
              "type": "uint256"
            },
            {
              "internalType": "uint256[]",
              "name": "agentIds",
              "type": "uint256[]"
            },
            {
              "internalType": "uint256",
              "name": "threshold",
              "type": "uint256"
            },
            {
              "internalType": "bytes32",
              "name": "configHash",
              "type": "bytes32"
            }
          ],
          "internalType": "struct ServiceStakingBase.StakingParams",
          "name": "_stakingParams",
          "type": "tuple"
        },
        {
          "internalType": "address",
          "name": "_serviceRegistry",
          "type": "address"
        },
        {
          "internalType": "address",
          "name": "_serviceRegistryTokenUtility",
          "type": "address"
        },
        {
          "internalType": "address",
          "name": "_stakingToken",
          "type": "address"
        },
        {
          "internalType": "bytes32",
          "name": "_proxyHash",
          "type": "bytes32"
        },
        {
          "internalType": "address",
          "name": "_agentMech",
          "type": "address"
        }
      ],
      "stateMutability": "nonpayable",
      "type": "constructor"
    },
    {
      "inputs": [
        {
          "internalType": "address",
          "name": "operator",
          "type": "address"
        }
      ],
      "name": "AgentInstanceRegistered",
      "type": "error"
    },
    {
      "inputs": [
        {
          "internalType": "uint256",
          "name": "serviceId",
          "type": "uint256"
        }
      ],
      "name": "AgentInstancesSlotsFilled",
      "type": "error"
    },
    {
      "inputs": [
        {
          "internalType": "uint256",
          "name": "agentId",
          "type": "uint256"
        }
      ],
      "name": "AgentNotFound",
      "type": "error"
    },
    {
      "inputs": [
        {
          "internalType": "uint256",
          "name": "agentId",
          "type": "uint256"
        },
        {
          "internalType": "uint256",
          "name": "serviceId",
          "type": "uint256"
        }
      ],
      "name": "AgentNotInService",
      "type": "error"
    },
    {
      "inputs": [
        {
          "internalType": "uint256",
          "name": "componentId",
          "type": "uint256"
        }
      ],
      "name": "ComponentNotFound",
      "type": "error"
    },
    {
      "inputs": [],
      "name": "HashExists",
      "type": "error"
    },
    {
      "inputs": [
        {
          "internalType": "uint256",
          "name": "sent",
          "type": "uint256"
        },
        {
          "internalType": "uint256",
          "name": "expected",
          "type": "uint256"
        },
        {
          "internalType": "uint256",
          "name": "serviceId",
          "type": "uint256"
        }
      ],
      "name": "IncorrectAgentBondingValue",
      "type": "error"
    },
    {
      "inputs": [
        {
          "internalType": "uint256",
          "name": "sent",
          "type": "uint256"
        },
        {
          "internalType": "uint256",
          "name": "expected",
          "type": "uint256"
        },
        {
          "internalType": "uint256",
          "name": "serviceId",
          "type": "uint256"
        }
      ],
      "name": "IncorrectRegistrationDepositValue",
      "type": "error"
    },
    {
      "inputs": [
        {
          "internalType": "uint256",
          "name": "provided",
          "type": "uint256"
        },
        {
          "internalType": "uint256",
          "name": "expected",
          "type": "uint256"
        }
      ],
      "name": "LowerThan",
      "type": "error"
    },
    {
      "inputs": [
        {
          "internalType": "address",
          "name": "sender",
          "type": "address"
        },
        {
          "internalType": "address",
          "name": "manager",
          "type": "address"
        }
      ],
      "name": "ManagerOnly",
      "type": "error"
    },
    {
      "inputs": [
        {
          "internalType": "uint256",
          "name": "maxNumServices",
          "type": "uint256"
        }
      ],
      "name": "MaxNumServicesReached",
      "type": "error"
    },
    {
      "inputs": [],
      "name": "NoRewardsAvailable",
      "type": "error"
    },
    {
      "inputs": [
        {
          "internalType": "address",
          "name": "provided",
          "type": "address"
        },
        {
          "internalType": "address",
          "name": "expected",
          "type": "address"
        },
        {
          "internalType": "uint256",
          "name": "serviceId",
          "type": "uint256"
        }
      ],
      "name": "OnlyOwnServiceMultisig",
      "type": "error"
    },
    {
      "inputs": [
        {
          "internalType": "address",
          "name": "operator",
          "type": "address"
        },
        {
          "internalType": "uint256",
          "name": "serviceId",
          "type": "uint256"
        }
      ],
      "name": "OperatorHasNoInstances",
      "type": "error"
    },
    {
      "inputs": [
        {
          "internalType": "uint256",
          "name": "provided",
          "type": "uint256"
        },
        {
          "internalType": "uint256",
          "name": "max",
          "type": "uint256"
        }
      ],
      "name": "Overflow",
      "type": "error"
    },
    {
      "inputs": [
        {
          "internalType": "address",
          "name": "sender",
          "type": "address"
        },
        {
          "internalType": "address",
          "name": "owner",
          "type": "address"
        }
      ],
      "name": "OwnerOnly",
      "type": "error"
    },
    {
      "inputs": [],
      "name": "Paused",
      "type": "error"
    },
    {
      "inputs": [],
      "name": "ReentrancyGuard",
      "type": "error"
    },
    {
      "inputs": [
        {
          "internalType": "uint256",
          "name": "serviceId",
          "type": "uint256"
        }
      ],
      "name": "ServiceMustBeInactive",
      "type": "error"
    },
    {
      "inputs": [
        {
          "internalType": "uint256",
          "name": "serviceId",
          "type": "uint256"
        }
      ],
      "name": "ServiceNotStaked",
      "type": "error"
    },
    {
      "inputs": [
        {
          "internalType": "address",
          "name": "token",
          "type": "address"
        },
        {
          "internalType": "address",
          "name": "from",
          "type": "address"
        },
        {
          "internalType": "address",
          "name": "to",
          "type": "address"
        },
        {
          "internalType": "uint256",
          "name": "value",
          "type": "uint256"
        }
      ],
      "name": "TokenTransferFailed",
      "type": "error"
    },
    {
      "inputs": [
        {
          "internalType": "address",
          "name": "token",
          "type": "address"
        },
        {
          "internalType": "address",
          "name": "from",
          "type": "address"
        },
        {
          "internalType": "address",
          "name": "to",
          "type": "address"
        },
        {
          "internalType": "uint256",
          "name": "value",
          "type": "uint256"
        }
      ],
      "name": "TransferFailed",
      "type": "error"
    },
    {
      "inputs": [
        {
          "internalType": "address",
          "name": "multisig",
          "type": "address"
        }
      ],
      "name": "UnauthorizedMultisig",
      "type": "error"
    },
    {
      "inputs": [
        {
          "internalType": "uint256",
          "name": "provided",
          "type": "uint256"
        },
        {
          "internalType": "uint256",
          "name": "expected",
          "type": "uint256"
        }
      ],
      "name": "ValueLowerThan",
      "type": "error"
    },
    {
      "inputs": [
        {
          "internalType": "uint256",
          "name": "agentId",
          "type": "uint256"
        }
      ],
      "name": "WrongAgentId",
      "type": "error"
    },
    {
      "inputs": [
        {
          "internalType": "uint256",
          "name": "numValues1",
          "type": "uint256"
        },
        {
          "internalType": "uint256",
          "name": "numValues2",
          "type": "uint256"
        }
      ],
      "name": "WrongArrayLength",
      "type": "error"
    },
    {
      "inputs": [
        {
          "internalType": "uint256",
          "name": "serviceId",
          "type": "uint256"
        }
      ],
      "name": "WrongOperator",
      "type": "error"
    },
    {
      "inputs": [
        {
          "internalType": "uint256",
          "name": "serviceId",
          "type": "uint256"
        }
      ],
      "name": "WrongServiceConfiguration",
      "type": "error"
    },
    {
      "inputs": [
        {
          "internalType": "uint256",
          "name": "state",
          "type": "uint256"
        },
        {
          "internalType": "uint256",
          "name": "serviceId",
          "type": "uint256"
        }
      ],
      "name": "WrongServiceState",
      "type": "error"
    },
    {
      "inputs": [
        {
          "internalType": "address",
          "name": "expected",
          "type": "address"
        },
        {
          "internalType": "address",
          "name": "provided",
          "type": "address"
        }
      ],
      "name": "WrongStakingToken",
      "type": "error"
    },
    {
      "inputs": [
        {
          "internalType": "uint256",
          "name": "currentThreshold",
          "type": "uint256"
        },
        {
          "internalType": "uint256",
          "name": "minThreshold",
          "type": "uint256"
        },
        {
          "internalType": "uint256",
          "name": "maxThreshold",
          "type": "uint256"
        }
      ],
      "name": "WrongThreshold",
      "type": "error"
    },
    {
      "inputs": [],
      "name": "ZeroAddress",
      "type": "error"
    },
    {
      "inputs": [],
      "name": "ZeroMechAgentAddress",
      "type": "error"
    },
    {
      "inputs": [],
      "name": "ZeroValue",
      "type": "error"
    },
    {
      "anonymous": false,
      "inputs": [
        {
          "indexed": false,
          "internalType": "uint256",
          "name": "availableRewards",
          "type": "uint256"
        },
        {
          "indexed": false,
          "internalType": "uint256",
          "name": "numServices",
          "type": "uint256"
        }
      ],
      "name": "Checkpoint",
      "type": "event"
    },
    {
      "anonymous": false,
      "inputs": [
        {
          "indexed": true,
          "internalType": "address",
          "name": "sender",
          "type": "address"
        },
        {
          "indexed": false,
          "internalType": "uint256",
          "name": "amount",
          "type": "uint256"
        },
        {
          "indexed": false,
          "internalType": "uint256",
          "name": "balance",
          "type": "uint256"
        },
        {
          "indexed": false,
          "internalType": "uint256",
          "name": "availableRewards",
          "type": "uint256"
        }
      ],
      "name": "Deposit",
      "type": "event"
    },
    {
      "anonymous": false,
      "inputs": [
        {
          "indexed": true,
          "internalType": "uint256",
          "name": "serviceId",
          "type": "uint256"
        },
        {
          "indexed": true,
          "internalType": "address",
          "name": "owner",
          "type": "address"
        },
        {
          "indexed": true,
          "internalType": "address",
          "name": "multisig",
          "type": "address"
        },
        {
          "indexed": false,
          "internalType": "uint256[]",
          "name": "nonces",
          "type": "uint256[]"
        }
      ],
      "name": "ServiceStaked",
      "type": "event"
    },
    {
      "anonymous": false,
      "inputs": [
        {
          "indexed": true,
          "internalType": "uint256",
          "name": "serviceId",
          "type": "uint256"
        },
        {
          "indexed": true,
          "internalType": "address",
          "name": "owner",
          "type": "address"
        },
        {
          "indexed": true,
          "internalType": "address",
          "name": "multisig",
          "type": "address"
        },
        {
          "indexed": false,
          "internalType": "uint256[]",
          "name": "nonces",
          "type": "uint256[]"
        },
        {
          "indexed": false,
          "internalType": "uint256",
          "name": "reward",
          "type": "uint256"
        },
        {
          "indexed": false,
          "internalType": "uint256",
          "name": "tsStart",
          "type": "uint256"
        }
      ],
      "name": "ServiceUnstaked",
      "type": "event"
    },
    {
      "anonymous": false,
      "inputs": [
        {
          "indexed": true,
          "internalType": "address",
          "name": "to",
          "type": "address"
        },
        {
          "indexed": false,
          "internalType": "uint256",
          "name": "amount",
          "type": "uint256"
        }
      ],
      "name": "Withdraw",
      "type": "event"
    },
    {
      "inputs": [],
      "name": "VERSION",
      "outputs": [
        {
          "internalType": "string",
          "name": "",
          "type": "string"
        }
      ],
      "stateMutability": "view",
      "type": "function"
    },
    {
      "inputs": [
        {
          "internalType": "uint256",
          "name": "",
          "type": "uint256"
        }
      ],
      "name": "agentIds",
      "outputs": [
        {
          "internalType": "uint256",
          "name": "",
          "type": "uint256"
        }
      ],
      "stateMutability": "view",
      "type": "function"
    },
    {
      "inputs": [],
      "name": "agentMech",
      "outputs": [
        {
          "internalType": "address",
          "name": "",
          "type": "address"
        }
      ],
      "stateMutability": "view",
      "type": "function"
    },
    {
      "inputs": [],
      "name": "availableRewards",
      "outputs": [
        {
          "internalType": "uint256",
          "name": "",
          "type": "uint256"
        }
      ],
      "stateMutability": "view",
      "type": "function"
    },
    {
      "inputs": [],
      "name": "balance",
      "outputs": [
        {
          "internalType": "uint256",
          "name": "",
          "type": "uint256"
        }
      ],
      "stateMutability": "view",
      "type": "function"
    },
    {
      "inputs": [
        {
          "internalType": "uint256",
          "name": "serviceId",
          "type": "uint256"
        }
      ],
      "name": "calculateServiceStakingReward",
      "outputs": [
        {
          "internalType": "uint256",
          "name": "reward",
          "type": "uint256"
        }
      ],
      "stateMutability": "view",
      "type": "function"
    },
    {
      "inputs": [],
      "name": "checkpoint",
      "outputs": [
        {
          "internalType": "uint256[]",
          "name": "",
          "type": "uint256[]"
        },
        {
          "internalType": "uint256[][]",
          "name": "",
          "type": "uint256[][]"
        },
        {
          "internalType": "uint256",
          "name": "",
          "type": "uint256"
        },
        {
          "internalType": "uint256[]",
          "name": "",
          "type": "uint256[]"
        },
        {
          "internalType": "uint256[]",
          "name": "",
          "type": "uint256[]"
        },
        {
          "internalType": "bool",
          "name": "success",
          "type": "bool"
        }
      ],
      "stateMutability": "nonpayable",
      "type": "function"
    },
    {
      "inputs": [],
      "name": "configHash",
      "outputs": [
        {
          "internalType": "bytes32",
          "name": "",
          "type": "bytes32"
        }
      ],
      "stateMutability": "view",
      "type": "function"
    },
    {
      "inputs": [
        {
          "internalType": "uint256",
          "name": "amount",
          "type": "uint256"
        }
      ],
      "name": "deposit",
      "outputs": [],
      "stateMutability": "nonpayable",
      "type": "function"
    },
    {
      "inputs": [],
      "name": "getAgentIds",
      "outputs": [
        {
          "internalType": "uint256[]",
          "name": "",
          "type": "uint256[]"
        }
      ],
      "stateMutability": "view",
      "type": "function"
    },
    {
      "inputs": [],
      "name": "getNextRewardCheckpointTimestamp",
      "outputs": [
        {
          "internalType": "uint256",
          "name": "tsNext",
          "type": "uint256"
        }
      ],
      "stateMutability": "view",
      "type": "function"
    },
    {
      "inputs": [],
      "name": "getServiceIds",
      "outputs": [
        {
          "internalType": "uint256[]",
          "name": "",
          "type": "uint256[]"
        }
      ],
      "stateMutability": "view",
      "type": "function"
    },
    {
      "inputs": [
        {
          "internalType": "uint256",
          "name": "serviceId",
          "type": "uint256"
        }
      ],
      "name": "getServiceInfo",
      "outputs": [
        {
          "components": [
            {
              "internalType": "address",
              "name": "multisig",
              "type": "address"
            },
            {
              "internalType": "address",
              "name": "owner",
              "type": "address"
            },
            {
              "internalType": "uint256[]",
              "name": "nonces",
              "type": "uint256[]"
            },
            {
              "internalType": "uint256",
              "name": "tsStart",
              "type": "uint256"
            },
            {
              "internalType": "uint256",
              "name": "reward",
              "type": "uint256"
            }
          ],
          "internalType": "struct ServiceInfo",
          "name": "sInfo",
          "type": "tuple"
        }
      ],
      "stateMutability": "view",
      "type": "function"
    },
    {
      "inputs": [
        {
          "internalType": "uint256",
          "name": "serviceId",
          "type": "uint256"
        }
      ],
      "name": "isServiceStaked",
      "outputs": [
        {
          "internalType": "bool",
          "name": "isStaked",
          "type": "bool"
        }
      ],
      "stateMutability": "view",
      "type": "function"
    },
    {
      "inputs": [],
      "name": "livenessPeriod",
      "outputs": [
        {
          "internalType": "uint256",
          "name": "",
          "type": "uint256"
        }
      ],
      "stateMutability": "view",
      "type": "function"
    },
    {
      "inputs": [],
      "name": "livenessRatio",
      "outputs": [
        {
          "internalType": "uint256",
          "name": "",
          "type": "uint256"
        }
      ],
      "stateMutability": "view",
      "type": "function"
    },
    {
      "inputs": [
        {
          "internalType": "uint256",
          "name": "",
          "type": "uint256"
        }
      ],
      "name": "mapServiceInfo",
      "outputs": [
        {
          "internalType": "address",
          "name": "multisig",
          "type": "address"
        },
        {
          "internalType": "address",
          "name": "owner",
          "type": "address"
        },
        {
          "internalType": "uint256",
          "name": "tsStart",
          "type": "uint256"
        },
        {
          "internalType": "uint256",
          "name": "reward",
          "type": "uint256"
        }
      ],
      "stateMutability": "view",
      "type": "function"
    },
    {
      "inputs": [],
      "name": "maxNumServices",
      "outputs": [
        {
          "internalType": "uint256",
          "name": "",
          "type": "uint256"
        }
      ],
      "stateMutability": "view",
      "type": "function"
    },
    {
      "inputs": [],
      "name": "minStakingDeposit",
      "outputs": [
        {
          "internalType": "uint256",
          "name": "",
          "type": "uint256"
        }
      ],
      "stateMutability": "view",
      "type": "function"
    },
    {
      "inputs": [],
      "name": "numAgentInstances",
      "outputs": [
        {
          "internalType": "uint256",
          "name": "",
          "type": "uint256"
        }
      ],
      "stateMutability": "view",
      "type": "function"
    },
    {
      "inputs": [
        {
          "internalType": "address",
          "name": "",
          "type": "address"
        },
        {
          "internalType": "address",
          "name": "",
          "type": "address"
        },
        {
          "internalType": "uint256",
          "name": "",
          "type": "uint256"
        },
        {
          "internalType": "bytes",
          "name": "",
          "type": "bytes"
        }
      ],
      "name": "onERC721Received",
      "outputs": [
        {
          "internalType": "bytes4",
          "name": "",
          "type": "bytes4"
        }
      ],
      "stateMutability": "nonpayable",
      "type": "function"
    },
    {
      "inputs": [],
      "name": "proxyHash",
      "outputs": [
        {
          "internalType": "bytes32",
          "name": "",
          "type": "bytes32"
        }
      ],
      "stateMutability": "view",
      "type": "function"
    },
    {
      "inputs": [],
      "name": "rewardsPerSecond",
      "outputs": [
        {
          "internalType": "uint256",
          "name": "",
          "type": "uint256"
        }
      ],
      "stateMutability": "view",
      "type": "function"
    },
    {
      "inputs": [],
      "name": "serviceRegistry",
      "outputs": [
        {
          "internalType": "address",
          "name": "",
          "type": "address"
        }
      ],
      "stateMutability": "view",
      "type": "function"
    },
    {
      "inputs": [],
      "name": "serviceRegistryTokenUtility",
      "outputs": [
        {
          "internalType": "address",
          "name": "",
          "type": "address"
        }
      ],
      "stateMutability": "view",
      "type": "function"
    },
    {
      "inputs": [
        {
          "internalType": "uint256",
          "name": "",
          "type": "uint256"
        }
      ],
      "name": "setServiceIds",
      "outputs": [
        {
          "internalType": "uint256",
          "name": "",
          "type": "uint256"
        }
      ],
      "stateMutability": "view",
      "type": "function"
    },
    {
      "inputs": [
        {
          "internalType": "uint256",
          "name": "serviceId",
          "type": "uint256"
        }
      ],
      "name": "stake",
      "outputs": [],
      "stateMutability": "nonpayable",
      "type": "function"
    },
    {
      "inputs": [],
      "name": "stakingToken",
      "outputs": [
        {
          "internalType": "address",
          "name": "",
          "type": "address"
        }
      ],
      "stateMutability": "view",
      "type": "function"
    },
    {
      "inputs": [],
      "name": "threshold",
      "outputs": [
        {
          "internalType": "uint256",
          "name": "",
          "type": "uint256"
        }
      ],
      "stateMutability": "view",
      "type": "function"
    },
    {
      "inputs": [],
      "name": "tsCheckpoint",
      "outputs": [
        {
          "internalType": "uint256",
          "name": "",
          "type": "uint256"
        }
      ],
      "stateMutability": "view",
      "type": "function"
    },
    {
      "inputs": [
        {
          "internalType": "uint256",
          "name": "serviceId",
          "type": "uint256"
        }
      ],
      "name": "unstake",
      "outputs": [],
      "stateMutability": "nonpayable",
      "type": "function"
    }
  ],
  "bytecode": "0x6102206040523480156200001257600080fd5b5060405162002c7638038062002c768339810160408190526200003591620003f8565b8086868686868484828260000151600014806200005457506020830151155b806200006257506060830151155b806200007057506080830151155b806200007e575060a0830151155b156200009d57604051637c946ed760e01b815260040160405180910390fd5b600283604001511015620000d957604080840151905163491a2bb160e01b81526004810191909152600260248201526044015b60405180910390fd5b6001600160a01b038216620001015760405163d92e233d60e01b815260040160405180910390fd5b82516080908152602084015160a0908152604085015160c052606085015160e09081529185015161010090815290850151610120526001600160a01b038416610180529084015161014052830151610160526000805b8460c00151518110156200023957818560c0015182815181106200017f576200017f62000513565b602002602001015111620001cb578460c001518181518110620001a657620001a662000513565b6020026020010151604051632ab10b0b60e21b8152600401620000d091815260200190565b8460c001518181518110620001e457620001e462000513565b6020908102919091010151600380546001810182556000919091527fc2575a0e9e593c00f959f8c92f12db2869c3395a3b0502d05e2516446f71f85b018190559150620002318162000529565b905062000157565b50816200025957604051637c946ed760e01b815260040160405180910390fd5b506101a0525050426002556001600160a01b03821615806200028257506001600160a01b038316155b15620002a15760405163d92e233d60e01b815260040160405180910390fd5b506001600160a01b039081166101e0529081166101c05283169150620002db90505760405162ca95f960e81b815260040160405180910390fd5b6001600160a01b0316610200525062000551945050505050565b634e487b7160e01b600052604160045260246000fd5b60405161012081016001600160401b0381118282101715620003315762000331620002f5565b60405290565b600082601f8301126200034957600080fd5b815160206001600160401b0380831115620003685762000368620002f5565b8260051b604051601f19603f83011681018181108482111715620003905762000390620002f5565b604052938452858101830193838101925087851115620003af57600080fd5b83870191505b84821015620003d057815183529183019190830190620003b5565b979650505050505050565b80516001600160a01b0381168114620003f357600080fd5b919050565b60008060008060008060c087890312156200041257600080fd5b86516001600160401b03808211156200042a57600080fd5b90880190610120828b0312156200044057600080fd5b6200044a6200030b565b825181526020830151602082015260408301516040820152606083015160608201526080830151608082015260a083015160a082015260c0830151828111156200049357600080fd5b620004a18c82860162000337565b60c08301525060e083810151908201526101009283015192810192909252509550620004d060208801620003db565b9450620004e060408801620003db565b9350620004f060608801620003db565b9250608087015191506200050760a08801620003db565b90509295509295509295565b634e487b7160e01b600052603260045260246000fd5b6000600182016200054a57634e487b7160e01b600052601160045260246000fd5b5060010190565b60805160a05160c05160e05161010051610120516101405161016051610180516101a0516101c0516101e051610200516125e76200068f600039600081816103ac0152611d7c015260008181610385015281816111de0152818161160301528181611a8c0152611ad00152600081816102790152611a120152600081816103e60152610e910152600081816105030152818161083c01528181610c4d015261109601526000818161055f01528181610d150152610d440152600081816102d601528181610d8b0152610dbf0152600081816103370152610cd301526000818161035e0152611f430152600081816102fd015281816115b6015261168701526000818161058601528181611b070152611b5e0152600081816105ad015261193801526000818161024401528181610bd40152610c0801526125e76000f3fe608060405234801561001057600080fd5b50600436106101e55760003560e01c8063879d90901161010f578063cd25fe38116100a2578063eb338c9611610071578063eb338c96146105cf578063f189e85a146105e2578063f4dce714146105ea578063ffa1ad74146105f257600080fd5b8063cd25fe3814610525578063e1f1176d1461055a578063e77cdcc914610581578063eacdaabc146105a857600080fd5b8063b69ef8a8116100de578063b69ef8a8146104c8578063b6b55f25146104d1578063c2c4c5c1146104e4578063cbcf252a146104fe57600080fd5b8063879d909014610428578063a694fc3a14610431578063a74466ad14610444578063b1508760146104b357600080fd5b806356e760581161018757806375af4b6d1161015657806375af4b6d146103a757806378e06136146103ce578063809cee2f146103e157806382a8ea581461040857600080fd5b806356e760581461031f5780635829c5ec14610332578063592cf3fb1461035957806372f702f31461038057600080fd5b80632e17de78116101c35780632e17de78146102b35780633e732997146102c857806342cde4e8146102d157806352c824f5146102f857600080fd5b8063150b7a02146101ea57806316a751721461023f5780632871405114610274575b600080fd5b6102096101f8366004612008565b630a85bd0160e11b95945050505050565b6040517fffffffff0000000000000000000000000000000000000000000000000000000090911681526020015b60405180910390f35b6102667f000000000000000000000000000000000000000000000000000000000000000081565b604051908152602001610236565b61029b7f000000000000000000000000000000000000000000000000000000000000000081565b6040516001600160a01b039091168152602001610236565b6102c66102c13660046120a7565b610623565b005b61026660025481565b6102667f000000000000000000000000000000000000000000000000000000000000000081565b6102667f000000000000000000000000000000000000000000000000000000000000000081565b61026661032d3660046120a7565b610906565b6102667f000000000000000000000000000000000000000000000000000000000000000081565b6102667f000000000000000000000000000000000000000000000000000000000000000081565b61029b7f000000000000000000000000000000000000000000000000000000000000000081565b61029b7f000000000000000000000000000000000000000000000000000000000000000081565b6102666103dc3660046120a7565b610927565b6102667f000000000000000000000000000000000000000000000000000000000000000081565b61041b6104163660046120a7565b610ac6565b60405161023691906120fb565b61026660015481565b6102c661043f3660046120a7565b610bac565b6104886104523660046120a7565b600460208190526000918252604090912080546001820154600383015492909301546001600160a01b0391821693909116919084565b604080516001600160a01b039586168152949093166020850152918301526060820152608001610236565b6104bb611153565b6040516102369190612158565b61026660005481565b6102c66104df3660046120a7565b6111ab565b6104ec61124d565b6040516102369695949392919061216b565b61029b7f000000000000000000000000000000000000000000000000000000000000000081565b61054a6105333660046120a7565b600090815260046020526040902060030154151590565b6040519015158152602001610236565b6102667f000000000000000000000000000000000000000000000000000000000000000081565b6102667f000000000000000000000000000000000000000000000000000000000000000081565b6102667f000000000000000000000000000000000000000000000000000000000000000081565b6102666105dd3660046120a7565b61154c565b6104bb61155c565b6102666115b2565b610616604051806040016040528060058152602001640302e312e360dc1b81525081565b604051610236919061221c565b600081815260046020526040902060018101546001600160a01b0316331461067a57600181015460405163521eb56d60e11b81523360048201526001600160a01b0390911660248201526044015b60405180910390fd5b60008061068561124d565b95505050505091508061069d5761069a61155c565b91505b60005b82518110156106da57848382815181106106bc576106bc61226a565b602002602001015103156106da576106d381612296565b90506106a0565b6004840154600285018054604080516020808402820181019092528281526000939092909183018282801561072e57602002820191906000526020600020905b81548152602001906001019080831161071a575b5050506003890154895460008c8152600460205260408120805473ffffffffffffffffffffffffffffffffffffffff199081168255600182018054909116905595965091946001600160a01b039091169350915061078f6002830182611f72565b50600060038201819055600490910155600580546107af906001906122af565b815481106107bf576107bf61226a565b9060005260206000200154600586815481106107dd576107dd61226a565b60009182526020909120015560058054806107fa576107fa6122c2565b600082815260208120820160001990810191909155019055604051632142170760e11b8152306004820152336024820152604481018a90526001600160a01b037f000000000000000000000000000000000000000000000000000000000000000016906342842e0e90606401600060405180830381600087803b15801561088057600080fd5b505af1158015610894573d6000803e3d6000fd5b5050505060008411156108ab576108ab81856115e7565b806001600160a01b0316336001600160a01b03168a7f246ee6115bfd84e00097b16569c2ff2f822026bb9595a82cd2c1e69d4b6ea50c8688876040516108f3939291906122d8565b60405180910390a4505050505050505050565b6003818154811061091657600080fd5b600091825260209091200154905081565b6000818152600460209081526040808320815160a08101835281546001600160a01b03908116825260018301541681850152600282018054845181870281018701865281815287969395860193909291908301828280156109a757602002820191906000526020600020905b815481526020019060010190808311610993575b505050505081526020016003820154815260200160048201548152505090508060800151915080606001516000036109f55760405163e0606b6360e01b815260048101849052602401610671565b6000806000806000610a05611670565b50509450945094509450945060005b84811015610aba5788838281518110610a2f57610a2f61226a565b602002602001015103610aaa5785841115610a85578386838381518110610a5857610a5861226a565b6020026020010151610a6a91906122fd565b610a749190612314565b610a7e9089612336565b9750610aba565b818181518110610a9757610a9761226a565b602002602001015188610a7e9190612336565b610ab381612296565b9050610a14565b50505050505050919050565b610b0a6040518060a0016040528060006001600160a01b0316815260200160006001600160a01b031681526020016060815260200160008152602001600081525090565b600082815260046020908152604091829020825160a08101845281546001600160a01b0390811682526001830154168184015260028201805485518186028101860187528181529295939493860193830182828015610b8857602002820191906000526020600020905b815481526020019060010190808311610b74575b50505050508152602001600382015481526020016004820154815250509050919050565b600154600003610bcf5760405163afb0be3360e01b815260040160405180910390fd5b6005547f00000000000000000000000000000000000000000000000000000000000000008103610c345760405163fd20861560e01b81527f00000000000000000000000000000000000000000000000000000000000000006004820152602401610671565b60405163ef0e239b60e01b8152600481018390526000907f00000000000000000000000000000000000000000000000000000000000000006001600160a01b03169063ef0e239b90602401600060405180830381865afa158015610c9c573d6000803e3d6000fd5b505050506040513d6000823e601f3d908101601f19168201604052610cc4919081019061246f565b9050806080015163ffffffff167f000000000000000000000000000000000000000000000000000000000000000014610d1357604051637ad404bf60e11b815260048101849052602401610671565b7f000000000000000000000000000000000000000000000000000000000000000015801590610d66575080604001517f000000000000000000000000000000000000000000000000000000000000000014155b15610d8757604051637ad404bf60e11b815260048101849052602401610671565b60007f0000000000000000000000000000000000000000000000000000000000000000118015610de15750806060015163ffffffff167f000000000000000000000000000000000000000000000000000000000000000014155b15610e0257604051637ad404bf60e11b815260048101849052602401610671565b60048160c001516005811115610e1a57610e1a61254d565b14610e59578060c001516005811115610e3557610e3561254d565b604051633c053f9d60e21b8152600481019190915260248101849052604401610671565b600081602001516001600160a01b0316803b806020016040519081016040528181526000908060200190933c805190602001209050807f000000000000000000000000000000000000000000000000000000000000000014610ede57602082015160405162a2307960e51b81526001600160a01b039091166004820152602401610671565b6003548015610faf5760e083015151818114610f1057604051637ad404bf60e11b815260048101879052602401610671565b60005b81811015610fac578460e001518181518110610f3157610f3161226a565b602002602001015163ffffffff1660038281548110610f5257610f5261226a565b906000526020600020015414610f9c5760038181548110610f7557610f7561226a565b9060005260206000200154604051632ab10b0b60e21b815260040161067191815260200190565b610fa581612296565b9050610f13565b50505b610fcb8584600001516bffffffffffffffffffffffff166119ef565b600085815260046020908152604082209085015181546001600160a01b03821673ffffffffffffffffffffffffffffffffffffffff199182161783556001830180549091163317905590919061102090611b90565b80519091506110389060028401906020840190611f93565b50426003830155600580546001810182556000919091527f036b6384b5eca791c62761152d0c79bb0604c104a5fb6f4eb0703f3154bb3db001879055604051632142170760e11b8152336004820152306024820152604481018890527f00000000000000000000000000000000000000000000000000000000000000006001600160a01b0316906342842e0e90606401600060405180830381600087803b1580156110e257600080fd5b505af11580156110f6573d6000803e3d6000fd5b5050505084602001516001600160a01b0316336001600160a01b0316887f5d43ac9b1b213902df90d405b0006308578486b6c62182c5df202ed572c844e4846040516111429190612158565b60405180910390a450505050505050565b606060038054806020026020016040519081016040528092919081815260200182805480156111a157602002820191906000526020600020905b81548152602001906001019080831161118d575b5050505050905090565b6000816000546111bb9190612336565b90506000826001546111cd9190612336565b6000839055600181905590506112057f0000000000000000000000000000000000000000000000000000000000000000333086611ba1565b604080518481526020810184905290810182905233907f36af321ec8d3c75236829c5317affd40ddb308863a1236d2d277a4025cccee1e9060600160405180910390a2505050565b6060806000606080600080600080600080600080611269611670565b9650965096509650965096509650600086111561146d576000878611156113dc5760008060015b8981101561132e57888b8883815181106112ac576112ac61226a565b60200260200101516112be91906122fd565b6112c89190612314565b92506112d48383612336565b91508781815181106112e8576112e861226a565b60200260200101519350826004600086815260200190815260200160002060040160008282546113189190612336565b90915550611327905081612296565b9050611290565b50878a876000815181106113445761134461226a565b602002602001015161135691906122fd565b6113609190612314565b915061136c8282612336565b9050866000815181106113815761138161226a565b60200260200101519250808a11156113aa5761139d818b6122af565b6113a79083612336565b91505b600083815260046020819052604082200180548492906113cb908490612336565b9091555060009a5061146692505050565b60005b87811015611458578581815181106113f9576113f961226a565b602002602001015191508481815181106114155761141561226a565b60200260200101516004600084815260200190815260200160002060040160008282546114429190612336565b90915550611451905081612296565b90506113df565b5061146386896122af565b97505b5060018790555b8051156115375760005b82518110156114f45760008382815181106114945761149461226a565b602002602001015190508282815181106114b0576114b061226a565b60200260200101516004600083815260200190815260200160002060020190805190602001906114e1929190611f93565b5050806114ed90612296565b9050611477565b50426002556040805188815260208101889052600199507f21d81d5d656869e8ce3ba8d65526a2f0dbbcd3d36f5f9999eb7c84360e45eced910160405180910390a15b909c909b509399509097509550929350915050565b6005818154811061091657600080fd5b606060058054806020026020016040519081016040528092919081815260200182805480156111a1576020028201919060005260206000209081548152602001906001019080831161118d575050505050905090565b60007f00000000000000000000000000000000000000000000000000000000000000006002546115e29190612336565b905090565b806000808282546115f891906122af565b9091555061162990507f00000000000000000000000000000000000000000000000000000000000000008383611c2b565b816001600160a01b03167f884edad9ce6fa2440d8a54cc123490eb96d2768479d49ff9c7366125a94243648260405161166491815260200190565b60405180910390a25050565b6002546001549060009081906060908190819081907f00000000000000000000000000000000000000000000000000000000000000006116b082426122af565b101580156116be5750600088115b156119e5576005548067ffffffffffffffff8111156116df576116df612349565b604051908082528060200260200182016040528015611708578160200160208202803683370190505b5093508067ffffffffffffffff81111561172457611724612349565b60405190808252806020026020018201604052801561174d578160200160208202803683370190505b5095508067ffffffffffffffff81111561176957611769612349565b604051908082528060200260200182016040528015611792578160200160208202803683370190505b5094508067ffffffffffffffff8111156117ae576117ae612349565b6040519080825280602002602001820160405280156117e157816020015b60608152602001906001900390816117cc5790505b50925060005b818110156119e257600581815481106118025761180261226a565b906000526020600020015485828151811061181f5761181f61226a565b6020026020010181815250506000600460008784815181106118435761184361226a565b60209081029190910181015182528101919091526040016000208054909150611874906001600160a01b0316611b90565b8583815181106118865761188661226a565b602090810291909101015260038101548490818111156118a4578091505b6118ae82426122af565b905060006119288886815181106118c7576118c761226a565b60200260200101518560020180548060200260200160405190810160405280929190818152602001828054801561191d57602002820191906000526020600020905b815481526020019060010190808311611909575b505050505084611ca8565b905080156119cd57600061195c837f00000000000000000000000000000000000000000000000000000000000000006122fd565b9050611968818e612336565b9c50808b8f8151811061197d5761197d61226a565b60200260200101818152505089868151811061199b5761199b61226a565b60200260200101518c8f815181106119b5576119b561226a565b60209081029190910101526119c98e612296565b9d50505b50505050806119db90612296565b90506117e7565b50505b5090919293949596565b604051633cebfa4f60e01b81526004810183905260009081906001600160a01b037f00000000000000000000000000000000000000000000000000000000000000001690633cebfa4f906024016040805180830381865afa158015611a58573d6000803e3d6000fd5b505050506040513d601f19601f82011682018060405250810190611a7c9190612563565b91509150816001600160a01b03167f00000000000000000000000000000000000000000000000000000000000000006001600160a01b031614611b0557604051630b80380d60e31b81526001600160a01b037f00000000000000000000000000000000000000000000000000000000000000008116600483015283166024820152604401610671565b7f0000000000000000000000000000000000000000000000000000000000000000816bffffffffffffffffffffffff161015611b8a57604051632b30b24760e21b81526bffffffffffffffffffffffff821660048201527f00000000000000000000000000000000000000000000000000000000000000006024820152604401610671565b50505050565b6060611b9b82611cbd565b92915050565b60006040516323b872dd60e01b6000528460045283602452826044526020600060646000808a5af13d15601f3d1160016000511416171691506000606052806040525080611c245760405163abae3d6d60e01b81526001600160a01b03808716600483015280861660248301528416604482015260648101839052608401610671565b5050505050565b600060405163a9059cbb60e01b6000528360045282602452602060006044600080895af13d15601f3d1160016000511416171691506000606052806040525080611b8a5760405163abae3d6d60e01b81526001600160a01b0380861660048301523060248301528416604482015260648101839052608401610671565b6000611cb5848484611e0b565b949350505050565b6040805160028082526060808301845292602083019080368337019050509050816001600160a01b031663affed0e06040518163ffffffff1660e01b8152600401602060405180830381865afa158015611d1b573d6000803e3d6000fd5b505050506040513d601f19601f82011682018060405250810190611d3f9190612598565b81600081518110611d5257611d5261226a565b6020908102919091010152604051637af7347360e01b81526001600160a01b0383811660048301527f00000000000000000000000000000000000000000000000000000000000000001690637af7347390602401602060405180830381865afa158015611dc3573d6000803e3d6000fd5b505050506040513d601f19601f82011682018060405250810190611de79190612598565b81600181518110611dfa57611dfa61226a565b602002602001018181525050919050565b60008082118015611e4f575082600081518110611e2a57611e2a61226a565b602002602001015184600081518110611e4557611e4561226a565b6020026020010151115b8015611e8e575082600181518110611e6957611e6961226a565b602002602001015184600181518110611e8457611e8461226a565b6020026020010151115b15611f6b57600083600081518110611ea857611ea861226a565b602002602001015185600081518110611ec357611ec361226a565b6020026020010151611ed591906122af565b9050600084600181518110611eec57611eec61226a565b602002602001015186600181518110611f0757611f0761226a565b6020026020010151611f1991906122af565b9050818111611f6857600084611f3783670de0b6b3a76400006122fd565b611f419190612314565b7f000000000000000000000000000000000000000000000000000000000000000011159350505b50505b9392505050565b5080546000825590600052602060002090810190611f909190611fde565b50565b828054828255906000526020600020908101928215611fce579160200282015b82811115611fce578251825591602001919060010190611fb3565b50611fda929150611fde565b5090565b5b80821115611fda5760008155600101611fdf565b6001600160a01b0381168114611f9057600080fd5b60008060008060006080868803121561202057600080fd5b853561202b81611ff3565b9450602086013561203b81611ff3565b935060408601359250606086013567ffffffffffffffff8082111561205f57600080fd5b818801915088601f83011261207357600080fd5b81358181111561208257600080fd5b89602082850101111561209457600080fd5b9699959850939650602001949392505050565b6000602082840312156120b957600080fd5b5035919050565b600081518084526020808501945080840160005b838110156120f0578151875295820195908201906001016120d4565b509495945050505050565b6020815260006001600160a01b0380845116602084015280602085015116604084015250604083015160a0606084015261213860c08401826120c0565b905060608401516080840152608084015160a08401528091505092915050565b602081526000611f6b60208301846120c0565b60c08152600061217e60c08301896120c0565b6020838203818501528189518084528284019150828160051b850101838c0160005b838110156121ce57601f198784030185526121bc8383516120c0565b948601949250908501906001016121a0565b50508a604088015286810360608801526121e8818b6120c0565b945050505050828103608084015261220081866120c0565b91505061221160a083018415159052565b979650505050505050565b600060208083528351808285015260005b818110156122495785810183015185820160400152820161222d565b506000604082860101526040601f19601f8301168501019250505092915050565b634e487b7160e01b600052603260045260246000fd5b634e487b7160e01b600052601160045260246000fd5b6000600182016122a8576122a8612280565b5060010190565b81810381811115611b9b57611b9b612280565b634e487b7160e01b600052603160045260246000fd5b6060815260006122eb60608301866120c0565b60208301949094525060400152919050565b8082028115828204841417611b9b57611b9b612280565b60008261233157634e487b7160e01b600052601260045260246000fd5b500490565b80820180821115611b9b57611b9b612280565b634e487b7160e01b600052604160045260246000fd5b604051610100810167ffffffffffffffff8111828210171561238357612383612349565b60405290565b80516bffffffffffffffffffffffff811681146123a557600080fd5b919050565b80516123a581611ff3565b805163ffffffff811681146123a557600080fd5b8051600681106123a557600080fd5b600082601f8301126123e957600080fd5b8151602067ffffffffffffffff8083111561240657612406612349565b8260051b604051601f19603f8301168101818110848211171561242b5761242b612349565b60405293845285810183019383810192508785111561244957600080fd5b83870191505b8482101561221157612460826123b5565b8352918301919083019061244f565b60006020828403121561248157600080fd5b815167ffffffffffffffff8082111561249957600080fd5b9083019061010082860312156124ae57600080fd5b6124b661235f565b6124bf83612389565b81526124cd602084016123aa565b6020820152604083015160408201526124e8606084016123b5565b60608201526124f9608084016123b5565b608082015261250a60a084016123b5565b60a082015261251b60c084016123c9565b60c082015260e08301518281111561253257600080fd5b61253e878286016123d8565b60e08301525095945050505050565b634e487b7160e01b600052602160045260246000fd5b6000806040838503121561257657600080fd5b825161258181611ff3565b915061258f60208401612389565b90509250929050565b6000602082840312156125aa57600080fd5b505191905056fea26469706673582212203a642760d34faf6f4735553cf1254f450da8c520b28b804a01756e29698d486064736f6c63430008150033",
  "linkReferences": {},
  "deployedLinkReferences": {}
}