{
  "_format": "hh-sol-artifact-1",
  "contractName": "ServiceStakingTokenMechUsage",
  "sourceName": "contracts/mech_usage/ServiceStakingTokenMechUsage.sol",
  "abi": [
    {
      "inputs": [
        {
          "components": [
            {
              "internalType": "uint256",
              "name": "maxNumServices",
              "type": "uint256"
            },
            {
              "internalType": "uint256",
              "name": "rewardsPerSecond",
              "type": "uint256"
            },
            {
              "internalType": "uint256",
              "name": "minStakingDeposit",
              "type": "uint256"
            },
            {
              "internalType": "uint256",
              "name": "livenessPeriod",
              "type": "uint256"
            },
            {
              "internalType": "uint256",
              "name": "livenessRatio",
              "type": "uint256"
            },
            {
              "internalType": "uint256",
              "name": "numAgentInstances",
              "type": "uint256"
            },
            {
              "internalType": "uint256[]",
              "name": "agentIds",
              "type": "uint256[]"
            },
            {
              "internalType": "uint256",
              "name": "threshold",
              "type": "uint256"
            },
            {
              "internalType": "bytes32",
              "name": "configHash",
              "type": "bytes32"
            }
          ],
          "internalType": "struct ServiceStakingBase.StakingParams",
          "name": "_stakingParams",
          "type": "tuple"
        },
        {
          "internalType": "address",
          "name": "_serviceRegistry",
          "type": "address"
        },
        {
          "internalType": "address",
          "name": "_serviceRegistryTokenUtility",
          "type": "address"
        },
        {
          "internalType": "address",
          "name": "_stakingToken",
          "type": "address"
        },
        {
          "internalType": "bytes32",
          "name": "_proxyHash",
          "type": "bytes32"
        },
        {
          "internalType": "address",
          "name": "_agentMech",
          "type": "address"
        }
      ],
      "stateMutability": "nonpayable",
      "type": "constructor"
    },
    {
      "inputs": [
        {
          "internalType": "address",
          "name": "operator",
          "type": "address"
        }
      ],
      "name": "AgentInstanceRegistered",
      "type": "error"
    },
    {
      "inputs": [
        {
          "internalType": "uint256",
          "name": "serviceId",
          "type": "uint256"
        }
      ],
      "name": "AgentInstancesSlotsFilled",
      "type": "error"
    },
    {
      "inputs": [
        {
          "internalType": "uint256",
          "name": "agentId",
          "type": "uint256"
        }
      ],
      "name": "AgentNotFound",
      "type": "error"
    },
    {
      "inputs": [
        {
          "internalType": "uint256",
          "name": "agentId",
          "type": "uint256"
        },
        {
          "internalType": "uint256",
          "name": "serviceId",
          "type": "uint256"
        }
      ],
      "name": "AgentNotInService",
      "type": "error"
    },
    {
      "inputs": [
        {
          "internalType": "uint256",
          "name": "componentId",
          "type": "uint256"
        }
      ],
      "name": "ComponentNotFound",
      "type": "error"
    },
    {
      "inputs": [],
      "name": "HashExists",
      "type": "error"
    },
    {
      "inputs": [
        {
          "internalType": "uint256",
          "name": "sent",
          "type": "uint256"
        },
        {
          "internalType": "uint256",
          "name": "expected",
          "type": "uint256"
        },
        {
          "internalType": "uint256",
          "name": "serviceId",
          "type": "uint256"
        }
      ],
      "name": "IncorrectAgentBondingValue",
      "type": "error"
    },
    {
      "inputs": [
        {
          "internalType": "uint256",
          "name": "sent",
          "type": "uint256"
        },
        {
          "internalType": "uint256",
          "name": "expected",
          "type": "uint256"
        },
        {
          "internalType": "uint256",
          "name": "serviceId",
          "type": "uint256"
        }
      ],
      "name": "IncorrectRegistrationDepositValue",
      "type": "error"
    },
    {
      "inputs": [
        {
          "internalType": "uint256",
          "name": "provided",
          "type": "uint256"
        },
        {
          "internalType": "uint256",
          "name": "expected",
          "type": "uint256"
        }
      ],
      "name": "LowerThan",
      "type": "error"
    },
    {
      "inputs": [
        {
          "internalType": "address",
          "name": "sender",
          "type": "address"
        },
        {
          "internalType": "address",
          "name": "manager",
          "type": "address"
        }
      ],
      "name": "ManagerOnly",
      "type": "error"
    },
    {
      "inputs": [
        {
          "internalType": "uint256",
          "name": "maxNumServices",
          "type": "uint256"
        }
      ],
      "name": "MaxNumServicesReached",
      "type": "error"
    },
    {
      "inputs": [],
      "name": "NoRewardsAvailable",
      "type": "error"
    },
    {
      "inputs": [
        {
          "internalType": "address",
          "name": "provided",
          "type": "address"
        },
        {
          "internalType": "address",
          "name": "expected",
          "type": "address"
        },
        {
          "internalType": "uint256",
          "name": "serviceId",
          "type": "uint256"
        }
      ],
      "name": "OnlyOwnServiceMultisig",
      "type": "error"
    },
    {
      "inputs": [
        {
          "internalType": "address",
          "name": "operator",
          "type": "address"
        },
        {
          "internalType": "uint256",
          "name": "serviceId",
          "type": "uint256"
        }
      ],
      "name": "OperatorHasNoInstances",
      "type": "error"
    },
    {
      "inputs": [
        {
          "internalType": "uint256",
          "name": "provided",
          "type": "uint256"
        },
        {
          "internalType": "uint256",
          "name": "max",
          "type": "uint256"
        }
      ],
      "name": "Overflow",
      "type": "error"
    },
    {
      "inputs": [
        {
          "internalType": "address",
          "name": "sender",
          "type": "address"
        },
        {
          "internalType": "address",
          "name": "owner",
          "type": "address"
        }
      ],
      "name": "OwnerOnly",
      "type": "error"
    },
    {
      "inputs": [],
      "name": "Paused",
      "type": "error"
    },
    {
      "inputs": [],
      "name": "ReentrancyGuard",
      "type": "error"
    },
    {
      "inputs": [
        {
          "internalType": "uint256",
          "name": "serviceId",
          "type": "uint256"
        }
      ],
      "name": "ServiceMustBeInactive",
      "type": "error"
    },
    {
      "inputs": [
        {
          "internalType": "uint256",
          "name": "serviceId",
          "type": "uint256"
        }
      ],
      "name": "ServiceNotStaked",
      "type": "error"
    },
    {
      "inputs": [
        {
          "internalType": "address",
          "name": "token",
          "type": "address"
        },
        {
          "internalType": "address",
          "name": "from",
          "type": "address"
        },
        {
          "internalType": "address",
          "name": "to",
          "type": "address"
        },
        {
          "internalType": "uint256",
          "name": "value",
          "type": "uint256"
        }
      ],
      "name": "TokenTransferFailed",
      "type": "error"
    },
    {
      "inputs": [
        {
          "internalType": "address",
          "name": "token",
          "type": "address"
        },
        {
          "internalType": "address",
          "name": "from",
          "type": "address"
        },
        {
          "internalType": "address",
          "name": "to",
          "type": "address"
        },
        {
          "internalType": "uint256",
          "name": "value",
          "type": "uint256"
        }
      ],
      "name": "TransferFailed",
      "type": "error"
    },
    {
      "inputs": [
        {
          "internalType": "address",
          "name": "multisig",
          "type": "address"
        }
      ],
      "name": "UnauthorizedMultisig",
      "type": "error"
    },
    {
      "inputs": [
        {
          "internalType": "uint256",
          "name": "provided",
          "type": "uint256"
        },
        {
          "internalType": "uint256",
          "name": "expected",
          "type": "uint256"
        }
      ],
      "name": "ValueLowerThan",
      "type": "error"
    },
    {
      "inputs": [
        {
          "internalType": "uint256",
          "name": "agentId",
          "type": "uint256"
        }
      ],
      "name": "WrongAgentId",
      "type": "error"
    },
    {
      "inputs": [
        {
          "internalType": "uint256",
          "name": "numValues1",
          "type": "uint256"
        },
        {
          "internalType": "uint256",
          "name": "numValues2",
          "type": "uint256"
        }
      ],
      "name": "WrongArrayLength",
      "type": "error"
    },
    {
      "inputs": [
        {
          "internalType": "uint256",
          "name": "serviceId",
          "type": "uint256"
        }
      ],
      "name": "WrongOperator",
      "type": "error"
    },
    {
      "inputs": [
        {
          "internalType": "uint256",
          "name": "serviceId",
          "type": "uint256"
        }
      ],
      "name": "WrongServiceConfiguration",
      "type": "error"
    },
    {
      "inputs": [
        {
          "internalType": "uint256",
          "name": "state",
          "type": "uint256"
        },
        {
          "internalType": "uint256",
          "name": "serviceId",
          "type": "uint256"
        }
      ],
      "name": "WrongServiceState",
      "type": "error"
    },
    {
      "inputs": [
        {
          "internalType": "address",
          "name": "expected",
          "type": "address"
        },
        {
          "internalType": "address",
          "name": "provided",
          "type": "address"
        }
      ],
      "name": "WrongStakingToken",
      "type": "error"
    },
    {
      "inputs": [
        {
          "internalType": "uint256",
          "name": "currentThreshold",
          "type": "uint256"
        },
        {
          "internalType": "uint256",
          "name": "minThreshold",
          "type": "uint256"
        },
        {
          "internalType": "uint256",
          "name": "maxThreshold",
          "type": "uint256"
        }
      ],
      "name": "WrongThreshold",
      "type": "error"
    },
    {
      "inputs": [],
      "name": "ZeroAddress",
      "type": "error"
    },
    {
      "inputs": [],
      "name": "ZeroMechAgentAddress",
      "type": "error"
    },
    {
      "inputs": [],
      "name": "ZeroValue",
      "type": "error"
    },
    {
      "anonymous": false,
      "inputs": [
        {
          "indexed": false,
          "internalType": "uint256",
          "name": "availableRewards",
          "type": "uint256"
        },
        {
          "indexed": false,
          "internalType": "uint256",
          "name": "numServices",
          "type": "uint256"
        }
      ],
      "name": "Checkpoint",
      "type": "event"
    },
    {
      "anonymous": false,
      "inputs": [
        {
          "indexed": true,
          "internalType": "address",
          "name": "sender",
          "type": "address"
        },
        {
          "indexed": false,
          "internalType": "uint256",
          "name": "amount",
          "type": "uint256"
        },
        {
          "indexed": false,
          "internalType": "uint256",
          "name": "balance",
          "type": "uint256"
        },
        {
          "indexed": false,
          "internalType": "uint256",
          "name": "availableRewards",
          "type": "uint256"
        }
      ],
      "name": "Deposit",
      "type": "event"
    },
    {
      "anonymous": false,
      "inputs": [
        {
          "indexed": true,
          "internalType": "uint256",
          "name": "serviceId",
          "type": "uint256"
        },
        {
          "indexed": true,
          "internalType": "address",
          "name": "owner",
          "type": "address"
        },
        {
          "indexed": true,
          "internalType": "address",
          "name": "multisig",
          "type": "address"
        },
        {
          "indexed": false,
          "internalType": "uint256[]",
          "name": "nonces",
          "type": "uint256[]"
        }
      ],
      "name": "ServiceStaked",
      "type": "event"
    },
    {
      "anonymous": false,
      "inputs": [
        {
          "indexed": true,
          "internalType": "uint256",
          "name": "serviceId",
          "type": "uint256"
        },
        {
          "indexed": true,
          "internalType": "address",
          "name": "owner",
          "type": "address"
        },
        {
          "indexed": true,
          "internalType": "address",
          "name": "multisig",
          "type": "address"
        },
        {
          "indexed": false,
          "internalType": "uint256[]",
          "name": "nonces",
          "type": "uint256[]"
        },
        {
          "indexed": false,
          "internalType": "uint256",
          "name": "reward",
          "type": "uint256"
        },
        {
          "indexed": false,
          "internalType": "uint256",
          "name": "tsStart",
          "type": "uint256"
        }
      ],
      "name": "ServiceUnstaked",
      "type": "event"
    },
    {
      "anonymous": false,
      "inputs": [
        {
          "indexed": true,
          "internalType": "address",
          "name": "to",
          "type": "address"
        },
        {
          "indexed": false,
          "internalType": "uint256",
          "name": "amount",
          "type": "uint256"
        }
      ],
      "name": "Withdraw",
      "type": "event"
    },
    {
      "inputs": [],
      "name": "VERSION",
      "outputs": [
        {
          "internalType": "string",
          "name": "",
          "type": "string"
        }
      ],
      "stateMutability": "view",
      "type": "function"
    },
    {
      "inputs": [
        {
          "internalType": "uint256",
          "name": "",
          "type": "uint256"
        }
      ],
      "name": "agentIds",
      "outputs": [
        {
          "internalType": "uint256",
          "name": "",
          "type": "uint256"
        }
      ],
      "stateMutability": "view",
      "type": "function"
    },
    {
      "inputs": [],
      "name": "agentMech",
      "outputs": [
        {
          "internalType": "address",
          "name": "",
          "type": "address"
        }
      ],
      "stateMutability": "view",
      "type": "function"
    },
    {
      "inputs": [],
      "name": "availableRewards",
      "outputs": [
        {
          "internalType": "uint256",
          "name": "",
          "type": "uint256"
        }
      ],
      "stateMutability": "view",
      "type": "function"
    },
    {
      "inputs": [],
      "name": "balance",
      "outputs": [
        {
          "internalType": "uint256",
          "name": "",
          "type": "uint256"
        }
      ],
      "stateMutability": "view",
      "type": "function"
    },
    {
      "inputs": [
        {
          "internalType": "uint256",
          "name": "serviceId",
          "type": "uint256"
        }
      ],
      "name": "calculateServiceStakingReward",
      "outputs": [
        {
          "internalType": "uint256",
          "name": "reward",
          "type": "uint256"
        }
      ],
      "stateMutability": "view",
      "type": "function"
    },
    {
      "inputs": [],
      "name": "checkpoint",
      "outputs": [
        {
          "internalType": "uint256[]",
          "name": "",
          "type": "uint256[]"
        },
        {
          "internalType": "uint256[][]",
          "name": "",
          "type": "uint256[][]"
        },
        {
          "internalType": "uint256",
          "name": "",
          "type": "uint256"
        },
        {
          "internalType": "uint256[]",
          "name": "",
          "type": "uint256[]"
        },
        {
          "internalType": "uint256[]",
          "name": "",
          "type": "uint256[]"
        },
        {
          "internalType": "bool",
          "name": "success",
          "type": "bool"
        }
      ],
      "stateMutability": "nonpayable",
      "type": "function"
    },
    {
      "inputs": [],
      "name": "configHash",
      "outputs": [
        {
          "internalType": "bytes32",
          "name": "",
          "type": "bytes32"
        }
      ],
      "stateMutability": "view",
      "type": "function"
    },
    {
      "inputs": [
        {
          "internalType": "uint256",
          "name": "amount",
          "type": "uint256"
        }
      ],
      "name": "deposit",
      "outputs": [],
      "stateMutability": "nonpayable",
      "type": "function"
    },
    {
      "inputs": [],
      "name": "getNextRewardCheckpointTimestamp",
      "outputs": [
        {
          "internalType": "uint256",
          "name": "tsNext",
          "type": "uint256"
        }
      ],
      "stateMutability": "view",
      "type": "function"
    },
    {
      "inputs": [],
      "name": "getServiceIds",
      "outputs": [
        {
          "internalType": "uint256[]",
          "name": "serviceIds",
          "type": "uint256[]"
        }
      ],
      "stateMutability": "view",
      "type": "function"
    },
    {
      "inputs": [
        {
          "internalType": "uint256",
          "name": "serviceId",
          "type": "uint256"
        }
      ],
      "name": "isServiceStaked",
      "outputs": [
        {
          "internalType": "bool",
          "name": "isStaked",
          "type": "bool"
        }
      ],
      "stateMutability": "view",
      "type": "function"
    },
    {
      "inputs": [],
      "name": "livenessPeriod",
      "outputs": [
        {
          "internalType": "uint256",
          "name": "",
          "type": "uint256"
        }
      ],
      "stateMutability": "view",
      "type": "function"
    },
    {
      "inputs": [],
      "name": "livenessRatio",
      "outputs": [
        {
          "internalType": "uint256",
          "name": "",
          "type": "uint256"
        }
      ],
      "stateMutability": "view",
      "type": "function"
    },
    {
      "inputs": [
        {
          "internalType": "uint256",
          "name": "",
          "type": "uint256"
        }
      ],
      "name": "mapServiceInfo",
      "outputs": [
        {
          "internalType": "address",
          "name": "multisig",
          "type": "address"
        },
        {
          "internalType": "address",
          "name": "owner",
          "type": "address"
        },
        {
          "internalType": "uint256",
          "name": "tsStart",
          "type": "uint256"
        },
        {
          "internalType": "uint256",
          "name": "reward",
          "type": "uint256"
        }
      ],
      "stateMutability": "view",
      "type": "function"
    },
    {
      "inputs": [],
      "name": "maxNumServices",
      "outputs": [
        {
          "internalType": "uint256",
          "name": "",
          "type": "uint256"
        }
      ],
      "stateMutability": "view",
      "type": "function"
    },
    {
      "inputs": [],
      "name": "minStakingDeposit",
      "outputs": [
        {
          "internalType": "uint256",
          "name": "",
          "type": "uint256"
        }
      ],
      "stateMutability": "view",
      "type": "function"
    },
    {
      "inputs": [],
      "name": "numAgentInstances",
      "outputs": [
        {
          "internalType": "uint256",
          "name": "",
          "type": "uint256"
        }
      ],
      "stateMutability": "view",
      "type": "function"
    },
    {
      "inputs": [
        {
          "internalType": "address",
          "name": "",
          "type": "address"
        },
        {
          "internalType": "address",
          "name": "",
          "type": "address"
        },
        {
          "internalType": "uint256",
          "name": "",
          "type": "uint256"
        },
        {
          "internalType": "bytes",
          "name": "",
          "type": "bytes"
        }
      ],
      "name": "onERC721Received",
      "outputs": [
        {
          "internalType": "bytes4",
          "name": "",
          "type": "bytes4"
        }
      ],
      "stateMutability": "nonpayable",
      "type": "function"
    },
    {
      "inputs": [],
      "name": "proxyHash",
      "outputs": [
        {
          "internalType": "bytes32",
          "name": "",
          "type": "bytes32"
        }
      ],
      "stateMutability": "view",
      "type": "function"
    },
    {
      "inputs": [],
      "name": "rewardsPerSecond",
      "outputs": [
        {
          "internalType": "uint256",
          "name": "",
          "type": "uint256"
        }
      ],
      "stateMutability": "view",
      "type": "function"
    },
    {
      "inputs": [],
      "name": "serviceRegistry",
      "outputs": [
        {
          "internalType": "address",
          "name": "",
          "type": "address"
        }
      ],
      "stateMutability": "view",
      "type": "function"
    },
    {
      "inputs": [],
      "name": "serviceRegistryTokenUtility",
      "outputs": [
        {
          "internalType": "address",
          "name": "",
          "type": "address"
        }
      ],
      "stateMutability": "view",
      "type": "function"
    },
    {
      "inputs": [
        {
          "internalType": "uint256",
          "name": "",
          "type": "uint256"
        }
      ],
      "name": "setServiceIds",
      "outputs": [
        {
          "internalType": "uint256",
          "name": "",
          "type": "uint256"
        }
      ],
      "stateMutability": "view",
      "type": "function"
    },
    {
      "inputs": [
        {
          "internalType": "uint256",
          "name": "serviceId",
          "type": "uint256"
        }
      ],
      "name": "stake",
      "outputs": [],
      "stateMutability": "nonpayable",
      "type": "function"
    },
    {
      "inputs": [],
      "name": "stakingToken",
      "outputs": [
        {
          "internalType": "address",
          "name": "",
          "type": "address"
        }
      ],
      "stateMutability": "view",
      "type": "function"
    },
    {
      "inputs": [],
      "name": "threshold",
      "outputs": [
        {
          "internalType": "uint256",
          "name": "",
          "type": "uint256"
        }
      ],
      "stateMutability": "view",
      "type": "function"
    },
    {
      "inputs": [],
      "name": "tsCheckpoint",
      "outputs": [
        {
          "internalType": "uint256",
          "name": "",
          "type": "uint256"
        }
      ],
      "stateMutability": "view",
      "type": "function"
    },
    {
      "inputs": [
        {
          "internalType": "uint256",
          "name": "serviceId",
          "type": "uint256"
        }
      ],
      "name": "unstake",
      "outputs": [],
      "stateMutability": "nonpayable",
      "type": "function"
    }
  ],
  "bytecode": "0x6102206040523480156200001257600080fd5b5060405162002b1438038062002b148339810160408190526200003591620003f8565b8086868686868484828260000151600014806200005457506020830151155b806200006257506060830151155b806200007057506080830151155b806200007e575060a0830151155b156200009d57604051637c946ed760e01b815260040160405180910390fd5b600283604001511015620000d957604080840151905163491a2bb160e01b81526004810191909152600260248201526044015b60405180910390fd5b6001600160a01b038216620001015760405163d92e233d60e01b815260040160405180910390fd5b82516080908152602084015160a0908152604085015160c052606085015160e09081529185015161010090815290850151610120526001600160a01b038416610180529084015161014052830151610160526000805b8460c00151518110156200023957818560c0015182815181106200017f576200017f62000513565b602002602001015111620001cb578460c001518181518110620001a657620001a662000513565b6020026020010151604051632ab10b0b60e21b8152600401620000d091815260200190565b8460c001518181518110620001e457620001e462000513565b6020908102919091010151600380546001810182556000919091527fc2575a0e9e593c00f959f8c92f12db2869c3395a3b0502d05e2516446f71f85b018190559150620002318162000529565b905062000157565b50816200025957604051637c946ed760e01b815260040160405180910390fd5b506101a0525050426002556001600160a01b03821615806200028257506001600160a01b038316155b15620002a15760405163d92e233d60e01b815260040160405180910390fd5b506001600160a01b039081166101e0529081166101c05283169150620002db90505760405162ca95f960e81b815260040160405180910390fd5b6001600160a01b0316610200525062000551945050505050565b634e487b7160e01b600052604160045260246000fd5b60405161012081016001600160401b0381118282101715620003315762000331620002f5565b60405290565b600082601f8301126200034957600080fd5b815160206001600160401b0380831115620003685762000368620002f5565b8260051b604051601f19603f83011681018181108482111715620003905762000390620002f5565b604052938452858101830193838101925087851115620003af57600080fd5b83870191505b84821015620003d057815183529183019190830190620003b5565b979650505050505050565b80516001600160a01b0381168114620003f357600080fd5b919050565b60008060008060008060c087890312156200041257600080fd5b86516001600160401b03808211156200042a57600080fd5b90880190610120828b0312156200044057600080fd5b6200044a6200030b565b825181526020830151602082015260408301516040820152606083015160608201526080830151608082015260a083015160a082015260c0830151828111156200049357600080fd5b620004a18c82860162000337565b60c08301525060e083810151908201526101009283015192810192909252509550620004d060208801620003db565b9450620004e060408801620003db565b9350620004f060608801620003db565b9250608087015191506200050760a08801620003db565b90509295509295509295565b634e487b7160e01b600052603260045260246000fd5b6000600182016200054a57634e487b7160e01b600052601160045260246000fd5b5060010190565b60805160a05160c05160e05161010051610120516101405161016051610180516101a0516101c0516101e051610200516124856200068f600039600081816103960152611c5001526000818161036f01528181611062015281816114d70152818161196001526119a401526000818161026301526118e60152600081816103d00152610d6d0152600081816104b8015281816107fe01528181610b290152610f7201526000818161051401528181610bf10152610c200152600081816102c001528181610c670152610c9b0152600081816103210152610baf0152600081816103480152611e170152600081816102e70152818161148a015261155b01526000818161053b015281816119db0152611a32015260008181610562015261180c01526000818161022e01528181610ab00152610ae401526124856000f3fe608060405234801561001057600080fd5b50600436106101cf5760003560e01c8063879d909011610104578063cd25fe38116100a2578063eb338c9611610071578063eb338c9614610584578063f189e85a14610597578063f4dce714146105ac578063ffa1ad74146105b457600080fd5b8063cd25fe38146104da578063e1f1176d1461050f578063e77cdcc914610536578063eacdaabc1461055d57600080fd5b8063b69ef8a8116100de578063b69ef8a81461047d578063b6b55f2514610486578063c2c4c5c114610499578063cbcf252a146104b357600080fd5b8063879d9090146103f2578063a694fc3a146103fb578063a74466ad1461040e57600080fd5b806356e760581161017157806372f702f31161014b57806372f702f31461036a57806375af4b6d1461039157806378e06136146103b8578063809cee2f146103cb57600080fd5b806356e76058146103095780635829c5ec1461031c578063592cf3fb1461034357600080fd5b80632e17de78116101ad5780632e17de781461029d5780633e732997146102b257806342cde4e8146102bb57806352c824f5146102e257600080fd5b8063150b7a02146101d457806316a7517214610229578063287140511461025e575b600080fd5b6101f36101e2366004611edc565b630a85bd0160e11b95945050505050565b6040517fffffffff0000000000000000000000000000000000000000000000000000000090911681526020015b60405180910390f35b6102507f000000000000000000000000000000000000000000000000000000000000000081565b604051908152602001610220565b6102857f000000000000000000000000000000000000000000000000000000000000000081565b6040516001600160a01b039091168152602001610220565b6102b06102ab366004611f7b565b6105e5565b005b61025060025481565b6102507f000000000000000000000000000000000000000000000000000000000000000081565b6102507f000000000000000000000000000000000000000000000000000000000000000081565b610250610317366004611f7b565b6108c8565b6102507f000000000000000000000000000000000000000000000000000000000000000081565b6102507f000000000000000000000000000000000000000000000000000000000000000081565b6102857f000000000000000000000000000000000000000000000000000000000000000081565b6102857f000000000000000000000000000000000000000000000000000000000000000081565b6102506103c6366004611f7b565b6108e9565b6102507f000000000000000000000000000000000000000000000000000000000000000081565b61025060015481565b6102b0610409366004611f7b565b610a88565b61045261041c366004611f7b565b600460208190526000918252604090912080546001820154600383015492909301546001600160a01b0391821693909116919084565b604080516001600160a01b039586168152949093166020850152918301526060820152608001610220565b61025060005481565b6102b0610494366004611f7b565b61102f565b6104a16110d1565b60405161022096959493929190611fcf565b6102857f000000000000000000000000000000000000000000000000000000000000000081565b6104ff6104e8366004611f7b565b600090815260046020526040902060030154151590565b6040519015158152602001610220565b6102507f000000000000000000000000000000000000000000000000000000000000000081565b6102507f000000000000000000000000000000000000000000000000000000000000000081565b6102507f000000000000000000000000000000000000000000000000000000000000000081565b610250610592366004611f7b565b6113d0565b61059f6113e0565b60405161022091906120a7565b610250611486565b6105d8604051806040016040528060058152602001640302e312e360dc1b81525081565b60405161022091906120ba565b600081815260046020526040902060018101546001600160a01b0316331461063c57600181015460405163521eb56d60e11b81523360048201526001600160a01b0390911660248201526044015b60405180910390fd5b6000806106476110d1565b95505050505091508061065f5761065c6113e0565b91505b60005b825181101561069c578483828151811061067e5761067e612108565b6020026020010151031561069c5761069581612134565b9050610662565b600484015460028501805460408051602080840282018101909252828152600093909290918301828280156106f057602002820191906000526020600020905b8154815260200190600101908083116106dc575b5050506003890154895460008c8152600460205260408120805473ffffffffffffffffffffffffffffffffffffffff199081168255600182018054909116905595965091946001600160a01b03909116935091506107516002830182611e46565b50600060038201819055600490910155600580546107719060019061214d565b8154811061078157610781612108565b90600052602060002001546005868154811061079f5761079f612108565b60009182526020909120015560058054806107bc576107bc612160565b600082815260208120820160001990810191909155019055604051632142170760e11b8152306004820152336024820152604481018a90526001600160a01b037f000000000000000000000000000000000000000000000000000000000000000016906342842e0e90606401600060405180830381600087803b15801561084257600080fd5b505af1158015610856573d6000803e3d6000fd5b50505050600084111561086d5761086d81856114bb565b806001600160a01b0316336001600160a01b03168a7f246ee6115bfd84e00097b16569c2ff2f822026bb9595a82cd2c1e69d4b6ea50c8688876040516108b593929190612176565b60405180910390a4505050505050505050565b600381815481106108d857600080fd5b600091825260209091200154905081565b6000818152600460209081526040808320815160a08101835281546001600160a01b039081168252600183015416818501526002820180548451818702810187018652818152879693958601939092919083018282801561096957602002820191906000526020600020905b815481526020019060010190808311610955575b505050505081526020016003820154815260200160048201548152505090508060800151915080606001516000036109b75760405163e0606b6360e01b815260048101849052602401610633565b60008060008060006109c7611544565b50509450945094509450945060005b84811015610a7c57888382815181106109f1576109f1612108565b602002602001015103610a6c5785841115610a47578386838381518110610a1a57610a1a612108565b6020026020010151610a2c919061219b565b610a3691906121b2565b610a4090896121d4565b9750610a7c565b818181518110610a5957610a59612108565b602002602001015188610a4091906121d4565b610a7581612134565b90506109d6565b50505050505050919050565b600154600003610aab5760405163afb0be3360e01b815260040160405180910390fd5b6005547f00000000000000000000000000000000000000000000000000000000000000008103610b105760405163fd20861560e01b81527f00000000000000000000000000000000000000000000000000000000000000006004820152602401610633565b60405163ef0e239b60e01b8152600481018390526000907f00000000000000000000000000000000000000000000000000000000000000006001600160a01b03169063ef0e239b90602401600060405180830381865afa158015610b78573d6000803e3d6000fd5b505050506040513d6000823e601f3d908101601f19168201604052610ba0919081019061230d565b9050806080015163ffffffff167f000000000000000000000000000000000000000000000000000000000000000014610bef57604051637ad404bf60e11b815260048101849052602401610633565b7f000000000000000000000000000000000000000000000000000000000000000015801590610c42575080604001517f000000000000000000000000000000000000000000000000000000000000000014155b15610c6357604051637ad404bf60e11b815260048101849052602401610633565b60007f0000000000000000000000000000000000000000000000000000000000000000118015610cbd5750806060015163ffffffff167f000000000000000000000000000000000000000000000000000000000000000014155b15610cde57604051637ad404bf60e11b815260048101849052602401610633565b60048160c001516005811115610cf657610cf66123eb565b14610d35578060c001516005811115610d1157610d116123eb565b604051633c053f9d60e21b8152600481019190915260248101849052604401610633565b600081602001516001600160a01b0316803b806020016040519081016040528181526000908060200190933c805190602001209050807f000000000000000000000000000000000000000000000000000000000000000014610dba57602082015160405162a2307960e51b81526001600160a01b039091166004820152602401610633565b6003548015610e8b5760e083015151818114610dec57604051637ad404bf60e11b815260048101879052602401610633565b60005b81811015610e88578460e001518181518110610e0d57610e0d612108565b602002602001015163ffffffff1660038281548110610e2e57610e2e612108565b906000526020600020015414610e785760038181548110610e5157610e51612108565b9060005260206000200154604051632ab10b0b60e21b815260040161063391815260200190565b610e8181612134565b9050610def565b50505b610ea78584600001516bffffffffffffffffffffffff166118c3565b600085815260046020908152604082209085015181546001600160a01b03821673ffffffffffffffffffffffffffffffffffffffff1991821617835560018301805490911633179055909190610efc90611a64565b8051909150610f149060028401906020840190611e67565b50426003830155600580546001810182556000919091527f036b6384b5eca791c62761152d0c79bb0604c104a5fb6f4eb0703f3154bb3db001879055604051632142170760e11b8152336004820152306024820152604481018890527f00000000000000000000000000000000000000000000000000000000000000006001600160a01b0316906342842e0e90606401600060405180830381600087803b158015610fbe57600080fd5b505af1158015610fd2573d6000803e3d6000fd5b5050505084602001516001600160a01b0316336001600160a01b0316887f5d43ac9b1b213902df90d405b0006308578486b6c62182c5df202ed572c844e48460405161101e91906120a7565b60405180910390a450505050505050565b60008160005461103f91906121d4565b905060008260015461105191906121d4565b6000839055600181905590506110897f0000000000000000000000000000000000000000000000000000000000000000333086611a75565b604080518481526020810184905290810182905233907f36af321ec8d3c75236829c5317affd40ddb308863a1236d2d277a4025cccee1e9060600160405180910390a2505050565b60608060006060806000806000806000806000806110ed611544565b965096509650965096509650965060008611156112f1576000878611156112605760008060015b898110156111b257888b88838151811061113057611130612108565b6020026020010151611142919061219b565b61114c91906121b2565b925061115883836121d4565b915087818151811061116c5761116c612108565b602002602001015193508260046000868152602001908152602001600020600401600082825461119c91906121d4565b909155506111ab905081612134565b9050611114565b50878a876000815181106111c8576111c8612108565b60200260200101516111da919061219b565b6111e491906121b2565b91506111f082826121d4565b90508660008151811061120557611205612108565b60200260200101519250808a111561122e57611221818b61214d565b61122b90836121d4565b91505b6000838152600460208190526040822001805484929061124f9084906121d4565b9091555060009a506112ea92505050565b60005b878110156112dc5785818151811061127d5761127d612108565b6020026020010151915084818151811061129957611299612108565b60200260200101516004600084815260200190815260200160002060040160008282546112c691906121d4565b909155506112d5905081612134565b9050611263565b506112e7868961214d565b97505b5060018790555b8051156113bb5760005b825181101561137857600083828151811061131857611318612108565b6020026020010151905082828151811061133457611334612108565b6020026020010151600460008381526020019081526020016000206002019080519060200190611365929190611e67565b50508061137190612134565b90506112fb565b50426002556040805188815260208101889052600199507f21d81d5d656869e8ce3ba8d65526a2f0dbbcd3d36f5f9999eb7c84360e45eced910160405180910390a15b909c909b509399509097509550929350915050565b600581815481106108d857600080fd5b6005546060908067ffffffffffffffff8111156113ff576113ff6121e7565b604051908082528060200260200182016040528015611428578160200160208202803683370190505b50915060005b81811015611481576005818154811061144957611449612108565b906000526020600020015483828151811061146657611466612108565b602090810291909101015261147a81612134565b905061142e565b505090565b60007f00000000000000000000000000000000000000000000000000000000000000006002546114b691906121d4565b905090565b806000808282546114cc919061214d565b909155506114fd90507f00000000000000000000000000000000000000000000000000000000000000008383611aff565b816001600160a01b03167f884edad9ce6fa2440d8a54cc123490eb96d2768479d49ff9c7366125a94243648260405161153891815260200190565b60405180910390a25050565b6002546001549060009081906060908190819081907f0000000000000000000000000000000000000000000000000000000000000000611584824261214d565b101580156115925750600088115b156118b9576005548067ffffffffffffffff8111156115b3576115b36121e7565b6040519080825280602002602001820160405280156115dc578160200160208202803683370190505b5093508067ffffffffffffffff8111156115f8576115f86121e7565b604051908082528060200260200182016040528015611621578160200160208202803683370190505b5095508067ffffffffffffffff81111561163d5761163d6121e7565b604051908082528060200260200182016040528015611666578160200160208202803683370190505b5094508067ffffffffffffffff811115611682576116826121e7565b6040519080825280602002602001820160405280156116b557816020015b60608152602001906001900390816116a05790505b50925060005b818110156118b657600581815481106116d6576116d6612108565b90600052602060002001548582815181106116f3576116f3612108565b60200260200101818152505060006004600087848151811061171757611717612108565b60209081029190910181015182528101919091526040016000208054909150611748906001600160a01b0316611a64565b85838151811061175a5761175a612108565b60209081029190910101526003810154849081811115611778578091505b611782824261214d565b905060006117fc88868151811061179b5761179b612108565b6020026020010151856002018054806020026020016040519081016040528092919081815260200182805480156117f157602002820191906000526020600020905b8154815260200190600101908083116117dd575b505050505084611b7c565b905080156118a1576000611830837f000000000000000000000000000000000000000000000000000000000000000061219b565b905061183c818e6121d4565b9c50808b8f8151811061185157611851612108565b60200260200101818152505089868151811061186f5761186f612108565b60200260200101518c8f8151811061188957611889612108565b602090810291909101015261189d8e612134565b9d50505b50505050806118af90612134565b90506116bb565b50505b5090919293949596565b604051633cebfa4f60e01b81526004810183905260009081906001600160a01b037f00000000000000000000000000000000000000000000000000000000000000001690633cebfa4f906024016040805180830381865afa15801561192c573d6000803e3d6000fd5b505050506040513d601f19601f820116820180604052508101906119509190612401565b91509150816001600160a01b03167f00000000000000000000000000000000000000000000000000000000000000006001600160a01b0316146119d957604051630b80380d60e31b81526001600160a01b037f00000000000000000000000000000000000000000000000000000000000000008116600483015283166024820152604401610633565b7f0000000000000000000000000000000000000000000000000000000000000000816bffffffffffffffffffffffff161015611a5e57604051632b30b24760e21b81526bffffffffffffffffffffffff821660048201527f00000000000000000000000000000000000000000000000000000000000000006024820152604401610633565b50505050565b6060611a6f82611b91565b92915050565b60006040516323b872dd60e01b6000528460045283602452826044526020600060646000808a5af13d15601f3d1160016000511416171691506000606052806040525080611af85760405163abae3d6d60e01b81526001600160a01b03808716600483015280861660248301528416604482015260648101839052608401610633565b5050505050565b600060405163a9059cbb60e01b6000528360045282602452602060006044600080895af13d15601f3d1160016000511416171691506000606052806040525080611a5e5760405163abae3d6d60e01b81526001600160a01b0380861660048301523060248301528416604482015260648101839052608401610633565b6000611b89848484611cdf565b949350505050565b6040805160028082526060808301845292602083019080368337019050509050816001600160a01b031663affed0e06040518163ffffffff1660e01b8152600401602060405180830381865afa158015611bef573d6000803e3d6000fd5b505050506040513d601f19601f82011682018060405250810190611c139190612436565b81600081518110611c2657611c26612108565b6020908102919091010152604051637af7347360e01b81526001600160a01b0383811660048301527f00000000000000000000000000000000000000000000000000000000000000001690637af7347390602401602060405180830381865afa158015611c97573d6000803e3d6000fd5b505050506040513d601f19601f82011682018060405250810190611cbb9190612436565b81600181518110611cce57611cce612108565b602002602001018181525050919050565b60008082118015611d23575082600081518110611cfe57611cfe612108565b602002602001015184600081518110611d1957611d19612108565b6020026020010151115b8015611d62575082600181518110611d3d57611d3d612108565b602002602001015184600181518110611d5857611d58612108565b6020026020010151115b15611e3f57600083600081518110611d7c57611d7c612108565b602002602001015185600081518110611d9757611d97612108565b6020026020010151611da9919061214d565b9050600084600181518110611dc057611dc0612108565b602002602001015186600181518110611ddb57611ddb612108565b6020026020010151611ded919061214d565b9050818111611e3c57600084611e0b83670de0b6b3a764000061219b565b611e1591906121b2565b7f000000000000000000000000000000000000000000000000000000000000000011159350505b50505b9392505050565b5080546000825590600052602060002090810190611e649190611eb2565b50565b828054828255906000526020600020908101928215611ea2579160200282015b82811115611ea2578251825591602001919060010190611e87565b50611eae929150611eb2565b5090565b5b80821115611eae5760008155600101611eb3565b6001600160a01b0381168114611e6457600080fd5b600080600080600060808688031215611ef457600080fd5b8535611eff81611ec7565b94506020860135611f0f81611ec7565b935060408601359250606086013567ffffffffffffffff80821115611f3357600080fd5b818801915088601f830112611f4757600080fd5b813581811115611f5657600080fd5b896020828501011115611f6857600080fd5b9699959850939650602001949392505050565b600060208284031215611f8d57600080fd5b5035919050565b600081518084526020808501945080840160005b83811015611fc457815187529582019590820190600101611fa8565b509495945050505050565b60c081526000611fe260c0830189611f94565b6020838203818501528189518084528284019150828160051b850101838c016000805b8481101561205857878403601f19018652825180518086529088019088860190845b818110156120435783518352928a0192918a0191600101612027565b50509688019694505091860191600101612005565b5050508a60408801528681036060880152612073818b611f94565b945050505050828103608084015261208b8186611f94565b91505061209c60a083018415159052565b979650505050505050565b602081526000611e3f6020830184611f94565b600060208083528351808285015260005b818110156120e7578581018301518582016040015282016120cb565b506000604082860101526040601f19601f8301168501019250505092915050565b634e487b7160e01b600052603260045260246000fd5b634e487b7160e01b600052601160045260246000fd5b6000600182016121465761214661211e565b5060010190565b81810381811115611a6f57611a6f61211e565b634e487b7160e01b600052603160045260246000fd5b6060815260006121896060830186611f94565b60208301949094525060400152919050565b8082028115828204841417611a6f57611a6f61211e565b6000826121cf57634e487b7160e01b600052601260045260246000fd5b500490565b80820180821115611a6f57611a6f61211e565b634e487b7160e01b600052604160045260246000fd5b604051610100810167ffffffffffffffff81118282101715612221576122216121e7565b60405290565b80516bffffffffffffffffffffffff8116811461224357600080fd5b919050565b805161224381611ec7565b805163ffffffff8116811461224357600080fd5b80516006811061224357600080fd5b600082601f83011261228757600080fd5b8151602067ffffffffffffffff808311156122a4576122a46121e7565b8260051b604051601f19603f830116810181811084821117156122c9576122c96121e7565b6040529384528581018301938381019250878511156122e757600080fd5b83870191505b8482101561209c576122fe82612253565b835291830191908301906122ed565b60006020828403121561231f57600080fd5b815167ffffffffffffffff8082111561233757600080fd5b90830190610100828603121561234c57600080fd5b6123546121fd565b61235d83612227565b815261236b60208401612248565b60208201526040830151604082015261238660608401612253565b606082015261239760808401612253565b60808201526123a860a08401612253565b60a08201526123b960c08401612267565b60c082015260e0830151828111156123d057600080fd5b6123dc87828601612276565b60e08301525095945050505050565b634e487b7160e01b600052602160045260246000fd5b6000806040838503121561241457600080fd5b825161241f81611ec7565b915061242d60208401612227565b90509250929050565b60006020828403121561244857600080fd5b505191905056fea26469706673582212206315f6e913afeb61c8916fe48916c726450ecb2def96b059cbfa3cef56ffb32e64736f6c63430008150033",
  "linkReferences": {},
  "deployedLinkReferences": {}
}