{
  "_format": "hh-sol-artifact-1",
  "contractName": "ServiceStakingMechUsage",
  "sourceName": "contracts/mech_usage/ServiceStakingMechUsage.sol",
  "abi": [
    {
      "inputs": [
        {
          "components": [
            {
              "internalType": "uint256",
              "name": "maxNumServices",
              "type": "uint256"
            },
            {
              "internalType": "uint256",
              "name": "rewardsPerSecond",
              "type": "uint256"
            },
            {
              "internalType": "uint256",
              "name": "minStakingDeposit",
              "type": "uint256"
            },
            {
              "internalType": "uint256",
              "name": "livenessPeriod",
              "type": "uint256"
            },
            {
              "internalType": "uint256",
              "name": "livenessRatio",
              "type": "uint256"
            },
            {
              "internalType": "uint256",
              "name": "numAgentInstances",
              "type": "uint256"
            },
            {
              "internalType": "uint256[]",
              "name": "agentIds",
              "type": "uint256[]"
            },
            {
              "internalType": "uint256",
              "name": "threshold",
              "type": "uint256"
            },
            {
              "internalType": "bytes32",
              "name": "configHash",
              "type": "bytes32"
            }
          ],
          "internalType": "struct ServiceStakingBase.StakingParams",
          "name": "_stakingParams",
          "type": "tuple"
        },
        {
          "internalType": "address",
          "name": "_serviceRegistry",
          "type": "address"
        },
        {
          "internalType": "bytes32",
          "name": "_proxyHash",
          "type": "bytes32"
        },
        {
          "internalType": "address",
          "name": "_agentMech",
          "type": "address"
        }
      ],
      "stateMutability": "nonpayable",
      "type": "constructor"
    },
    {
      "inputs": [
        {
          "internalType": "address",
          "name": "operator",
          "type": "address"
        }
      ],
      "name": "AgentInstanceRegistered",
      "type": "error"
    },
    {
      "inputs": [
        {
          "internalType": "uint256",
          "name": "serviceId",
          "type": "uint256"
        }
      ],
      "name": "AgentInstancesSlotsFilled",
      "type": "error"
    },
    {
      "inputs": [
        {
          "internalType": "uint256",
          "name": "agentId",
          "type": "uint256"
        }
      ],
      "name": "AgentNotFound",
      "type": "error"
    },
    {
      "inputs": [
        {
          "internalType": "uint256",
          "name": "agentId",
          "type": "uint256"
        },
        {
          "internalType": "uint256",
          "name": "serviceId",
          "type": "uint256"
        }
      ],
      "name": "AgentNotInService",
      "type": "error"
    },
    {
      "inputs": [
        {
          "internalType": "uint256",
          "name": "componentId",
          "type": "uint256"
        }
      ],
      "name": "ComponentNotFound",
      "type": "error"
    },
    {
      "inputs": [],
      "name": "HashExists",
      "type": "error"
    },
    {
      "inputs": [
        {
          "internalType": "uint256",
          "name": "sent",
          "type": "uint256"
        },
        {
          "internalType": "uint256",
          "name": "expected",
          "type": "uint256"
        },
        {
          "internalType": "uint256",
          "name": "serviceId",
          "type": "uint256"
        }
      ],
      "name": "IncorrectAgentBondingValue",
      "type": "error"
    },
    {
      "inputs": [
        {
          "internalType": "uint256",
          "name": "sent",
          "type": "uint256"
        },
        {
          "internalType": "uint256",
          "name": "expected",
          "type": "uint256"
        },
        {
          "internalType": "uint256",
          "name": "serviceId",
          "type": "uint256"
        }
      ],
      "name": "IncorrectRegistrationDepositValue",
      "type": "error"
    },
    {
      "inputs": [
        {
          "internalType": "uint256",
          "name": "provided",
          "type": "uint256"
        },
        {
          "internalType": "uint256",
          "name": "expected",
          "type": "uint256"
        }
      ],
      "name": "LowerThan",
      "type": "error"
    },
    {
      "inputs": [
        {
          "internalType": "address",
          "name": "sender",
          "type": "address"
        },
        {
          "internalType": "address",
          "name": "manager",
          "type": "address"
        }
      ],
      "name": "ManagerOnly",
      "type": "error"
    },
    {
      "inputs": [
        {
          "internalType": "uint256",
          "name": "maxNumServices",
          "type": "uint256"
        }
      ],
      "name": "MaxNumServicesReached",
      "type": "error"
    },
    {
      "inputs": [],
      "name": "NoRewardsAvailable",
      "type": "error"
    },
    {
      "inputs": [
        {
          "internalType": "address",
          "name": "provided",
          "type": "address"
        },
        {
          "internalType": "address",
          "name": "expected",
          "type": "address"
        },
        {
          "internalType": "uint256",
          "name": "serviceId",
          "type": "uint256"
        }
      ],
      "name": "OnlyOwnServiceMultisig",
      "type": "error"
    },
    {
      "inputs": [
        {
          "internalType": "address",
          "name": "operator",
          "type": "address"
        },
        {
          "internalType": "uint256",
          "name": "serviceId",
          "type": "uint256"
        }
      ],
      "name": "OperatorHasNoInstances",
      "type": "error"
    },
    {
      "inputs": [
        {
          "internalType": "uint256",
          "name": "provided",
          "type": "uint256"
        },
        {
          "internalType": "uint256",
          "name": "max",
          "type": "uint256"
        }
      ],
      "name": "Overflow",
      "type": "error"
    },
    {
      "inputs": [
        {
          "internalType": "address",
          "name": "sender",
          "type": "address"
        },
        {
          "internalType": "address",
          "name": "owner",
          "type": "address"
        }
      ],
      "name": "OwnerOnly",
      "type": "error"
    },
    {
      "inputs": [],
      "name": "Paused",
      "type": "error"
    },
    {
      "inputs": [],
      "name": "ReentrancyGuard",
      "type": "error"
    },
    {
      "inputs": [
        {
          "internalType": "uint256",
          "name": "serviceId",
          "type": "uint256"
        }
      ],
      "name": "ServiceMustBeInactive",
      "type": "error"
    },
    {
      "inputs": [
        {
          "internalType": "uint256",
          "name": "serviceId",
          "type": "uint256"
        }
      ],
      "name": "ServiceNotStaked",
      "type": "error"
    },
    {
      "inputs": [
        {
          "internalType": "address",
          "name": "token",
          "type": "address"
        },
        {
          "internalType": "address",
          "name": "from",
          "type": "address"
        },
        {
          "internalType": "address",
          "name": "to",
          "type": "address"
        },
        {
          "internalType": "uint256",
          "name": "value",
          "type": "uint256"
        }
      ],
      "name": "TransferFailed",
      "type": "error"
    },
    {
      "inputs": [
        {
          "internalType": "address",
          "name": "multisig",
          "type": "address"
        }
      ],
      "name": "UnauthorizedMultisig",
      "type": "error"
    },
    {
      "inputs": [
        {
          "internalType": "uint256",
          "name": "agentId",
          "type": "uint256"
        }
      ],
      "name": "WrongAgentId",
      "type": "error"
    },
    {
      "inputs": [
        {
          "internalType": "uint256",
          "name": "numValues1",
          "type": "uint256"
        },
        {
          "internalType": "uint256",
          "name": "numValues2",
          "type": "uint256"
        }
      ],
      "name": "WrongArrayLength",
      "type": "error"
    },
    {
      "inputs": [
        {
          "internalType": "uint256",
          "name": "serviceId",
          "type": "uint256"
        }
      ],
      "name": "WrongOperator",
      "type": "error"
    },
    {
      "inputs": [
        {
          "internalType": "uint256",
          "name": "serviceId",
          "type": "uint256"
        }
      ],
      "name": "WrongServiceConfiguration",
      "type": "error"
    },
    {
      "inputs": [
        {
          "internalType": "uint256",
          "name": "state",
          "type": "uint256"
        },
        {
          "internalType": "uint256",
          "name": "serviceId",
          "type": "uint256"
        }
      ],
      "name": "WrongServiceState",
      "type": "error"
    },
    {
      "inputs": [
        {
          "internalType": "uint256",
          "name": "currentThreshold",
          "type": "uint256"
        },
        {
          "internalType": "uint256",
          "name": "minThreshold",
          "type": "uint256"
        },
        {
          "internalType": "uint256",
          "name": "maxThreshold",
          "type": "uint256"
        }
      ],
      "name": "WrongThreshold",
      "type": "error"
    },
    {
      "inputs": [],
      "name": "ZeroAddress",
      "type": "error"
    },
    {
      "inputs": [],
      "name": "ZeroMechAgentAddress",
      "type": "error"
    },
    {
      "inputs": [],
      "name": "ZeroValue",
      "type": "error"
    },
    {
      "anonymous": false,
      "inputs": [
        {
          "indexed": false,
          "internalType": "uint256",
          "name": "availableRewards",
          "type": "uint256"
        },
        {
          "indexed": false,
          "internalType": "uint256",
          "name": "numServices",
          "type": "uint256"
        }
      ],
      "name": "Checkpoint",
      "type": "event"
    },
    {
      "anonymous": false,
      "inputs": [
        {
          "indexed": true,
          "internalType": "address",
          "name": "sender",
          "type": "address"
        },
        {
          "indexed": false,
          "internalType": "uint256",
          "name": "amount",
          "type": "uint256"
        },
        {
          "indexed": false,
          "internalType": "uint256",
          "name": "balance",
          "type": "uint256"
        },
        {
          "indexed": false,
          "internalType": "uint256",
          "name": "availableRewards",
          "type": "uint256"
        }
      ],
      "name": "Deposit",
      "type": "event"
    },
    {
      "anonymous": false,
      "inputs": [
        {
          "indexed": true,
          "internalType": "uint256",
          "name": "serviceId",
          "type": "uint256"
        },
        {
          "indexed": true,
          "internalType": "address",
          "name": "owner",
          "type": "address"
        },
        {
          "indexed": true,
          "internalType": "address",
          "name": "multisig",
          "type": "address"
        },
        {
          "indexed": false,
          "internalType": "uint256[]",
          "name": "nonces",
          "type": "uint256[]"
        }
      ],
      "name": "ServiceStaked",
      "type": "event"
    },
    {
      "anonymous": false,
      "inputs": [
        {
          "indexed": true,
          "internalType": "uint256",
          "name": "serviceId",
          "type": "uint256"
        },
        {
          "indexed": true,
          "internalType": "address",
          "name": "owner",
          "type": "address"
        },
        {
          "indexed": true,
          "internalType": "address",
          "name": "multisig",
          "type": "address"
        },
        {
          "indexed": false,
          "internalType": "uint256[]",
          "name": "nonces",
          "type": "uint256[]"
        },
        {
          "indexed": false,
          "internalType": "uint256",
          "name": "reward",
          "type": "uint256"
        },
        {
          "indexed": false,
          "internalType": "uint256",
          "name": "tsStart",
          "type": "uint256"
        }
      ],
      "name": "ServiceUnstaked",
      "type": "event"
    },
    {
      "anonymous": false,
      "inputs": [
        {
          "indexed": true,
          "internalType": "address",
          "name": "to",
          "type": "address"
        },
        {
          "indexed": false,
          "internalType": "uint256",
          "name": "amount",
          "type": "uint256"
        }
      ],
      "name": "Withdraw",
      "type": "event"
    },
    {
      "inputs": [],
      "name": "VERSION",
      "outputs": [
        {
          "internalType": "string",
          "name": "",
          "type": "string"
        }
      ],
      "stateMutability": "view",
      "type": "function"
    },
    {
      "inputs": [
        {
          "internalType": "uint256",
          "name": "",
          "type": "uint256"
        }
      ],
      "name": "agentIds",
      "outputs": [
        {
          "internalType": "uint256",
          "name": "",
          "type": "uint256"
        }
      ],
      "stateMutability": "view",
      "type": "function"
    },
    {
      "inputs": [],
      "name": "agentMech",
      "outputs": [
        {
          "internalType": "address",
          "name": "",
          "type": "address"
        }
      ],
      "stateMutability": "view",
      "type": "function"
    },
    {
      "inputs": [],
      "name": "availableRewards",
      "outputs": [
        {
          "internalType": "uint256",
          "name": "",
          "type": "uint256"
        }
      ],
      "stateMutability": "view",
      "type": "function"
    },
    {
      "inputs": [],
      "name": "balance",
      "outputs": [
        {
          "internalType": "uint256",
          "name": "",
          "type": "uint256"
        }
      ],
      "stateMutability": "view",
      "type": "function"
    },
    {
      "inputs": [
        {
          "internalType": "uint256",
          "name": "serviceId",
          "type": "uint256"
        }
      ],
      "name": "calculateServiceStakingReward",
      "outputs": [
        {
          "internalType": "uint256",
          "name": "reward",
          "type": "uint256"
        }
      ],
      "stateMutability": "view",
      "type": "function"
    },
    {
      "inputs": [],
      "name": "checkpoint",
      "outputs": [
        {
          "internalType": "uint256[]",
          "name": "",
          "type": "uint256[]"
        },
        {
          "internalType": "uint256[][]",
          "name": "",
          "type": "uint256[][]"
        },
        {
          "internalType": "uint256",
          "name": "",
          "type": "uint256"
        },
        {
          "internalType": "uint256[]",
          "name": "",
          "type": "uint256[]"
        },
        {
          "internalType": "uint256[]",
          "name": "",
          "type": "uint256[]"
        },
        {
          "internalType": "bool",
          "name": "success",
          "type": "bool"
        }
      ],
      "stateMutability": "nonpayable",
      "type": "function"
    },
    {
      "inputs": [],
      "name": "configHash",
      "outputs": [
        {
          "internalType": "bytes32",
          "name": "",
          "type": "bytes32"
        }
      ],
      "stateMutability": "view",
      "type": "function"
    },
    {
      "inputs": [],
      "name": "getAgentIds",
      "outputs": [
        {
          "internalType": "uint256[]",
          "name": "",
          "type": "uint256[]"
        }
      ],
      "stateMutability": "view",
      "type": "function"
    },
    {
      "inputs": [],
      "name": "getNextRewardCheckpointTimestamp",
      "outputs": [
        {
          "internalType": "uint256",
          "name": "tsNext",
          "type": "uint256"
        }
      ],
      "stateMutability": "view",
      "type": "function"
    },
    {
      "inputs": [],
      "name": "getServiceIds",
      "outputs": [
        {
          "internalType": "uint256[]",
          "name": "",
          "type": "uint256[]"
        }
      ],
      "stateMutability": "view",
      "type": "function"
    },
    {
      "inputs": [
        {
          "internalType": "uint256",
          "name": "serviceId",
          "type": "uint256"
        }
      ],
      "name": "getServiceInfo",
      "outputs": [
        {
          "components": [
            {
              "internalType": "address",
              "name": "multisig",
              "type": "address"
            },
            {
              "internalType": "address",
              "name": "owner",
              "type": "address"
            },
            {
              "internalType": "uint256[]",
              "name": "nonces",
              "type": "uint256[]"
            },
            {
              "internalType": "uint256",
              "name": "tsStart",
              "type": "uint256"
            },
            {
              "internalType": "uint256",
              "name": "reward",
              "type": "uint256"
            }
          ],
          "internalType": "struct ServiceInfo",
          "name": "sInfo",
          "type": "tuple"
        }
      ],
      "stateMutability": "view",
      "type": "function"
    },
    {
      "inputs": [
        {
          "internalType": "uint256",
          "name": "serviceId",
          "type": "uint256"
        }
      ],
      "name": "isServiceStaked",
      "outputs": [
        {
          "internalType": "bool",
          "name": "isStaked",
          "type": "bool"
        }
      ],
      "stateMutability": "view",
      "type": "function"
    },
    {
      "inputs": [],
      "name": "livenessPeriod",
      "outputs": [
        {
          "internalType": "uint256",
          "name": "",
          "type": "uint256"
        }
      ],
      "stateMutability": "view",
      "type": "function"
    },
    {
      "inputs": [],
      "name": "livenessRatio",
      "outputs": [
        {
          "internalType": "uint256",
          "name": "",
          "type": "uint256"
        }
      ],
      "stateMutability": "view",
      "type": "function"
    },
    {
      "inputs": [
        {
          "internalType": "uint256",
          "name": "",
          "type": "uint256"
        }
      ],
      "name": "mapServiceInfo",
      "outputs": [
        {
          "internalType": "address",
          "name": "multisig",
          "type": "address"
        },
        {
          "internalType": "address",
          "name": "owner",
          "type": "address"
        },
        {
          "internalType": "uint256",
          "name": "tsStart",
          "type": "uint256"
        },
        {
          "internalType": "uint256",
          "name": "reward",
          "type": "uint256"
        }
      ],
      "stateMutability": "view",
      "type": "function"
    },
    {
      "inputs": [],
      "name": "maxNumServices",
      "outputs": [
        {
          "internalType": "uint256",
          "name": "",
          "type": "uint256"
        }
      ],
      "stateMutability": "view",
      "type": "function"
    },
    {
      "inputs": [],
      "name": "minStakingDeposit",
      "outputs": [
        {
          "internalType": "uint256",
          "name": "",
          "type": "uint256"
        }
      ],
      "stateMutability": "view",
      "type": "function"
    },
    {
      "inputs": [],
      "name": "numAgentInstances",
      "outputs": [
        {
          "internalType": "uint256",
          "name": "",
          "type": "uint256"
        }
      ],
      "stateMutability": "view",
      "type": "function"
    },
    {
      "inputs": [
        {
          "internalType": "address",
          "name": "",
          "type": "address"
        },
        {
          "internalType": "address",
          "name": "",
          "type": "address"
        },
        {
          "internalType": "uint256",
          "name": "",
          "type": "uint256"
        },
        {
          "internalType": "bytes",
          "name": "",
          "type": "bytes"
        }
      ],
      "name": "onERC721Received",
      "outputs": [
        {
          "internalType": "bytes4",
          "name": "",
          "type": "bytes4"
        }
      ],
      "stateMutability": "nonpayable",
      "type": "function"
    },
    {
      "inputs": [],
      "name": "proxyHash",
      "outputs": [
        {
          "internalType": "bytes32",
          "name": "",
          "type": "bytes32"
        }
      ],
      "stateMutability": "view",
      "type": "function"
    },
    {
      "inputs": [],
      "name": "rewardsPerSecond",
      "outputs": [
        {
          "internalType": "uint256",
          "name": "",
          "type": "uint256"
        }
      ],
      "stateMutability": "view",
      "type": "function"
    },
    {
      "inputs": [],
      "name": "serviceRegistry",
      "outputs": [
        {
          "internalType": "address",
          "name": "",
          "type": "address"
        }
      ],
      "stateMutability": "view",
      "type": "function"
    },
    {
      "inputs": [
        {
          "internalType": "uint256",
          "name": "",
          "type": "uint256"
        }
      ],
      "name": "setServiceIds",
      "outputs": [
        {
          "internalType": "uint256",
          "name": "",
          "type": "uint256"
        }
      ],
      "stateMutability": "view",
      "type": "function"
    },
    {
      "inputs": [
        {
          "internalType": "uint256",
          "name": "serviceId",
          "type": "uint256"
        }
      ],
      "name": "stake",
      "outputs": [],
      "stateMutability": "nonpayable",
      "type": "function"
    },
    {
      "inputs": [],
      "name": "threshold",
      "outputs": [
        {
          "internalType": "uint256",
          "name": "",
          "type": "uint256"
        }
      ],
      "stateMutability": "view",
      "type": "function"
    },
    {
      "inputs": [],
      "name": "tsCheckpoint",
      "outputs": [
        {
          "internalType": "uint256",
          "name": "",
          "type": "uint256"
        }
      ],
      "stateMutability": "view",
      "type": "function"
    },
    {
      "inputs": [
        {
          "internalType": "uint256",
          "name": "serviceId",
          "type": "uint256"
        }
      ],
      "name": "unstake",
      "outputs": [],
      "stateMutability": "nonpayable",
      "type": "function"
    },
    {
      "stateMutability": "payable",
      "type": "receive"
    }
  ],
  "bytecode": "0x6101e06040523480156200001257600080fd5b5060405162002a3438038062002a348339810160408190526200003591620003a7565b808484848282828260000151600014806200005257506020830151155b806200006057506060830151155b806200006e57506080830151155b806200007c575060a0830151155b156200009b57604051637c946ed760e01b815260040160405180910390fd5b600283604001511015620000d757604080840151905163491a2bb160e01b81526004810191909152600260248201526044015b60405180910390fd5b6001600160a01b038216620000ff5760405163d92e233d60e01b815260040160405180910390fd5b82516080908152602084015160a0908152604085015160c052606085015160e09081529185015161010090815290850151610120526001600160a01b038416610180529084015161014052830151610160526000805b8460c00151518110156200023757818560c0015182815181106200017d576200017d6200049e565b602002602001015111620001c9578460c001518181518110620001a457620001a46200049e565b6020026020010151604051632ab10b0b60e21b8152600401620000ce91815260200190565b8460c001518181518110620001e257620001e26200049e565b6020908102919091010151600380546001810182556000919091527fc2575a0e9e593c00f959f8c92f12db2869c3395a3b0502d05e2516446f71f85b0181905591506200022f81620004b4565b905062000155565b50816200025757604051637c946ed760e01b815260040160405180910390fd5b506101a0525050426002555050506001600160a01b0381166200028c5760405162ca95f960e81b815260040160405180910390fd5b6001600160a01b03166101c05250620004dc92505050565b634e487b7160e01b600052604160045260246000fd5b60405161012081016001600160401b0381118282101715620002e057620002e0620002a4565b60405290565b600082601f830112620002f857600080fd5b815160206001600160401b0380831115620003175762000317620002a4565b8260051b604051601f19603f830116810181811084821117156200033f576200033f620002a4565b6040529384528581018301938381019250878511156200035e57600080fd5b83870191505b848210156200037f5781518352918301919083019062000364565b979650505050505050565b80516001600160a01b0381168114620003a257600080fd5b919050565b60008060008060808587031215620003be57600080fd5b84516001600160401b0380821115620003d657600080fd5b908601906101208289031215620003ec57600080fd5b620003f6620002ba565b825181526020830151602082015260408301516040820152606083015160608201526080830151608082015260a083015160a082015260c0830151828111156200043f57600080fd5b6200044d8a828601620002e6565b60c08301525060e0838101519082015261010092830151928101929092525093506200047c602086016200038a565b92506040850151915062000493606086016200038a565b905092959194509250565b634e487b7160e01b600052603260045260246000fd5b600060018201620004d557634e487b7160e01b600052601160045260246000fd5b5060010190565b60805160a05160c05160e05161010051610120516101405161016051610180516101a0516101c051612453620005e1600039600081816104170152611c1d0152600081816104830152610feb0152600081816105f50152818161099601528181610da701526111f001526000818161066b01528181610e6f0152610e9e01526000818161032701528181610ee50152610f190152600081816103af0152610e2d0152600081816103e30152611de401526000818161035b0152818161166e015261176201526000818161069f01528181611acc0152611b080152600081816106d30152611a130152600081816102ad01528181610d2e0152610d6201526124536000f3fe6080604052600436106101bb5760003560e01c8063a694fc3a116100ec578063e1f1176d1161008a578063eb338c9611610064578063eb338c96146106f5578063f189e85a14610715578063f4dce7141461072a578063ffa1ad741461073f57600080fd5b8063e1f1176d14610659578063e77cdcc91461068d578063eacdaabc146106c157600080fd5b8063b69ef8a8116100c6578063b69ef8a8146105a6578063c2c4c5c1146105bc578063cbcf252a146105e3578063cd25fe381461061757600080fd5b8063a694fc3a146104e8578063a74466ad14610508578063b15087601461058457600080fd5b80635829c5ec1161015957806378e061361161013357806378e0613614610451578063809cee2f1461047157806382a8ea58146104a5578063879d9090146104d257600080fd5b80635829c5ec1461039d578063592cf3fb146103d157806375af4b6d1461040557600080fd5b80633e732997116101955780633e732997146102ff57806342cde4e81461031557806352c824f51461034957806356e760581461037d57600080fd5b8063150b7a021461023957806316a751721461029b5780632e17de78146102dd57600080fd5b36610234576000346000546101d09190611eaa565b90506000346001546101e29190611eaa565b60008390556001819055604080513481526020810185905290810182905290915033907f36af321ec8d3c75236829c5317affd40ddb308863a1236d2d277a4025cccee1e9060600160405180910390a2005b600080fd5b34801561024557600080fd5b50610265610254366004611ed2565b630a85bd0160e11b95945050505050565b6040517fffffffff0000000000000000000000000000000000000000000000000000000090911681526020015b60405180910390f35b3480156102a757600080fd5b506102cf7f000000000000000000000000000000000000000000000000000000000000000081565b604051908152602001610292565b3480156102e957600080fd5b506102fd6102f8366004611f71565b61077d565b005b34801561030b57600080fd5b506102cf60025481565b34801561032157600080fd5b506102cf7f000000000000000000000000000000000000000000000000000000000000000081565b34801561035557600080fd5b506102cf7f000000000000000000000000000000000000000000000000000000000000000081565b34801561038957600080fd5b506102cf610398366004611f71565b610a60565b3480156103a957600080fd5b506102cf7f000000000000000000000000000000000000000000000000000000000000000081565b3480156103dd57600080fd5b506102cf7f000000000000000000000000000000000000000000000000000000000000000081565b34801561041157600080fd5b506104397f000000000000000000000000000000000000000000000000000000000000000081565b6040516001600160a01b039091168152602001610292565b34801561045d57600080fd5b506102cf61046c366004611f71565b610a81565b34801561047d57600080fd5b506102cf7f000000000000000000000000000000000000000000000000000000000000000081565b3480156104b157600080fd5b506104c56104c0366004611f71565b610c20565b6040516102929190611fc5565b3480156104de57600080fd5b506102cf60015481565b3480156104f457600080fd5b506102fd610503366004611f71565b610d06565b34801561051457600080fd5b50610559610523366004611f71565b600460208190526000918252604090912080546001820154600383015492909301546001600160a01b0391821693909116919084565b604080516001600160a01b039586168152949093166020850152918301526060820152608001610292565b34801561059057600080fd5b506105996112ad565b6040516102929190612022565b3480156105b257600080fd5b506102cf60005481565b3480156105c857600080fd5b506105d1611305565b60405161029296959493929190612035565b3480156105ef57600080fd5b506104397f000000000000000000000000000000000000000000000000000000000000000081565b34801561062357600080fd5b50610649610632366004611f71565b600090815260046020526040902060030154151590565b6040519015158152602001610292565b34801561066557600080fd5b506102cf7f000000000000000000000000000000000000000000000000000000000000000081565b34801561069957600080fd5b506102cf7f000000000000000000000000000000000000000000000000000000000000000081565b3480156106cd57600080fd5b506102cf7f000000000000000000000000000000000000000000000000000000000000000081565b34801561070157600080fd5b506102cf610710366004611f71565b611604565b34801561072157600080fd5b50610599611614565b34801561073657600080fd5b506102cf61166a565b34801561074b57600080fd5b50610770604051806040016040528060058152602001640302e312e360dc1b81525081565b60405161029291906120e6565b600081815260046020526040902060018101546001600160a01b031633146107d457600181015460405163521eb56d60e11b81523360048201526001600160a01b0390911660248201526044015b60405180910390fd5b6000806107df611305565b9550505050509150806107f7576107f4611614565b91505b60005b8251811015610834578483828151811061081657610816612134565b602002602001015103156108345761082d8161214a565b90506107fa565b6004840154600285018054604080516020808402820181019092528281526000939092909183018282801561088857602002820191906000526020600020905b815481526020019060010190808311610874575b5050506003890154895460008c8152600460205260408120805473ffffffffffffffffffffffffffffffffffffffff199081168255600182018054909116905595965091946001600160a01b03909116935091506108e96002830182611e13565b506000600382018190556004909101556005805461090990600190612163565b8154811061091957610919612134565b90600052602060002001546005868154811061093757610937612134565b600091825260209091200155600580548061095457610954612176565b600082815260208120820160001990810191909155019055604051632142170760e11b8152306004820152336024820152604481018a90526001600160a01b037f000000000000000000000000000000000000000000000000000000000000000016906342842e0e90606401600060405180830381600087803b1580156109da57600080fd5b505af11580156109ee573d6000803e3d6000fd5b505050506000841115610a0557610a05818561169f565b806001600160a01b0316336001600160a01b03168a7f246ee6115bfd84e00097b16569c2ff2f822026bb9595a82cd2c1e69d4b6ea50c868887604051610a4d9392919061218c565b60405180910390a4505050505050505050565b60038181548110610a7057600080fd5b600091825260209091200154905081565b6000818152600460209081526040808320815160a08101835281546001600160a01b0390811682526001830154168185015260028201805484518187028101870186528181528796939586019390929190830182828015610b0157602002820191906000526020600020905b815481526020019060010190808311610aed575b50505050508152602001600382015481526020016004820154815250509050806080015191508060600151600003610b4f5760405163e0606b6360e01b8152600481018490526024016107cb565b6000806000806000610b5f61174b565b50509450945094509450945060005b84811015610c145788838281518110610b8957610b89612134565b602002602001015103610c045785841115610bdf578386838381518110610bb257610bb2612134565b6020026020010151610bc491906121b1565b610bce91906121c8565b610bd89089611eaa565b9750610c14565b818181518110610bf157610bf1612134565b602002602001015188610bd89190611eaa565b610c0d8161214a565b9050610b6e565b50505050505050919050565b610c646040518060a0016040528060006001600160a01b0316815260200160006001600160a01b031681526020016060815260200160008152602001600081525090565b600082815260046020908152604091829020825160a08101845281546001600160a01b0390811682526001830154168184015260028201805485518186028101860187528181529295939493860193830182828015610ce257602002820191906000526020600020905b815481526020019060010190808311610cce575b50505050508152602001600382015481526020016004820154815250509050919050565b600154600003610d295760405163afb0be3360e01b815260040160405180910390fd5b6005547f00000000000000000000000000000000000000000000000000000000000000008103610d8e5760405163fd20861560e01b81527f000000000000000000000000000000000000000000000000000000000000000060048201526024016107cb565b60405163ef0e239b60e01b8152600481018390526000907f00000000000000000000000000000000000000000000000000000000000000006001600160a01b03169063ef0e239b90602401600060405180830381865afa158015610df6573d6000803e3d6000fd5b505050506040513d6000823e601f3d908101601f19168201604052610e1e9190810190612310565b9050806080015163ffffffff167f000000000000000000000000000000000000000000000000000000000000000014610e6d57604051637ad404bf60e11b8152600481018490526024016107cb565b7f000000000000000000000000000000000000000000000000000000000000000015801590610ec0575080604001517f000000000000000000000000000000000000000000000000000000000000000014155b15610ee157604051637ad404bf60e11b8152600481018490526024016107cb565b60007f0000000000000000000000000000000000000000000000000000000000000000118015610f3b5750806060015163ffffffff167f000000000000000000000000000000000000000000000000000000000000000014155b15610f5c57604051637ad404bf60e11b8152600481018490526024016107cb565b60048160c001516005811115610f7457610f746123ee565b14610fb3578060c001516005811115610f8f57610f8f6123ee565b604051633c053f9d60e21b81526004810191909152602481018490526044016107cb565b600081602001516001600160a01b0316803b806020016040519081016040528181526000908060200190933c805190602001209050807f00000000000000000000000000000000000000000000000000000000000000001461103857602082015160405162a2307960e51b81526001600160a01b0390911660048201526024016107cb565b60035480156111095760e08301515181811461106a57604051637ad404bf60e11b8152600481018790526024016107cb565b60005b81811015611106578460e00151818151811061108b5761108b612134565b602002602001015163ffffffff16600382815481106110ac576110ac612134565b9060005260206000200154146110f657600381815481106110cf576110cf612134565b9060005260206000200154604051632ab10b0b60e21b81526004016107cb91815260200190565b6110ff8161214a565b905061106d565b50505b6111258584600001516bffffffffffffffffffffffff16611aca565b600085815260046020908152604082209085015181546001600160a01b03821673ffffffffffffffffffffffffffffffffffffffff199182161783556001830180549091163317905590919061117a90611b38565b80519091506111929060028401906020840190611e34565b50426003830155600580546001810182556000919091527f036b6384b5eca791c62761152d0c79bb0604c104a5fb6f4eb0703f3154bb3db001879055604051632142170760e11b8152336004820152306024820152604481018890527f00000000000000000000000000000000000000000000000000000000000000006001600160a01b0316906342842e0e90606401600060405180830381600087803b15801561123c57600080fd5b505af1158015611250573d6000803e3d6000fd5b5050505084602001516001600160a01b0316336001600160a01b0316887f5d43ac9b1b213902df90d405b0006308578486b6c62182c5df202ed572c844e48460405161129c9190612022565b60405180910390a450505050505050565b606060038054806020026020016040519081016040528092919081815260200182805480156112fb57602002820191906000526020600020905b8154815260200190600101908083116112e7575b5050505050905090565b606080600060608060008060008060008060008061132161174b565b96509650965096509650965096506000861115611525576000878611156114945760008060015b898110156113e657888b88838151811061136457611364612134565b602002602001015161137691906121b1565b61138091906121c8565b925061138c8383611eaa565b91508781815181106113a0576113a0612134565b60200260200101519350826004600086815260200190815260200160002060040160008282546113d09190611eaa565b909155506113df90508161214a565b9050611348565b50878a876000815181106113fc576113fc612134565b602002602001015161140e91906121b1565b61141891906121c8565b91506114248282611eaa565b90508660008151811061143957611439612134565b60200260200101519250808a111561146257611455818b612163565b61145f9083611eaa565b91505b60008381526004602081905260408220018054849290611483908490611eaa565b9091555060009a5061151e92505050565b60005b87811015611510578581815181106114b1576114b1612134565b602002602001015191508481815181106114cd576114cd612134565b60200260200101516004600084815260200190815260200160002060040160008282546114fa9190611eaa565b9091555061150990508161214a565b9050611497565b5061151b8689612163565b97505b5060018790555b8051156115ef5760005b82518110156115ac57600083828151811061154c5761154c612134565b6020026020010151905082828151811061156857611568612134565b6020026020010151600460008381526020019081526020016000206002019080519060200190611599929190611e34565b5050806115a59061214a565b905061152f565b50426002556040805188815260208101889052600199507f21d81d5d656869e8ce3ba8d65526a2f0dbbcd3d36f5f9999eb7c84360e45eced910160405180910390a15b909c909b509399509097509550929350915050565b60058181548110610a7057600080fd5b606060058054806020026020016040519081016040528092919081815260200182805480156112fb57602002820191906000526020600020908154815260200190600101908083116112e7575050505050905090565b60007f000000000000000000000000000000000000000000000000000000000000000060025461169a9190611eaa565b905090565b806000808282546116b09190612163565b90915550506040516000906001600160a01b0384169083908381818185875af1925050503d8060008114611700576040519150601f19603f3d011682016040523d82523d6000602084013e611705565b606091505b50509050806117465760405163cd3f165960e01b8152600060048201523060248201526001600160a01b0384166044820152606481018390526084016107cb565b505050565b6002546001549060009081906060908190819081907f000000000000000000000000000000000000000000000000000000000000000061178b8242612163565b101580156117995750600088115b15611ac0576005548067ffffffffffffffff8111156117ba576117ba6121ea565b6040519080825280602002602001820160405280156117e3578160200160208202803683370190505b5093508067ffffffffffffffff8111156117ff576117ff6121ea565b604051908082528060200260200182016040528015611828578160200160208202803683370190505b5095508067ffffffffffffffff811115611844576118446121ea565b60405190808252806020026020018201604052801561186d578160200160208202803683370190505b5094508067ffffffffffffffff811115611889576118896121ea565b6040519080825280602002602001820160405280156118bc57816020015b60608152602001906001900390816118a75790505b50925060005b81811015611abd57600581815481106118dd576118dd612134565b90600052602060002001548582815181106118fa576118fa612134565b60200260200101818152505060006004600087848151811061191e5761191e612134565b6020908102919091018101518252810191909152604001600020805490915061194f906001600160a01b0316611b38565b85838151811061196157611961612134565b6020908102919091010152600381015484908181111561197f578091505b6119898242612163565b90506000611a038886815181106119a2576119a2612134565b6020026020010151856002018054806020026020016040519081016040528092919081815260200182805480156119f857602002820191906000526020600020905b8154815260200190600101908083116119e4575b505050505084611b49565b90508015611aa8576000611a37837f00000000000000000000000000000000000000000000000000000000000000006121b1565b9050611a43818e611eaa565b9c50808b8f81518110611a5857611a58612134565b602002602001018181525050898681518110611a7657611a76612134565b60200260200101518c8f81518110611a9057611a90612134565b6020908102919091010152611aa48e61214a565b9d50505b5050505080611ab69061214a565b90506118c2565b50505b5090919293949596565b7f0000000000000000000000000000000000000000000000000000000000000000811015611b345760405163491a2bb160e01b8152600481018290527f000000000000000000000000000000000000000000000000000000000000000060248201526044016107cb565b5050565b6060611b4382611b5e565b92915050565b6000611b56848484611cac565b949350505050565b6040805160028082526060808301845292602083019080368337019050509050816001600160a01b031663affed0e06040518163ffffffff1660e01b8152600401602060405180830381865afa158015611bbc573d6000803e3d6000fd5b505050506040513d601f19601f82011682018060405250810190611be09190612404565b81600081518110611bf357611bf3612134565b6020908102919091010152604051637af7347360e01b81526001600160a01b0383811660048301527f00000000000000000000000000000000000000000000000000000000000000001690637af7347390602401602060405180830381865afa158015611c64573d6000803e3d6000fd5b505050506040513d601f19601f82011682018060405250810190611c889190612404565b81600181518110611c9b57611c9b612134565b602002602001018181525050919050565b60008082118015611cf0575082600081518110611ccb57611ccb612134565b602002602001015184600081518110611ce657611ce6612134565b6020026020010151115b8015611d2f575082600181518110611d0a57611d0a612134565b602002602001015184600181518110611d2557611d25612134565b6020026020010151115b15611e0c57600083600081518110611d4957611d49612134565b602002602001015185600081518110611d6457611d64612134565b6020026020010151611d769190612163565b9050600084600181518110611d8d57611d8d612134565b602002602001015186600181518110611da857611da8612134565b6020026020010151611dba9190612163565b9050818111611e0957600084611dd883670de0b6b3a76400006121b1565b611de291906121c8565b7f000000000000000000000000000000000000000000000000000000000000000011159350505b50505b9392505050565b5080546000825590600052602060002090810190611e319190611e7f565b50565b828054828255906000526020600020908101928215611e6f579160200282015b82811115611e6f578251825591602001919060010190611e54565b50611e7b929150611e7f565b5090565b5b80821115611e7b5760008155600101611e80565b634e487b7160e01b600052601160045260246000fd5b80820180821115611b4357611b43611e94565b6001600160a01b0381168114611e3157600080fd5b600080600080600060808688031215611eea57600080fd5b8535611ef581611ebd565b94506020860135611f0581611ebd565b935060408601359250606086013567ffffffffffffffff80821115611f2957600080fd5b818801915088601f830112611f3d57600080fd5b813581811115611f4c57600080fd5b896020828501011115611f5e57600080fd5b9699959850939650602001949392505050565b600060208284031215611f8357600080fd5b5035919050565b600081518084526020808501945080840160005b83811015611fba57815187529582019590820190600101611f9e565b509495945050505050565b6020815260006001600160a01b0380845116602084015280602085015116604084015250604083015160a0606084015261200260c0840182611f8a565b905060608401516080840152608084015160a08401528091505092915050565b602081526000611e0c6020830184611f8a565b60c08152600061204860c0830189611f8a565b6020838203818501528189518084528284019150828160051b850101838c0160005b8381101561209857601f19878403018552612086838351611f8a565b9486019492509085019060010161206a565b50508a604088015286810360608801526120b2818b611f8a565b94505050505082810360808401526120ca8186611f8a565b9150506120db60a083018415159052565b979650505050505050565b600060208083528351808285015260005b81811015612113578581018301518582016040015282016120f7565b506000604082860101526040601f19601f8301168501019250505092915050565b634e487b7160e01b600052603260045260246000fd5b60006001820161215c5761215c611e94565b5060010190565b81810381811115611b4357611b43611e94565b634e487b7160e01b600052603160045260246000fd5b60608152600061219f6060830186611f8a565b60208301949094525060400152919050565b8082028115828204841417611b4357611b43611e94565b6000826121e557634e487b7160e01b600052601260045260246000fd5b500490565b634e487b7160e01b600052604160045260246000fd5b604051610100810167ffffffffffffffff81118282101715612224576122246121ea565b60405290565b80516bffffffffffffffffffffffff8116811461224657600080fd5b919050565b805161224681611ebd565b805163ffffffff8116811461224657600080fd5b80516006811061224657600080fd5b600082601f83011261228a57600080fd5b8151602067ffffffffffffffff808311156122a7576122a76121ea565b8260051b604051601f19603f830116810181811084821117156122cc576122cc6121ea565b6040529384528581018301938381019250878511156122ea57600080fd5b83870191505b848210156120db5761230182612256565b835291830191908301906122f0565b60006020828403121561232257600080fd5b815167ffffffffffffffff8082111561233a57600080fd5b90830190610100828603121561234f57600080fd5b612357612200565b6123608361222a565b815261236e6020840161224b565b60208201526040830151604082015261238960608401612256565b606082015261239a60808401612256565b60808201526123ab60a08401612256565b60a08201526123bc60c0840161226a565b60c082015260e0830151828111156123d357600080fd5b6123df87828601612279565b60e08301525095945050505050565b634e487b7160e01b600052602160045260246000fd5b60006020828403121561241657600080fd5b505191905056fea2646970667358221220d0ed0dbf857d059581672cadbd30f4756de4459e1f5997713e8c9fd73eb26dff64736f6c63430008150033",
  "linkReferences": {},
  "deployedLinkReferences": {}
}