{
  "_format": "hh-sol-artifact-1",
  "contractName": "ServiceStakingTokenMechUsage",
  "sourceName": "contracts/mech_usage/ServiceStakingTokenMechUsage.sol",
  "abi": [
    {
      "inputs": [
        {
          "components": [
            {
              "internalType": "uint256",
              "name": "maxNumServices",
              "type": "uint256"
            },
            {
              "internalType": "uint256",
              "name": "rewardsPerSecond",
              "type": "uint256"
            },
            {
              "internalType": "uint256",
              "name": "minStakingDeposit",
              "type": "uint256"
            },
            {
              "internalType": "uint256",
              "name": "minNumStakingPeriods",
              "type": "uint256"
            },
            {
              "internalType": "uint256",
              "name": "maxNumInactivityPeriods",
              "type": "uint256"
            },
            {
              "internalType": "uint256",
              "name": "livenessPeriod",
              "type": "uint256"
            },
            {
              "internalType": "uint256",
              "name": "livenessRatio",
              "type": "uint256"
            },
            {
              "internalType": "uint256",
              "name": "numAgentInstances",
              "type": "uint256"
            },
            {
              "internalType": "uint256[]",
              "name": "agentIds",
              "type": "uint256[]"
            },
            {
              "internalType": "uint256",
              "name": "threshold",
              "type": "uint256"
            },
            {
              "internalType": "bytes32",
              "name": "configHash",
              "type": "bytes32"
            }
          ],
          "internalType": "struct ServiceStakingBase.StakingParams",
          "name": "_stakingParams",
          "type": "tuple"
        },
        {
          "internalType": "address",
          "name": "_serviceRegistry",
          "type": "address"
        },
        {
          "internalType": "address",
          "name": "_serviceRegistryTokenUtility",
          "type": "address"
        },
        {
          "internalType": "address",
          "name": "_stakingToken",
          "type": "address"
        },
        {
          "internalType": "bytes32",
          "name": "_proxyHash",
          "type": "bytes32"
        },
        {
          "internalType": "address",
          "name": "_agentMech",
          "type": "address"
        }
      ],
      "stateMutability": "nonpayable",
      "type": "constructor"
    },
    {
      "inputs": [
        {
          "internalType": "address",
          "name": "operator",
          "type": "address"
        }
      ],
      "name": "AgentInstanceRegistered",
      "type": "error"
    },
    {
      "inputs": [
        {
          "internalType": "uint256",
          "name": "serviceId",
          "type": "uint256"
        }
      ],
      "name": "AgentInstancesSlotsFilled",
      "type": "error"
    },
    {
      "inputs": [
        {
          "internalType": "uint256",
          "name": "agentId",
          "type": "uint256"
        }
      ],
      "name": "AgentNotFound",
      "type": "error"
    },
    {
      "inputs": [
        {
          "internalType": "uint256",
          "name": "agentId",
          "type": "uint256"
        },
        {
          "internalType": "uint256",
          "name": "serviceId",
          "type": "uint256"
        }
      ],
      "name": "AgentNotInService",
      "type": "error"
    },
    {
      "inputs": [
        {
          "internalType": "uint256",
          "name": "componentId",
          "type": "uint256"
        }
      ],
      "name": "ComponentNotFound",
      "type": "error"
    },
    {
      "inputs": [],
      "name": "HashExists",
      "type": "error"
    },
    {
      "inputs": [
        {
          "internalType": "uint256",
          "name": "sent",
          "type": "uint256"
        },
        {
          "internalType": "uint256",
          "name": "expected",
          "type": "uint256"
        },
        {
          "internalType": "uint256",
          "name": "serviceId",
          "type": "uint256"
        }
      ],
      "name": "IncorrectAgentBondingValue",
      "type": "error"
    },
    {
      "inputs": [
        {
          "internalType": "uint256",
          "name": "sent",
          "type": "uint256"
        },
        {
          "internalType": "uint256",
          "name": "expected",
          "type": "uint256"
        },
        {
          "internalType": "uint256",
          "name": "serviceId",
          "type": "uint256"
        }
      ],
      "name": "IncorrectRegistrationDepositValue",
      "type": "error"
    },
    {
      "inputs": [
        {
          "internalType": "uint256",
          "name": "provided",
          "type": "uint256"
        },
        {
          "internalType": "uint256",
          "name": "expected",
          "type": "uint256"
        }
      ],
      "name": "LowerThan",
      "type": "error"
    },
    {
      "inputs": [
        {
          "internalType": "address",
          "name": "sender",
          "type": "address"
        },
        {
          "internalType": "address",
          "name": "manager",
          "type": "address"
        }
      ],
      "name": "ManagerOnly",
      "type": "error"
    },
    {
      "inputs": [
        {
          "internalType": "uint256",
          "name": "maxNumServices",
          "type": "uint256"
        }
      ],
      "name": "MaxNumServicesReached",
      "type": "error"
    },
    {
      "inputs": [],
      "name": "NoRewardsAvailable",
      "type": "error"
    },
    {
      "inputs": [
        {
          "internalType": "uint256",
          "name": "serviceId",
          "type": "uint256"
        },
        {
          "internalType": "uint256",
          "name": "tsProvided",
          "type": "uint256"
        },
        {
          "internalType": "uint256",
          "name": "tsExpected",
          "type": "uint256"
        }
      ],
      "name": "NotEnoughTimeStaked",
      "type": "error"
    },
    {
      "inputs": [
        {
          "internalType": "address",
          "name": "provided",
          "type": "address"
        },
        {
          "internalType": "address",
          "name": "expected",
          "type": "address"
        },
        {
          "internalType": "uint256",
          "name": "serviceId",
          "type": "uint256"
        }
      ],
      "name": "OnlyOwnServiceMultisig",
      "type": "error"
    },
    {
      "inputs": [
        {
          "internalType": "address",
          "name": "operator",
          "type": "address"
        },
        {
          "internalType": "uint256",
          "name": "serviceId",
          "type": "uint256"
        }
      ],
      "name": "OperatorHasNoInstances",
      "type": "error"
    },
    {
      "inputs": [
        {
          "internalType": "uint256",
          "name": "provided",
          "type": "uint256"
        },
        {
          "internalType": "uint256",
          "name": "max",
          "type": "uint256"
        }
      ],
      "name": "Overflow",
      "type": "error"
    },
    {
      "inputs": [
        {
          "internalType": "address",
          "name": "sender",
          "type": "address"
        },
        {
          "internalType": "address",
          "name": "owner",
          "type": "address"
        }
      ],
      "name": "OwnerOnly",
      "type": "error"
    },
    {
      "inputs": [],
      "name": "Paused",
      "type": "error"
    },
    {
      "inputs": [],
      "name": "ReentrancyGuard",
      "type": "error"
    },
    {
      "inputs": [
        {
          "internalType": "uint256",
          "name": "serviceId",
          "type": "uint256"
        }
      ],
      "name": "ServiceMustBeInactive",
      "type": "error"
    },
    {
      "inputs": [
        {
          "internalType": "uint256",
          "name": "serviceId",
          "type": "uint256"
        }
      ],
      "name": "ServiceNotUnstaked",
      "type": "error"
    },
    {
      "inputs": [
        {
          "internalType": "address",
          "name": "token",
          "type": "address"
        },
        {
          "internalType": "address",
          "name": "from",
          "type": "address"
        },
        {
          "internalType": "address",
          "name": "to",
          "type": "address"
        },
        {
          "internalType": "uint256",
          "name": "value",
          "type": "uint256"
        }
      ],
      "name": "TokenTransferFailed",
      "type": "error"
    },
    {
      "inputs": [
        {
          "internalType": "address",
          "name": "token",
          "type": "address"
        },
        {
          "internalType": "address",
          "name": "from",
          "type": "address"
        },
        {
          "internalType": "address",
          "name": "to",
          "type": "address"
        },
        {
          "internalType": "uint256",
          "name": "value",
          "type": "uint256"
        }
      ],
      "name": "TransferFailed",
      "type": "error"
    },
    {
      "inputs": [
        {
          "internalType": "address",
          "name": "multisig",
          "type": "address"
        }
      ],
      "name": "UnauthorizedMultisig",
      "type": "error"
    },
    {
      "inputs": [
        {
          "internalType": "uint256",
          "name": "provided",
          "type": "uint256"
        },
        {
          "internalType": "uint256",
          "name": "expected",
          "type": "uint256"
        }
      ],
      "name": "ValueLowerThan",
      "type": "error"
    },
    {
      "inputs": [
        {
          "internalType": "uint256",
          "name": "agentId",
          "type": "uint256"
        }
      ],
      "name": "WrongAgentId",
      "type": "error"
    },
    {
      "inputs": [
        {
          "internalType": "uint256",
          "name": "numValues1",
          "type": "uint256"
        },
        {
          "internalType": "uint256",
          "name": "numValues2",
          "type": "uint256"
        }
      ],
      "name": "WrongArrayLength",
      "type": "error"
    },
    {
      "inputs": [
        {
          "internalType": "uint256",
          "name": "serviceId",
          "type": "uint256"
        }
      ],
      "name": "WrongOperator",
      "type": "error"
    },
    {
      "inputs": [
        {
          "internalType": "uint256",
          "name": "serviceId",
          "type": "uint256"
        }
      ],
      "name": "WrongServiceConfiguration",
      "type": "error"
    },
    {
      "inputs": [
        {
          "internalType": "uint256",
          "name": "state",
          "type": "uint256"
        },
        {
          "internalType": "uint256",
          "name": "serviceId",
          "type": "uint256"
        }
      ],
      "name": "WrongServiceState",
      "type": "error"
    },
    {
      "inputs": [
        {
          "internalType": "address",
          "name": "expected",
          "type": "address"
        },
        {
          "internalType": "address",
          "name": "provided",
          "type": "address"
        }
      ],
      "name": "WrongStakingToken",
      "type": "error"
    },
    {
      "inputs": [
        {
          "internalType": "uint256",
          "name": "currentThreshold",
          "type": "uint256"
        },
        {
          "internalType": "uint256",
          "name": "minThreshold",
          "type": "uint256"
        },
        {
          "internalType": "uint256",
          "name": "maxThreshold",
          "type": "uint256"
        }
      ],
      "name": "WrongThreshold",
      "type": "error"
    },
    {
      "inputs": [],
      "name": "ZeroAddress",
      "type": "error"
    },
    {
      "inputs": [],
      "name": "ZeroMechAgentAddress",
      "type": "error"
    },
    {
      "inputs": [],
      "name": "ZeroValue",
      "type": "error"
    },
    {
      "anonymous": false,
      "inputs": [
        {
          "indexed": true,
          "internalType": "uint256",
          "name": "epoch",
          "type": "uint256"
        },
        {
          "indexed": false,
          "internalType": "uint256",
          "name": "availableRewards",
          "type": "uint256"
        },
        {
          "indexed": false,
          "internalType": "uint256[]",
          "name": "serviceIds",
          "type": "uint256[]"
        },
        {
          "indexed": false,
          "internalType": "uint256[]",
          "name": "rewards",
          "type": "uint256[]"
        }
      ],
      "name": "Checkpoint",
      "type": "event"
    },
    {
      "anonymous": false,
      "inputs": [
        {
          "indexed": true,
          "internalType": "address",
          "name": "sender",
          "type": "address"
        },
        {
          "indexed": false,
          "internalType": "uint256",
          "name": "amount",
          "type": "uint256"
        },
        {
          "indexed": false,
          "internalType": "uint256",
          "name": "balance",
          "type": "uint256"
        },
        {
          "indexed": false,
          "internalType": "uint256",
          "name": "availableRewards",
          "type": "uint256"
        }
      ],
      "name": "Deposit",
      "type": "event"
    },
    {
      "anonymous": false,
      "inputs": [
        {
          "indexed": false,
          "internalType": "uint256",
          "name": "epoch",
          "type": "uint256"
        },
        {
          "indexed": true,
          "internalType": "uint256",
          "name": "serviceId",
          "type": "uint256"
        },
        {
          "indexed": true,
          "internalType": "address",
          "name": "owner",
          "type": "address"
        },
        {
          "indexed": true,
          "internalType": "address",
          "name": "multisig",
          "type": "address"
        },
        {
          "indexed": false,
          "internalType": "uint256[]",
          "name": "nonces",
          "type": "uint256[]"
        }
      ],
      "name": "ServiceStaked",
      "type": "event"
    },
    {
      "anonymous": false,
      "inputs": [
        {
          "indexed": false,
          "internalType": "uint256",
          "name": "epoch",
          "type": "uint256"
        },
        {
          "indexed": true,
          "internalType": "uint256",
          "name": "serviceId",
          "type": "uint256"
        },
        {
          "indexed": true,
          "internalType": "address",
          "name": "owner",
          "type": "address"
        },
        {
          "indexed": true,
          "internalType": "address",
          "name": "multisig",
          "type": "address"
        },
        {
          "indexed": false,
          "internalType": "uint256[]",
          "name": "nonces",
          "type": "uint256[]"
        },
        {
          "indexed": false,
          "internalType": "uint256",
          "name": "reward",
          "type": "uint256"
        }
      ],
      "name": "ServiceUnstaked",
      "type": "event"
    },
    {
      "anonymous": false,
      "inputs": [
        {
          "indexed": true,
          "internalType": "uint256",
          "name": "epoch",
          "type": "uint256"
        },
        {
          "indexed": false,
          "internalType": "uint256[]",
          "name": "serviceIds",
          "type": "uint256[]"
        },
        {
          "indexed": false,
          "internalType": "address[]",
          "name": "owners",
          "type": "address[]"
        },
        {
          "indexed": false,
          "internalType": "address[]",
          "name": "multisigs",
          "type": "address[]"
        },
        {
          "indexed": false,
          "internalType": "uint256[]",
          "name": "serviceInactivity",
          "type": "uint256[]"
        }
      ],
      "name": "ServicesEvicted",
      "type": "event"
    },
    {
      "anonymous": false,
      "inputs": [
        {
          "indexed": true,
          "internalType": "address",
          "name": "to",
          "type": "address"
        },
        {
          "indexed": false,
          "internalType": "uint256",
          "name": "amount",
          "type": "uint256"
        }
      ],
      "name": "Withdraw",
      "type": "event"
    },
    {
      "inputs": [],
      "name": "VERSION",
      "outputs": [
        {
          "internalType": "string",
          "name": "",
          "type": "string"
        }
      ],
      "stateMutability": "view",
      "type": "function"
    },
    {
      "inputs": [
        {
          "internalType": "uint256",
          "name": "",
          "type": "uint256"
        }
      ],
      "name": "agentIds",
      "outputs": [
        {
          "internalType": "uint256",
          "name": "",
          "type": "uint256"
        }
      ],
      "stateMutability": "view",
      "type": "function"
    },
    {
      "inputs": [],
      "name": "agentMech",
      "outputs": [
        {
          "internalType": "address",
          "name": "",
          "type": "address"
        }
      ],
      "stateMutability": "view",
      "type": "function"
    },
    {
      "inputs": [],
      "name": "availableRewards",
      "outputs": [
        {
          "internalType": "uint256",
          "name": "",
          "type": "uint256"
        }
      ],
      "stateMutability": "view",
      "type": "function"
    },
    {
      "inputs": [],
      "name": "balance",
      "outputs": [
        {
          "internalType": "uint256",
          "name": "",
          "type": "uint256"
        }
      ],
      "stateMutability": "view",
      "type": "function"
    },
    {
      "inputs": [
        {
          "internalType": "uint256",
          "name": "serviceId",
          "type": "uint256"
        }
      ],
      "name": "calculateServiceStakingLastReward",
      "outputs": [
        {
          "internalType": "uint256",
          "name": "reward",
          "type": "uint256"
        }
      ],
      "stateMutability": "view",
      "type": "function"
    },
    {
      "inputs": [
        {
          "internalType": "uint256",
          "name": "serviceId",
          "type": "uint256"
        }
      ],
      "name": "calculateServiceStakingReward",
      "outputs": [
        {
          "internalType": "uint256",
          "name": "reward",
          "type": "uint256"
        }
      ],
      "stateMutability": "view",
      "type": "function"
    },
    {
      "inputs": [],
      "name": "checkpoint",
      "outputs": [
        {
          "internalType": "uint256[]",
          "name": "",
          "type": "uint256[]"
        },
        {
          "internalType": "uint256[][]",
          "name": "",
          "type": "uint256[][]"
        },
        {
          "internalType": "uint256[]",
          "name": "",
          "type": "uint256[]"
        },
        {
          "internalType": "uint256[]",
          "name": "",
          "type": "uint256[]"
        },
        {
          "internalType": "uint256[]",
          "name": "evictServiceIds",
          "type": "uint256[]"
        }
      ],
      "stateMutability": "nonpayable",
      "type": "function"
    },
    {
      "inputs": [],
      "name": "configHash",
      "outputs": [
        {
          "internalType": "bytes32",
          "name": "",
          "type": "bytes32"
        }
      ],
      "stateMutability": "view",
      "type": "function"
    },
    {
      "inputs": [
        {
          "internalType": "uint256",
          "name": "amount",
          "type": "uint256"
        }
      ],
      "name": "deposit",
      "outputs": [],
      "stateMutability": "nonpayable",
      "type": "function"
    },
    {
      "inputs": [],
      "name": "epochCounter",
      "outputs": [
        {
          "internalType": "uint256",
          "name": "",
          "type": "uint256"
        }
      ],
      "stateMutability": "view",
      "type": "function"
    },
    {
      "inputs": [],
      "name": "getAgentIds",
      "outputs": [
        {
          "internalType": "uint256[]",
          "name": "",
          "type": "uint256[]"
        }
      ],
      "stateMutability": "view",
      "type": "function"
    },
    {
      "inputs": [],
      "name": "getNextRewardCheckpointTimestamp",
      "outputs": [
        {
          "internalType": "uint256",
          "name": "tsNext",
          "type": "uint256"
        }
      ],
      "stateMutability": "view",
      "type": "function"
    },
    {
      "inputs": [],
      "name": "getServiceIds",
      "outputs": [
        {
          "internalType": "uint256[]",
          "name": "",
          "type": "uint256[]"
        }
      ],
      "stateMutability": "view",
      "type": "function"
    },
    {
      "inputs": [
        {
          "internalType": "uint256",
          "name": "serviceId",
          "type": "uint256"
        }
      ],
      "name": "getServiceInfo",
      "outputs": [
        {
          "components": [
            {
              "internalType": "address",
              "name": "multisig",
              "type": "address"
            },
            {
              "internalType": "address",
              "name": "owner",
              "type": "address"
            },
            {
              "internalType": "uint256[]",
              "name": "nonces",
              "type": "uint256[]"
            },
            {
              "internalType": "uint256",
              "name": "tsStart",
              "type": "uint256"
            },
            {
              "internalType": "uint256",
              "name": "reward",
              "type": "uint256"
            },
            {
              "internalType": "uint256",
              "name": "inactivity",
              "type": "uint256"
            }
          ],
          "internalType": "struct ServiceInfo",
          "name": "sInfo",
          "type": "tuple"
        }
      ],
      "stateMutability": "view",
      "type": "function"
    },
    {
      "inputs": [
        {
          "internalType": "uint256",
          "name": "serviceId",
          "type": "uint256"
        }
      ],
      "name": "getServiceStakingState",
      "outputs": [
        {
          "internalType": "enum ServiceStakingBase.ServiceStakingState",
          "name": "stakingState",
          "type": "uint8"
        }
      ],
      "stateMutability": "view",
      "type": "function"
    },
    {
      "inputs": [],
      "name": "livenessPeriod",
      "outputs": [
        {
          "internalType": "uint256",
          "name": "",
          "type": "uint256"
        }
      ],
      "stateMutability": "view",
      "type": "function"
    },
    {
      "inputs": [],
      "name": "livenessRatio",
      "outputs": [
        {
          "internalType": "uint256",
          "name": "",
          "type": "uint256"
        }
      ],
      "stateMutability": "view",
      "type": "function"
    },
    {
      "inputs": [
        {
          "internalType": "uint256",
          "name": "",
          "type": "uint256"
        }
      ],
      "name": "mapServiceInfo",
      "outputs": [
        {
          "internalType": "address",
          "name": "multisig",
          "type": "address"
        },
        {
          "internalType": "address",
          "name": "owner",
          "type": "address"
        },
        {
          "internalType": "uint256",
          "name": "tsStart",
          "type": "uint256"
        },
        {
          "internalType": "uint256",
          "name": "reward",
          "type": "uint256"
        },
        {
          "internalType": "uint256",
          "name": "inactivity",
          "type": "uint256"
        }
      ],
      "stateMutability": "view",
      "type": "function"
    },
    {
      "inputs": [],
      "name": "maxInactivityDuration",
      "outputs": [
        {
          "internalType": "uint256",
          "name": "",
          "type": "uint256"
        }
      ],
      "stateMutability": "view",
      "type": "function"
    },
    {
      "inputs": [],
      "name": "maxNumInactivityPeriods",
      "outputs": [
        {
          "internalType": "uint256",
          "name": "",
          "type": "uint256"
        }
      ],
      "stateMutability": "view",
      "type": "function"
    },
    {
      "inputs": [],
      "name": "maxNumServices",
      "outputs": [
        {
          "internalType": "uint256",
          "name": "",
          "type": "uint256"
        }
      ],
      "stateMutability": "view",
      "type": "function"
    },
    {
      "inputs": [],
      "name": "minStakingDeposit",
      "outputs": [
        {
          "internalType": "uint256",
          "name": "",
          "type": "uint256"
        }
      ],
      "stateMutability": "view",
      "type": "function"
    },
    {
      "inputs": [],
      "name": "minStakingDuration",
      "outputs": [
        {
          "internalType": "uint256",
          "name": "",
          "type": "uint256"
        }
      ],
      "stateMutability": "view",
      "type": "function"
    },
    {
      "inputs": [],
      "name": "numAgentInstances",
      "outputs": [
        {
          "internalType": "uint256",
          "name": "",
          "type": "uint256"
        }
      ],
      "stateMutability": "view",
      "type": "function"
    },
    {
      "inputs": [
        {
          "internalType": "address",
          "name": "",
          "type": "address"
        },
        {
          "internalType": "address",
          "name": "",
          "type": "address"
        },
        {
          "internalType": "uint256",
          "name": "",
          "type": "uint256"
        },
        {
          "internalType": "bytes",
          "name": "",
          "type": "bytes"
        }
      ],
      "name": "onERC721Received",
      "outputs": [
        {
          "internalType": "bytes4",
          "name": "",
          "type": "bytes4"
        }
      ],
      "stateMutability": "nonpayable",
      "type": "function"
    },
    {
      "inputs": [],
      "name": "proxyHash",
      "outputs": [
        {
          "internalType": "bytes32",
          "name": "",
          "type": "bytes32"
        }
      ],
      "stateMutability": "view",
      "type": "function"
    },
    {
      "inputs": [],
      "name": "rewardsPerSecond",
      "outputs": [
        {
          "internalType": "uint256",
          "name": "",
          "type": "uint256"
        }
      ],
      "stateMutability": "view",
      "type": "function"
    },
    {
      "inputs": [],
      "name": "serviceRegistry",
      "outputs": [
        {
          "internalType": "address",
          "name": "",
          "type": "address"
        }
      ],
      "stateMutability": "view",
      "type": "function"
    },
    {
      "inputs": [],
      "name": "serviceRegistryTokenUtility",
      "outputs": [
        {
          "internalType": "address",
          "name": "",
          "type": "address"
        }
      ],
      "stateMutability": "view",
      "type": "function"
    },
    {
      "inputs": [
        {
          "internalType": "uint256",
          "name": "",
          "type": "uint256"
        }
      ],
      "name": "setServiceIds",
      "outputs": [
        {
          "internalType": "uint256",
          "name": "",
          "type": "uint256"
        }
      ],
      "stateMutability": "view",
      "type": "function"
    },
    {
      "inputs": [
        {
          "internalType": "uint256",
          "name": "serviceId",
          "type": "uint256"
        }
      ],
      "name": "stake",
      "outputs": [],
      "stateMutability": "nonpayable",
      "type": "function"
    },
    {
      "inputs": [],
      "name": "stakingToken",
      "outputs": [
        {
          "internalType": "address",
          "name": "",
          "type": "address"
        }
      ],
      "stateMutability": "view",
      "type": "function"
    },
    {
      "inputs": [],
      "name": "threshold",
      "outputs": [
        {
          "internalType": "uint256",
          "name": "",
          "type": "uint256"
        }
      ],
      "stateMutability": "view",
      "type": "function"
    },
    {
      "inputs": [],
      "name": "tsCheckpoint",
      "outputs": [
        {
          "internalType": "uint256",
          "name": "",
          "type": "uint256"
        }
      ],
      "stateMutability": "view",
      "type": "function"
    },
    {
      "inputs": [
        {
          "internalType": "uint256",
          "name": "serviceId",
          "type": "uint256"
        }
      ],
      "name": "unstake",
      "outputs": [],
      "stateMutability": "nonpayable",
      "type": "function"
    }
  ],
  "bytecode": "0x6102806040523480156200001257600080fd5b50604051620040123803806200401283398101604081905262000035916200048f565b8086868686868484828260000151600014806200005457506020830151155b8062000062575060a0830151155b8062000070575060c0830151155b806200007e575060e0830151155b806200008c57506060830151155b806200009a57506080830151155b15620000b957604051637c946ed760e01b815260040160405180910390fd5b826080015183606001511015620000fb576060830151608084015160405163491a2bb160e01b8152600481019290925260248201526044015b60405180910390fd5b6002836040015110156200013357604080840151905163491a2bb160e01b8152600481019190915260026024820152604401620000f2565b6001600160a01b0382166200015b5760405163d92e233d60e01b815260040160405180910390fd5b82516080908152602084015160a0908152604085015160c09081529185015160e0908152908501516101005290840151610120908152908401516101409081526001600160a01b0384166101a0529084015161016052830151610180526000805b846101000151518110156200029857818561010001518281518110620001e657620001e6620005c3565b602002602001015111620002335784610100015181815181106200020e576200020e620005c3565b6020026020010151604051632ab10b0b60e21b8152600401620000f291815260200190565b84610100015181815181106200024d576200024d620005c3565b602090810291909101015160048054600181810183556000929092527f8a35acfbc15ff81a39ae7d344fd709f28e8600b4aa8c65c6b64bfe7fe36bd19b0182905590925001620001bc565b5081620002b857604051637c946ed760e01b815260040160405180910390fd5b6101c0829052610100516060850151620002d39190620005d9565b6101e052610100516080850151620002ec9190620005d9565b6102005250504260035550506001600160a01b03821615806200031657506001600160a01b038316155b15620003355760405163d92e233d60e01b815260040160405180910390fd5b506001600160a01b039081166102405290811661022052831691506200036f90505760405162ca95f960e81b815260040160405180910390fd5b6001600160a01b0316610260525062000605945050505050565b634e487b7160e01b600052604160045260246000fd5b60405161016081016001600160401b0381118282101715620003c557620003c562000389565b60405290565b600082601f830112620003dd57600080fd5b815160206001600160401b0380831115620003fc57620003fc62000389565b8260051b604051601f19603f8301168101818110848211171562000424576200042462000389565b60405293845260208187018101949081019250878511156200044557600080fd5b6020870191505b8482101562000467578151835291830191908301906200044c565b979650505050505050565b80516001600160a01b03811681146200048a57600080fd5b919050565b60008060008060008060c08789031215620004a957600080fd5b86516001600160401b0380821115620004c157600080fd5b90880190610160828b031215620004d757600080fd5b620004e16200039f565b825181526020830151602082015260408301516040820152606083015160608201526080830151608082015260a083015160a082015260c083015160c082015260e083015160e082015261010080840151838111156200054057600080fd5b6200054e8d828701620003cb565b918301919091525061012083810151908201526101409283015192810192909252509550620005806020880162000472565b9450620005906040880162000472565b9350620005a06060880162000472565b925060808701519150620005b760a0880162000472565b90509295509295509295565b634e487b7160e01b600052603260045260246000fd5b8082028115828204841417620005ff57634e487b7160e01b600052601160045260246000fd5b92915050565b60805160a05160c05160e05161010051610120516101405161016051610180516101a0516101c0516101e0516102005161022051610240516102605161389262000780600039600081816104790152612d760152600081816104520152818161162c01528181611f440152818161208e01526121050152600081816103390152818161200701526121ca01526000818161071001528181611bc80152611e440152600081816102660152818161081a01526108850152600081816104b3015261123c01526000818161065101528181610b2501528181610f5c01526114b90152600081816106780152818161106801526110970152600081816103a3015281816110f7015261112b015260008181610404015261100d01526000818161042b0152612f520152600081816103ca01528181611ef601526123d90152600061050301526000818161069f015261213c0152600081816106c601526126dc01526000818161031201528181610eb10152610efe01526138926000f3fe608060405234801561001057600080fd5b506004361061025c5760003560e01c8063a0ed60e011610145578063cbcf252a116100bd578063eb338c961161008c578063f4dce71411610071578063f4dce71414610703578063f86ad2b61461070b578063ffa1ad741461073257600080fd5b8063eb338c96146106e8578063f189e85a146106fb57600080fd5b8063cbcf252a1461064c578063e1f1176d14610673578063e77cdcc91461069a578063eacdaabc146106c157600080fd5b8063b69ef8a811610114578063c2c4c5c1116100f9578063c2c4c5c114610600578063c889921d14610619578063cae2a5f01461062c57600080fd5b8063b69ef8a8146105e4578063b6b55f25146105ed57600080fd5b8063a0ed60e0146104fe578063a694fc3a14610525578063a74466ad14610538578063b1508760146105cf57600080fd5b806356e76058116101d857806375af4b6d116101a7578063809cee2f1161018c578063809cee2f146104ae57806382a8ea58146104d5578063879d9090146104f557600080fd5b806375af4b6d1461047457806378e061361461049b57600080fd5b806356e76058146103ec5780635829c5ec146103ff578063592cf3fb1461042657806372f702f31461044d57600080fd5b8063287140511161022f5780633e732997116102145780633e7329971461039557806342cde4e81461039e57806352c824f5146103c557600080fd5b806328714051146103345780632e17de781461038057600080fd5b806308ae7e541461026157806314b19c5a1461029b578063150b7a02146102a457806316a751721461030d575b600080fd5b6102887f000000000000000000000000000000000000000000000000000000000000000081565b6040519081526020015b60405180910390f35b61028860005481565b6102dc6102b2366004613023565b7f150b7a020000000000000000000000000000000000000000000000000000000095945050505050565b6040517fffffffff000000000000000000000000000000000000000000000000000000009091168152602001610292565b6102887f000000000000000000000000000000000000000000000000000000000000000081565b61035b7f000000000000000000000000000000000000000000000000000000000000000081565b60405173ffffffffffffffffffffffffffffffffffffffff9091168152602001610292565b61039361038e3660046130c2565b61077b565b005b61028860035481565b6102887f000000000000000000000000000000000000000000000000000000000000000081565b6102887f000000000000000000000000000000000000000000000000000000000000000081565b6102886103fa3660046130c2565b610c0d565b6102887f000000000000000000000000000000000000000000000000000000000000000081565b6102887f000000000000000000000000000000000000000000000000000000000000000081565b61035b7f000000000000000000000000000000000000000000000000000000000000000081565b61035b7f000000000000000000000000000000000000000000000000000000000000000081565b6102886104a93660046130c2565b610c2e565b6102887f000000000000000000000000000000000000000000000000000000000000000081565b6104e86104e33660046130c2565b610d05565b6040516102929190613117565b61028860025481565b6102887f000000000000000000000000000000000000000000000000000000000000000081565b6103936105333660046130c2565b610e23565b61058f6105463660046130c2565b60056020819052600091825260409091208054600182015460038301546004840154939094015473ffffffffffffffffffffffffffffffffffffffff9283169492909116929085565b6040805173ffffffffffffffffffffffffffffffffffffffff9687168152959094166020860152928401919091526060830152608082015260a001610292565b6105d76115a1565b604051610292919061318b565b61028860015481565b6103936105fb3660046130c2565b6115f9565b61060861169b565b60405161029295949392919061319e565b6102886106273660046130c2565b611cd0565b61063f61063a3660046130c2565b611d8c565b604051610292919061329a565b61035b7f000000000000000000000000000000000000000000000000000000000000000081565b6102887f000000000000000000000000000000000000000000000000000000000000000081565b6102887f000000000000000000000000000000000000000000000000000000000000000081565b6102887f000000000000000000000000000000000000000000000000000000000000000081565b6102886106f63660046130c2565b611e8c565b6105d7611e9c565b610288611ef2565b6102887f000000000000000000000000000000000000000000000000000000000000000081565b61076e6040518060400160405280600581526020017f302e312e3000000000000000000000000000000000000000000000000000000081525081565b60405161029291906132db565b6000818152600560205260409020600181015473ffffffffffffffffffffffffffffffffffffffff1633146108055760018101546040517fa43d6ada00000000000000000000000000000000000000000000000000000000815233600482015273ffffffffffffffffffffffffffffffffffffffff90911660248201526044015b60405180910390fd5b600381015460006108168242613377565b90507f0000000000000000000000000000000000000000000000000000000000000000811115801561084a57506000600254115b156108b1576040517fba2bbc6b00000000000000000000000000000000000000000000000000000000815260048101859052602481018290527f000000000000000000000000000000000000000000000000000000000000000060448201526064016107fc565b6000806108bc61169b565b94505050509150815160000361091d576108d4611e9c565b9150815167ffffffffffffffff8111156108f0576108f061338a565b604051908082528060200260200182016040528015610919578160200160208202803683370190505b5090505b6000805b835182101561097e578783838151811061093d5761093d6133b9565b6020026020010151031561097e578784838151811061095e5761095e6133b9565b6020026020010151036109735750600161097e565b816001019150610921565b600487015460028801805460408051602080840282018101909252828152600093909290918301828280156109d257602002820191906000526020600020905b8154815260200190600101908083116109be575b50508c5460008f815260056020526040812080547fffffffffffffffffffffffff00000000000000000000000000000000000000009081168255600182018054909116905595965073ffffffffffffffffffffffffffffffffffffffff9091169493509150610a4690506002830182612f80565b50600060038201819055600482018190556005909101558315610ad55760068054610a7390600190613377565b81548110610a8357610a836133b9565b906000526020600020015460068681548110610aa157610aa16133b9565b6000918252602090912001556006805480610abe57610abe6133e8565b600190038181906000526020600020016000905590555b6040517f42842e0e000000000000000000000000000000000000000000000000000000008152306004820152336024820152604481018c905273ffffffffffffffffffffffffffffffffffffffff7f000000000000000000000000000000000000000000000000000000000000000016906342842e0e90606401600060405180830381600087803b158015610b6957600080fd5b505af1158015610b7d573d6000803e3d6000fd5b505050506000831115610b9457610b948184611f27565b8073ffffffffffffffffffffffffffffffffffffffff163373ffffffffffffffffffffffffffffffffffffffff168c7f950733f4c0bf951b8e770f3cc619a4288e7b59b1236d59aeaf2c238488e8ae816000548688604051610bf893929190613417565b60405180910390a45050505050505050505050565b60048181548110610c1d57600080fd5b600091825260209091200154905081565b6000818152600560209081526040808320815160c081018352815473ffffffffffffffffffffffffffffffffffffffff90811682526001830154168185015260028201805484518187028101870186528181528796939586019390929190830182828015610cbb57602002820191906000526020600020905b815481526020019060010190808311610ca7575b505050505081526020016003820154815260200160048201548152602001600582015481525050905080608001519150610cf483611cd0565b610cfe9083613440565b9392505050565b610d6a6040518060c00160405280600073ffffffffffffffffffffffffffffffffffffffff168152602001600073ffffffffffffffffffffffffffffffffffffffff168152602001606081526020016000815260200160008152602001600081525090565b600082815260056020908152604091829020825160c081018452815473ffffffffffffffffffffffffffffffffffffffff90811682526001830154168184015260028201805485518186028101860187528181529295939493860193830182828015610df557602002820191906000526020600020905b815481526020019060010190808311610de1575b5050505050815260200160038201548152602001600482015481526020016005820154815250509050919050565b600254600003610e5f576040517fafb0be3300000000000000000000000000000000000000000000000000000000815260040160405180910390fd5b6000818152600560205260409020600381015415610eac576040517fb4817ce7000000000000000000000000000000000000000000000000000000008152600481018390526024016107fc565b6006547f00000000000000000000000000000000000000000000000000000000000000008103610f2a576040517ffd2086150000000000000000000000000000000000000000000000000000000081527f000000000000000000000000000000000000000000000000000000000000000060048201526024016107fc565b6040517fef0e239b000000000000000000000000000000000000000000000000000000008152600481018490526000907f000000000000000000000000000000000000000000000000000000000000000073ffffffffffffffffffffffffffffffffffffffff169063ef0e239b90602401600060405180830381865afa158015610fb8573d6000803e3d6000fd5b505050506040513d6000823e601f3d9081017fffffffffffffffffffffffffffffffffffffffffffffffffffffffffffffffe0168201604052610ffe919081019061358f565b9050806080015163ffffffff167f000000000000000000000000000000000000000000000000000000000000000014611066576040517ff5a8097e000000000000000000000000000000000000000000000000000000008152600481018590526024016107fc565b7f0000000000000000000000000000000000000000000000000000000000000000158015906110b9575080604001517f000000000000000000000000000000000000000000000000000000000000000014155b156110f3576040517ff5a8097e000000000000000000000000000000000000000000000000000000008152600481018590526024016107fc565b60007f000000000000000000000000000000000000000000000000000000000000000011801561114d5750806060015163ffffffff167f000000000000000000000000000000000000000000000000000000000000000014155b15611187576040517ff5a8097e000000000000000000000000000000000000000000000000000000008152600481018590526024016107fc565b60048160c00151600581111561119f5761119f61326b565b146111f7578060c0015160058111156111ba576111ba61326b565b6040517ff014fe740000000000000000000000000000000000000000000000000000000081526004810191909152602481018590526044016107fc565b6000816020015173ffffffffffffffffffffffffffffffffffffffff16803b806020016040519081016040528181526000908060200190933c805190602001209050807f0000000000000000000000000000000000000000000000000000000000000000146112b05760208201516040517f14460f2000000000000000000000000000000000000000000000000000000000815273ffffffffffffffffffffffffffffffffffffffff90911660048201526024016107fc565b60045480156113ab5760e0830151518181146112fb576040517ff5a8097e000000000000000000000000000000000000000000000000000000008152600481018890526024016107fc565b60005b818110156113a8578460e00151818151811061131c5761131c6133b9565b602002602001015163ffffffff166004828154811061133d5761133d6133b9565b9060005260206000200154146113a05760048181548110611360576113606133b9565b90600052602060002001546040517faac42c2c0000000000000000000000000000000000000000000000000000000081526004016107fc91815260200190565b6001016112fe565b50505b6113cc8684600001516bffffffffffffffffffffffff168560e00151611fbe565b6020830151855473ffffffffffffffffffffffffffffffffffffffff82167fffffffffffffffffffffffff00000000000000000000000000000000000000009182161787556001870180549091163317905560009061142a906122e4565b80519091506114429060028801906020840190612fa1565b50426003870155600680546001810182556000919091527ff652222313e28459528d920b65115c16c04f3efc82aaedc97be59f3f377c0d3f018790556040517f42842e0e000000000000000000000000000000000000000000000000000000008152336004820152306024820152604481018890527f000000000000000000000000000000000000000000000000000000000000000073ffffffffffffffffffffffffffffffffffffffff16906342842e0e90606401600060405180830381600087803b15801561151257600080fd5b505af1158015611526573d6000803e3d6000fd5b50505050836020015173ffffffffffffffffffffffffffffffffffffffff163373ffffffffffffffffffffffffffffffffffffffff16887faa6b005b4958114a0c90492461c24af6525ae0178db7fbf44125ae9217c69ccb6000548560405161159092919061366d565b60405180910390a450505050505050565b606060048054806020026020016040519081016040528092919081815260200182805480156115ef57602002820191906000526020600020905b8154815260200190600101908083116115db575b5050505050905090565b6000816001546116099190613440565b905060008260025461161b9190613440565b6001839055600281905590506116537f00000000000000000000000000000000000000000000000000000000000000003330866122f5565b604080518481526020810184905290810182905233907f36af321ec8d3c75236829c5317affd40ddb308863a1236d2d277a4025cccee1e9060600160405180910390a2505050565b60608060608060606000806000806000806000806116b76123be565b97509750975097509750975097509750606080845167ffffffffffffffff8111156116e4576116e461338a565b60405190808252806020026020018201604052801561170d578160200160208202803683370190505b509a5060008915611aa0578967ffffffffffffffff8111156117315761173161338a565b60405190808252806020026020018201604052801561175a578160200160208202803683370190505b5092508967ffffffffffffffff8111156117765761177661338a565b60405190808252806020026020018201604052801561179f578160200160208202803683370190505b5091508a8911156119a95760008060015b8c81101561189c578b8e8b83815181106117cc576117cc6133b9565b60200260200101516117de9190613686565b6117e8919061369d565b92506117f48383613440565b91508a8181518110611808576118086133b9565b602002602001015193508a8181518110611824576118246133b9565b602002602001015186828151811061183e5761183e6133b9565b6020026020010181815250508285828151811061185d5761185d6133b9565b6020026020010181815250508260056000868152602001908152602001600020600401600082825461188f9190613440565b90915550506001016117b0565b508a8d8a6000815181106118b2576118b26133b9565b60200260200101516118c49190613686565b6118ce919061369d565b91506118da8282613440565b9050896000815181106118ef576118ef6133b9565b602002602001015192508960008151811061190c5761190c6133b9565b602002602001015185600081518110611927576119276133b9565b602002602001018181525050808d111561195257611945818e613377565b61194f9083613440565b91505b8184600081518110611966576119666133b9565b602002602001018181525050816005600085815260200190815260200160002060040160008282546119989190613440565b9091555060009d50611a9a92505050565b60005b8a811015611a8c578881815181106119c6576119c66133b9565b602002602001015191508881815181106119e2576119e26133b9565b60200260200101518482815181106119fc576119fc6133b9565b602002602001018181525050878181518110611a1a57611a1a6133b9565b6020026020010151838281518110611a3457611a346133b9565b602002602001018181525050878181518110611a5257611a526133b9565b6020026020010151600560008481526020019081526020016000206004016000828254611a7f9190613440565b90915550506001016119ac565b50611a97898c613377565b9a505b60028b90555b855115611cba576000995060005b8651811015611c5357868181518110611ac957611ac96133b9565b60200260200101519150858181518110611ae557611ae56133b9565b6020026020010151600560008481526020019081526020016000206002019080519060200190611b16929190612fa1565b506000858281518110611b2b57611b2b6133b9565b60200260200101511115611c3857848181518110611b4b57611b4b6133b9565b60200260200101516005600084815260200190815260200160002060050154611b749190613440565b858281518110611b8657611b866133b9565b602002602001018181525050848181518110611ba457611ba46133b9565b602002602001015160056000848152602001908152602001600020600501819055507f0000000000000000000000000000000000000000000000000000000000000000858281518110611bf957611bf96133b9565b60200260200101511115611c3357818d8281518110611c1a57611c1a6133b9565b60209081029190910101528a611c2f816136d8565b9b50505b611c4b565b6000828152600560208190526040822001555b600101611aae565b508915611c6557611c658c858c6127c9565b42600355600054611c77816001613440565b60005560405181907f06a98bdd4732811ab3214800ed1ada2dce66a2bce301d250c3ca7d6b461ee66690611cb0908f9088908890613710565b60405180910390a2505b50939e929d509b50919950969750505050505050565b600080600080600080611ce16123be565b5050509450945094509450945060005b84811015611d815787838281518110611d0c57611d0c6133b9565b602002602001015103611d795785841115611d58578386838381518110611d3557611d356133b9565b6020026020010151611d479190613686565b611d51919061369d565b9650611d81565b818181518110611d6a57611d6a6133b9565b60200260200101519650611d81565b600101611cf1565b505050505050919050565b6000818152600560209081526040808320815160c081018352815473ffffffffffffffffffffffffffffffffffffffff90811682526001830154168185015260028201805484518187028101870186528181528796939586019390929190830182828015611e1957602002820191906000526020600020905b815481526020019060010190808311611e05575b50505050508152602001600382015481526020016004820154815260200160058201548152505090507f00000000000000000000000000000000000000000000000000000000000000008160a001511115611e775760029150611e86565b606081015115611e8657600191505b50919050565b60068181548110610c1d57600080fd5b606060068054806020026020016040519081016040528092919081815260200182805480156115ef57602002820191906000526020600020908154815260200190600101908083116115db575050505050905090565b60007f0000000000000000000000000000000000000000000000000000000000000000600354611f229190613440565b905090565b8060016000828254611f399190613377565b90915550611f6a90507f00000000000000000000000000000000000000000000000000000000000000008383612bc2565b8173ffffffffffffffffffffffffffffffffffffffff167f884edad9ce6fa2440d8a54cc123490eb96d2768479d49ff9c7366125a942436482604051611fb291815260200190565b60405180910390a25050565b6040517f3cebfa4f00000000000000000000000000000000000000000000000000000000815260048101849052600090819073ffffffffffffffffffffffffffffffffffffffff7f00000000000000000000000000000000000000000000000000000000000000001690633cebfa4f906024016040805180830381865afa15801561204d573d6000803e3d6000fd5b505050506040513d601f19601f820116820180604052508101906120719190613745565b915091508173ffffffffffffffffffffffffffffffffffffffff167f000000000000000000000000000000000000000000000000000000000000000073ffffffffffffffffffffffffffffffffffffffff161461213a576040517f5c01c06800000000000000000000000000000000000000000000000000000000815273ffffffffffffffffffffffffffffffffffffffff7f000000000000000000000000000000000000000000000000000000000000000081166004830152831660248201526044016107fc565b7f00000000000000000000000000000000000000000000000000000000000000006bffffffffffffffffffffffff82168111156121ba576040517facc2c91c0000000000000000000000000000000000000000000000000000000081526bffffffffffffffffffffffff83166004820152602481018290526044016107fc565b60005b84518110156122db5760007f000000000000000000000000000000000000000000000000000000000000000073ffffffffffffffffffffffffffffffffffffffff166375c1f93489888581518110612217576122176133b9565b60200260200101516040518363ffffffff1660e01b815260040161224b92919091825263ffffffff16602082015260400190565b602060405180830381865afa158015612268573d6000803e3d6000fd5b505050506040513d601f19601f8201168201806040525081019061228c919061377a565b9050828110156122d2576040517facc2c91c00000000000000000000000000000000000000000000000000000000815260048101829052602481018490526044016107fc565b506001016121bd565b50505050505050565b60606122ef82612c84565b92915050565b60006040517f23b872dd000000000000000000000000000000000000000000000000000000006000528460045283602452826044526020600060646000808a5af13d15601f3d11600160005114161716915060006060528060405250806123b7576040517fabae3d6d00000000000000000000000000000000000000000000000000000000815273ffffffffffffffffffffffffffffffffffffffff8087166004830152808616602483015284166044820152606481018390526084016107fc565b5050505050565b600080600060608060608060606000600354905060025498507f000000000000000000000000000000000000000000000000000000000000000081426124049190613377565b101580156124125750600089115b156127be576006548067ffffffffffffffff8111156124335761243361338a565b60405190808252806020026020018201604052801561245c578160200160208202803683370190505b5094508067ffffffffffffffff8111156124785761247861338a565b6040519080825280602002602001820160405280156124a1578160200160208202803683370190505b5096508067ffffffffffffffff8111156124bd576124bd61338a565b6040519080825280602002602001820160405280156124e6578160200160208202803683370190505b5095508067ffffffffffffffff8111156125025761250261338a565b60405190808252806020026020018201604052801561253557816020015b60608152602001906001900390816125205790505b5093508067ffffffffffffffff8111156125515761255161338a565b60405190808252806020026020018201604052801561257a578160200160208202803683370190505b50925060005b818110156127bb576006818154811061259b5761259b6133b9565b90600052602060002001548682815181106125b8576125b86133b9565b6020026020010181815250506000600560008884815181106125dc576125dc6133b9565b6020908102919091018101518252810191909152604001600020805490915061261a9073ffffffffffffffffffffffffffffffffffffffff166122e4565b86838151811061262c5761262c6133b9565b6020908102919091010152600381015484908181111561264a578091505b6126548242613377565b905060006126ce89868151811061266d5761266d6133b9565b6020026020010151856002018054806020026020016040519081016040528092919081815260200182805480156126c357602002820191906000526020600020905b8154815260200190600101908083116126af575b505050505084612e05565b9050801561278c57612700827f0000000000000000000000000000000000000000000000000000000000000000613686565b8b8f81518110612712576127126133b9565b6020026020010181815250508a8e81518110612730576127306133b9565b60200260200101518d6127439190613440565b9c50898581518110612757576127576133b9565b60200260200101518c8f81518110612771576127716133b9565b60209081029190910101526127858e6136d8565b9d506127ac565b8188868151811061279f5761279f6133b9565b6020026020010181815250505b50505050806001019050612580565b50505b509091929394959697565b825160008267ffffffffffffffff8111156127e6576127e661338a565b60405190808252806020026020018201604052801561280f578160200160208202803683370190505b50905060008367ffffffffffffffff81111561282d5761282d61338a565b604051908082528060200260200182016040528015612856578160200160208202803683370190505b50905060008467ffffffffffffffff8111156128745761287461338a565b60405190808252806020026020018201604052801561289d578160200160208202803683370190505b50905060008567ffffffffffffffff8111156128bb576128bb61338a565b6040519080825280602002602001820160405280156128e4578160200160208202803683370190505b50905060008667ffffffffffffffff8111156129025761290261338a565b60405190808252806020026020018201604052801561292b578160200160208202803683370190505b50905060008060005b88811015612abf5760008c8281518110612950576129506133b9565b60200260200101511115612ab7578b8181518110612970576129706133b9565b602002602001015191508188848151811061298d5761298d6133b9565b60209081029190910181019190915260008381526005909152604090206001810154885173ffffffffffffffffffffffffffffffffffffffff909116908990869081106129dc576129dc6133b9565b73ffffffffffffffffffffffffffffffffffffffff928316602091820292909201015281548851911690889086908110612a1857612a186133b9565b602002602001019073ffffffffffffffffffffffffffffffffffffffff16908173ffffffffffffffffffffffffffffffffffffffff16815250508b8281518110612a6457612a646133b9565b6020026020010151868581518110612a7e57612a7e6133b9565b60200260200101818152505081858581518110612a9d57612a9d6133b9565b602090810291909101015283612ab2816136d8565b945050505b600101612934565b50885b8015612b745788612ad281613793565b99506000905084612ae4600184613377565b81518110612af457612af46133b9565b6020026020010151905060068a81548110612b1157612b116133b9565b906000526020600020015460068281548110612b2f57612b2f6133b9565b6000918252602090912001556006805480612b4c57612b4c6133e8565b600190038181906000526020600020016000905590555080612b6d90613793565b9050612ac2565b506000547fd19a3d42ed383465e4058c322d9411aeac76ddb8454d22e139fc99808bd5695288888888604051612bad949392919061380f565b60405180910390a25050505050505050505050565b60006040517fa9059cbb000000000000000000000000000000000000000000000000000000006000528360045282602452602060006044600080895af13d15601f3d1160016000511416171691506000606052806040525080612c7e576040517fabae3d6d00000000000000000000000000000000000000000000000000000000815273ffffffffffffffffffffffffffffffffffffffff808616600483015230602483015284166044820152606481018390526084016107fc565b50505050565b60408051600280825260608083018452926020830190803683370190505090508173ffffffffffffffffffffffffffffffffffffffff1663affed0e06040518163ffffffff1660e01b8152600401602060405180830381865afa158015612cef573d6000803e3d6000fd5b505050506040513d601f19601f82011682018060405250810190612d13919061377a565b81600081518110612d2657612d266133b9565b60209081029190910101526040517f7af7347300000000000000000000000000000000000000000000000000000000815273ffffffffffffffffffffffffffffffffffffffff83811660048301527f00000000000000000000000000000000000000000000000000000000000000001690637af7347390602401602060405180830381865afa158015612dbd573d6000803e3d6000fd5b505050506040513d601f19601f82011682018060405250810190612de1919061377a565b81600181518110612df457612df46133b9565b602002602001018181525050919050565b6000612e12848484612e1a565b949350505050565b60008082118015612e5e575082600081518110612e3957612e396133b9565b602002602001015184600081518110612e5457612e546133b9565b6020026020010151115b8015612e9d575082600181518110612e7857612e786133b9565b602002602001015184600181518110612e9357612e936133b9565b6020026020010151115b15610cfe57600083600081518110612eb757612eb76133b9565b602002602001015185600081518110612ed257612ed26133b9565b6020026020010151612ee49190613377565b9050600084600181518110612efb57612efb6133b9565b602002602001015186600181518110612f1657612f166133b9565b6020026020010151612f289190613377565b9050818111612f7757600084612f4683670de0b6b3a7640000613686565b612f50919061369d565b7f000000000000000000000000000000000000000000000000000000000000000011159350505b50509392505050565b5080546000825590600052602060002090810190612f9e9190612fec565b50565b828054828255906000526020600020908101928215612fdc579160200282015b82811115612fdc578251825591602001919060010190612fc1565b50612fe8929150612fec565b5090565b5b80821115612fe85760008155600101612fed565b73ffffffffffffffffffffffffffffffffffffffff81168114612f9e57600080fd5b60008060008060006080868803121561303b57600080fd5b853561304681613001565b9450602086013561305681613001565b935060408601359250606086013567ffffffffffffffff8082111561307a57600080fd5b818801915088601f83011261308e57600080fd5b81358181111561309d57600080fd5b8960208285010111156130af57600080fd5b9699959850939650602001949392505050565b6000602082840312156130d457600080fd5b5035919050565b60008151808452602080850194506020840160005b8381101561310c578151875295820195908201906001016130f0565b509495945050505050565b60208152600073ffffffffffffffffffffffffffffffffffffffff80845116602084015280602085015116604084015250604083015160c0606084015261316160e08401826130db565b905060608401516080840152608084015160a084015260a084015160c08401528091505092915050565b602081526000610cfe60208301846130db565b60a0815260006131b160a08301886130db565b6020838203818501528188518084528284019150828160051b850101838b0160005b8381101561321f577fffffffffffffffffffffffffffffffffffffffffffffffffffffffffffffffe087840301855261320d8383516130db565b948601949250908501906001016131d3565b50508681036040880152613233818b6130db565b945050505050828103606084015261324b81866130db565b9050828103608084015261325f81856130db565b98975050505050505050565b7f4e487b7100000000000000000000000000000000000000000000000000000000600052602160045260246000fd5b60208101600383106132d5577f4e487b7100000000000000000000000000000000000000000000000000000000600052602160045260246000fd5b91905290565b60006020808352835180602085015260005b81811015613309578581018301518582016040015282016132ed565b5060006040828601015260407fffffffffffffffffffffffffffffffffffffffffffffffffffffffffffffffe0601f8301168501019250505092915050565b7f4e487b7100000000000000000000000000000000000000000000000000000000600052601160045260246000fd5b818103818111156122ef576122ef613348565b7f4e487b7100000000000000000000000000000000000000000000000000000000600052604160045260246000fd5b7f4e487b7100000000000000000000000000000000000000000000000000000000600052603260045260246000fd5b7f4e487b7100000000000000000000000000000000000000000000000000000000600052603160045260246000fd5b83815260606020820152600061343060608301856130db565b9050826040830152949350505050565b808201808211156122ef576122ef613348565b604051610100810167ffffffffffffffff811182821017156134775761347761338a565b60405290565b80516bffffffffffffffffffffffff8116811461349957600080fd5b919050565b805161349981613001565b805163ffffffff8116811461349957600080fd5b80516006811061349957600080fd5b600082601f8301126134dd57600080fd5b8151602067ffffffffffffffff808311156134fa576134fa61338a565b8260051b6040517fffffffffffffffffffffffffffffffffffffffffffffffffffffffffffffffe0603f8301168101818110848211171561353d5761353d61338a565b604052938452602081870181019490810192508785111561355d57600080fd5b6020870191505b8482101561358457613575826134a9565b83529183019190830190613564565b979650505050505050565b6000602082840312156135a157600080fd5b815167ffffffffffffffff808211156135b957600080fd5b9083019061010082860312156135ce57600080fd5b6135d6613453565b6135df8361347d565b81526135ed6020840161349e565b602082015260408301516040820152613608606084016134a9565b6060820152613619608084016134a9565b608082015261362a60a084016134a9565b60a082015261363b60c084016134bd565b60c082015260e08301518281111561365257600080fd5b61365e878286016134cc565b60e08301525095945050505050565b828152604060208201526000612e1260408301846130db565b80820281158282048414176122ef576122ef613348565b6000826136d3577f4e487b7100000000000000000000000000000000000000000000000000000000600052601260045260246000fd5b500490565b60007fffffffffffffffffffffffffffffffffffffffffffffffffffffffffffffffff820361370957613709613348565b5060010190565b83815260606020820152600061372960608301856130db565b828103604084015261373b81856130db565b9695505050505050565b6000806040838503121561375857600080fd5b825161376381613001565b91506137716020840161347d565b90509250929050565b60006020828403121561378c57600080fd5b5051919050565b6000816137a2576137a2613348565b507fffffffffffffffffffffffffffffffffffffffffffffffffffffffffffffffff0190565b60008151808452602080850194506020840160005b8381101561310c57815173ffffffffffffffffffffffffffffffffffffffff16875295820195908201906001016137dd565b60808152600061382260808301876130db565b828103602084015261383481876137c8565b9050828103604084015261384881866137c8565b9050828103606084015261358481856130db56fea2646970667358221220e67fef74b9a783366bc75bf66fa9da3a17ca62dc682ed9b1ce01b3b99f09095a64736f6c63430008170033",
  "linkReferences": {},
  "deployedLinkReferences": {}
}