{
  "_format": "hh-sol-artifact-1",
  "contractName": "ServiceStakingMechUsage",
  "sourceName": "contracts/mech_usage/ServiceStakingMechUsage.sol",
  "abi": [
    {
      "inputs": [
        {
          "components": [
            {
              "internalType": "uint256",
              "name": "maxNumServices",
              "type": "uint256"
            },
            {
              "internalType": "uint256",
              "name": "rewardsPerSecond",
              "type": "uint256"
            },
            {
              "internalType": "uint256",
              "name": "minStakingDeposit",
              "type": "uint256"
            },
            {
              "internalType": "uint256",
              "name": "minNumStakingPeriods",
              "type": "uint256"
            },
            {
              "internalType": "uint256",
              "name": "maxNumInactivityPeriods",
              "type": "uint256"
            },
            {
              "internalType": "uint256",
              "name": "livenessPeriod",
              "type": "uint256"
            },
            {
              "internalType": "uint256",
              "name": "livenessRatio",
              "type": "uint256"
            },
            {
              "internalType": "uint256",
              "name": "numAgentInstances",
              "type": "uint256"
            },
            {
              "internalType": "uint256[]",
              "name": "agentIds",
              "type": "uint256[]"
            },
            {
              "internalType": "uint256",
              "name": "threshold",
              "type": "uint256"
            },
            {
              "internalType": "bytes32",
              "name": "configHash",
              "type": "bytes32"
            }
          ],
          "internalType": "struct ServiceStakingBase.StakingParams",
          "name": "_stakingParams",
          "type": "tuple"
        },
        {
          "internalType": "address",
          "name": "_serviceRegistry",
          "type": "address"
        },
        {
          "internalType": "bytes32",
          "name": "_proxyHash",
          "type": "bytes32"
        },
        {
          "internalType": "address",
          "name": "_agentMech",
          "type": "address"
        }
      ],
      "stateMutability": "nonpayable",
      "type": "constructor"
    },
    {
      "inputs": [
        {
          "internalType": "address",
          "name": "operator",
          "type": "address"
        }
      ],
      "name": "AgentInstanceRegistered",
      "type": "error"
    },
    {
      "inputs": [
        {
          "internalType": "uint256",
          "name": "serviceId",
          "type": "uint256"
        }
      ],
      "name": "AgentInstancesSlotsFilled",
      "type": "error"
    },
    {
      "inputs": [
        {
          "internalType": "uint256",
          "name": "agentId",
          "type": "uint256"
        }
      ],
      "name": "AgentNotFound",
      "type": "error"
    },
    {
      "inputs": [
        {
          "internalType": "uint256",
          "name": "agentId",
          "type": "uint256"
        },
        {
          "internalType": "uint256",
          "name": "serviceId",
          "type": "uint256"
        }
      ],
      "name": "AgentNotInService",
      "type": "error"
    },
    {
      "inputs": [
        {
          "internalType": "uint256",
          "name": "componentId",
          "type": "uint256"
        }
      ],
      "name": "ComponentNotFound",
      "type": "error"
    },
    {
      "inputs": [],
      "name": "HashExists",
      "type": "error"
    },
    {
      "inputs": [
        {
          "internalType": "uint256",
          "name": "sent",
          "type": "uint256"
        },
        {
          "internalType": "uint256",
          "name": "expected",
          "type": "uint256"
        },
        {
          "internalType": "uint256",
          "name": "serviceId",
          "type": "uint256"
        }
      ],
      "name": "IncorrectAgentBondingValue",
      "type": "error"
    },
    {
      "inputs": [
        {
          "internalType": "uint256",
          "name": "sent",
          "type": "uint256"
        },
        {
          "internalType": "uint256",
          "name": "expected",
          "type": "uint256"
        },
        {
          "internalType": "uint256",
          "name": "serviceId",
          "type": "uint256"
        }
      ],
      "name": "IncorrectRegistrationDepositValue",
      "type": "error"
    },
    {
      "inputs": [
        {
          "internalType": "uint256",
          "name": "provided",
          "type": "uint256"
        },
        {
          "internalType": "uint256",
          "name": "expected",
          "type": "uint256"
        }
      ],
      "name": "LowerThan",
      "type": "error"
    },
    {
      "inputs": [
        {
          "internalType": "address",
          "name": "sender",
          "type": "address"
        },
        {
          "internalType": "address",
          "name": "manager",
          "type": "address"
        }
      ],
      "name": "ManagerOnly",
      "type": "error"
    },
    {
      "inputs": [
        {
          "internalType": "uint256",
          "name": "maxNumServices",
          "type": "uint256"
        }
      ],
      "name": "MaxNumServicesReached",
      "type": "error"
    },
    {
      "inputs": [],
      "name": "NoRewardsAvailable",
      "type": "error"
    },
    {
      "inputs": [
        {
          "internalType": "uint256",
          "name": "serviceId",
          "type": "uint256"
        },
        {
          "internalType": "uint256",
          "name": "tsProvided",
          "type": "uint256"
        },
        {
          "internalType": "uint256",
          "name": "tsExpected",
          "type": "uint256"
        }
      ],
      "name": "NotEnoughTimeStaked",
      "type": "error"
    },
    {
      "inputs": [
        {
          "internalType": "address",
          "name": "provided",
          "type": "address"
        },
        {
          "internalType": "address",
          "name": "expected",
          "type": "address"
        },
        {
          "internalType": "uint256",
          "name": "serviceId",
          "type": "uint256"
        }
      ],
      "name": "OnlyOwnServiceMultisig",
      "type": "error"
    },
    {
      "inputs": [
        {
          "internalType": "address",
          "name": "operator",
          "type": "address"
        },
        {
          "internalType": "uint256",
          "name": "serviceId",
          "type": "uint256"
        }
      ],
      "name": "OperatorHasNoInstances",
      "type": "error"
    },
    {
      "inputs": [
        {
          "internalType": "uint256",
          "name": "provided",
          "type": "uint256"
        },
        {
          "internalType": "uint256",
          "name": "max",
          "type": "uint256"
        }
      ],
      "name": "Overflow",
      "type": "error"
    },
    {
      "inputs": [
        {
          "internalType": "address",
          "name": "sender",
          "type": "address"
        },
        {
          "internalType": "address",
          "name": "owner",
          "type": "address"
        }
      ],
      "name": "OwnerOnly",
      "type": "error"
    },
    {
      "inputs": [],
      "name": "Paused",
      "type": "error"
    },
    {
      "inputs": [],
      "name": "ReentrancyGuard",
      "type": "error"
    },
    {
      "inputs": [
        {
          "internalType": "uint256",
          "name": "serviceId",
          "type": "uint256"
        }
      ],
      "name": "ServiceMustBeInactive",
      "type": "error"
    },
    {
      "inputs": [
        {
          "internalType": "uint256",
          "name": "serviceId",
          "type": "uint256"
        }
      ],
      "name": "ServiceNotUnstaked",
      "type": "error"
    },
    {
      "inputs": [
        {
          "internalType": "address",
          "name": "token",
          "type": "address"
        },
        {
          "internalType": "address",
          "name": "from",
          "type": "address"
        },
        {
          "internalType": "address",
          "name": "to",
          "type": "address"
        },
        {
          "internalType": "uint256",
          "name": "value",
          "type": "uint256"
        }
      ],
      "name": "TransferFailed",
      "type": "error"
    },
    {
      "inputs": [
        {
          "internalType": "address",
          "name": "multisig",
          "type": "address"
        }
      ],
      "name": "UnauthorizedMultisig",
      "type": "error"
    },
    {
      "inputs": [
        {
          "internalType": "uint256",
          "name": "agentId",
          "type": "uint256"
        }
      ],
      "name": "WrongAgentId",
      "type": "error"
    },
    {
      "inputs": [
        {
          "internalType": "uint256",
          "name": "numValues1",
          "type": "uint256"
        },
        {
          "internalType": "uint256",
          "name": "numValues2",
          "type": "uint256"
        }
      ],
      "name": "WrongArrayLength",
      "type": "error"
    },
    {
      "inputs": [
        {
          "internalType": "uint256",
          "name": "serviceId",
          "type": "uint256"
        }
      ],
      "name": "WrongOperator",
      "type": "error"
    },
    {
      "inputs": [
        {
          "internalType": "uint256",
          "name": "serviceId",
          "type": "uint256"
        }
      ],
      "name": "WrongServiceConfiguration",
      "type": "error"
    },
    {
      "inputs": [
        {
          "internalType": "uint256",
          "name": "state",
          "type": "uint256"
        },
        {
          "internalType": "uint256",
          "name": "serviceId",
          "type": "uint256"
        }
      ],
      "name": "WrongServiceState",
      "type": "error"
    },
    {
      "inputs": [
        {
          "internalType": "uint256",
          "name": "currentThreshold",
          "type": "uint256"
        },
        {
          "internalType": "uint256",
          "name": "minThreshold",
          "type": "uint256"
        },
        {
          "internalType": "uint256",
          "name": "maxThreshold",
          "type": "uint256"
        }
      ],
      "name": "WrongThreshold",
      "type": "error"
    },
    {
      "inputs": [],
      "name": "ZeroAddress",
      "type": "error"
    },
    {
      "inputs": [],
      "name": "ZeroMechAgentAddress",
      "type": "error"
    },
    {
      "inputs": [],
      "name": "ZeroValue",
      "type": "error"
    },
    {
      "anonymous": false,
      "inputs": [
        {
          "indexed": true,
          "internalType": "uint256",
          "name": "epoch",
          "type": "uint256"
        },
        {
          "indexed": false,
          "internalType": "uint256",
          "name": "availableRewards",
          "type": "uint256"
        },
        {
          "indexed": false,
          "internalType": "uint256[]",
          "name": "serviceIds",
          "type": "uint256[]"
        },
        {
          "indexed": false,
          "internalType": "uint256[]",
          "name": "rewards",
          "type": "uint256[]"
        }
      ],
      "name": "Checkpoint",
      "type": "event"
    },
    {
      "anonymous": false,
      "inputs": [
        {
          "indexed": true,
          "internalType": "address",
          "name": "sender",
          "type": "address"
        },
        {
          "indexed": false,
          "internalType": "uint256",
          "name": "amount",
          "type": "uint256"
        },
        {
          "indexed": false,
          "internalType": "uint256",
          "name": "balance",
          "type": "uint256"
        },
        {
          "indexed": false,
          "internalType": "uint256",
          "name": "availableRewards",
          "type": "uint256"
        }
      ],
      "name": "Deposit",
      "type": "event"
    },
    {
      "anonymous": false,
      "inputs": [
        {
          "indexed": false,
          "internalType": "uint256",
          "name": "epoch",
          "type": "uint256"
        },
        {
          "indexed": true,
          "internalType": "uint256",
          "name": "serviceId",
          "type": "uint256"
        },
        {
          "indexed": true,
          "internalType": "address",
          "name": "owner",
          "type": "address"
        },
        {
          "indexed": true,
          "internalType": "address",
          "name": "multisig",
          "type": "address"
        },
        {
          "indexed": false,
          "internalType": "uint256[]",
          "name": "nonces",
          "type": "uint256[]"
        }
      ],
      "name": "ServiceStaked",
      "type": "event"
    },
    {
      "anonymous": false,
      "inputs": [
        {
          "indexed": false,
          "internalType": "uint256",
          "name": "epoch",
          "type": "uint256"
        },
        {
          "indexed": true,
          "internalType": "uint256",
          "name": "serviceId",
          "type": "uint256"
        },
        {
          "indexed": true,
          "internalType": "address",
          "name": "owner",
          "type": "address"
        },
        {
          "indexed": true,
          "internalType": "address",
          "name": "multisig",
          "type": "address"
        },
        {
          "indexed": false,
          "internalType": "uint256[]",
          "name": "nonces",
          "type": "uint256[]"
        },
        {
          "indexed": false,
          "internalType": "uint256",
          "name": "reward",
          "type": "uint256"
        }
      ],
      "name": "ServiceUnstaked",
      "type": "event"
    },
    {
      "anonymous": false,
      "inputs": [
        {
          "indexed": true,
          "internalType": "uint256",
          "name": "epoch",
          "type": "uint256"
        },
        {
          "indexed": false,
          "internalType": "uint256[]",
          "name": "serviceIds",
          "type": "uint256[]"
        },
        {
          "indexed": false,
          "internalType": "address[]",
          "name": "owners",
          "type": "address[]"
        },
        {
          "indexed": false,
          "internalType": "address[]",
          "name": "multisigs",
          "type": "address[]"
        },
        {
          "indexed": false,
          "internalType": "uint256[]",
          "name": "serviceInactivity",
          "type": "uint256[]"
        }
      ],
      "name": "ServicesEvicted",
      "type": "event"
    },
    {
      "anonymous": false,
      "inputs": [
        {
          "indexed": true,
          "internalType": "address",
          "name": "to",
          "type": "address"
        },
        {
          "indexed": false,
          "internalType": "uint256",
          "name": "amount",
          "type": "uint256"
        }
      ],
      "name": "Withdraw",
      "type": "event"
    },
    {
      "inputs": [],
      "name": "VERSION",
      "outputs": [
        {
          "internalType": "string",
          "name": "",
          "type": "string"
        }
      ],
      "stateMutability": "view",
      "type": "function"
    },
    {
      "inputs": [
        {
          "internalType": "uint256",
          "name": "",
          "type": "uint256"
        }
      ],
      "name": "agentIds",
      "outputs": [
        {
          "internalType": "uint256",
          "name": "",
          "type": "uint256"
        }
      ],
      "stateMutability": "view",
      "type": "function"
    },
    {
      "inputs": [],
      "name": "agentMech",
      "outputs": [
        {
          "internalType": "address",
          "name": "",
          "type": "address"
        }
      ],
      "stateMutability": "view",
      "type": "function"
    },
    {
      "inputs": [],
      "name": "availableRewards",
      "outputs": [
        {
          "internalType": "uint256",
          "name": "",
          "type": "uint256"
        }
      ],
      "stateMutability": "view",
      "type": "function"
    },
    {
      "inputs": [],
      "name": "balance",
      "outputs": [
        {
          "internalType": "uint256",
          "name": "",
          "type": "uint256"
        }
      ],
      "stateMutability": "view",
      "type": "function"
    },
    {
      "inputs": [
        {
          "internalType": "uint256",
          "name": "serviceId",
          "type": "uint256"
        }
      ],
      "name": "calculateServiceStakingLastReward",
      "outputs": [
        {
          "internalType": "uint256",
          "name": "reward",
          "type": "uint256"
        }
      ],
      "stateMutability": "view",
      "type": "function"
    },
    {
      "inputs": [
        {
          "internalType": "uint256",
          "name": "serviceId",
          "type": "uint256"
        }
      ],
      "name": "calculateServiceStakingReward",
      "outputs": [
        {
          "internalType": "uint256",
          "name": "reward",
          "type": "uint256"
        }
      ],
      "stateMutability": "view",
      "type": "function"
    },
    {
      "inputs": [],
      "name": "checkpoint",
      "outputs": [
        {
          "internalType": "uint256[]",
          "name": "",
          "type": "uint256[]"
        },
        {
          "internalType": "uint256[][]",
          "name": "",
          "type": "uint256[][]"
        },
        {
          "internalType": "uint256[]",
          "name": "",
          "type": "uint256[]"
        },
        {
          "internalType": "uint256[]",
          "name": "",
          "type": "uint256[]"
        },
        {
          "internalType": "uint256[]",
          "name": "evictServiceIds",
          "type": "uint256[]"
        }
      ],
      "stateMutability": "nonpayable",
      "type": "function"
    },
    {
      "inputs": [],
      "name": "configHash",
      "outputs": [
        {
          "internalType": "bytes32",
          "name": "",
          "type": "bytes32"
        }
      ],
      "stateMutability": "view",
      "type": "function"
    },
    {
      "inputs": [],
      "name": "epochCounter",
      "outputs": [
        {
          "internalType": "uint256",
          "name": "",
          "type": "uint256"
        }
      ],
      "stateMutability": "view",
      "type": "function"
    },
    {
      "inputs": [],
      "name": "getAgentIds",
      "outputs": [
        {
          "internalType": "uint256[]",
          "name": "",
          "type": "uint256[]"
        }
      ],
      "stateMutability": "view",
      "type": "function"
    },
    {
      "inputs": [],
      "name": "getNextRewardCheckpointTimestamp",
      "outputs": [
        {
          "internalType": "uint256",
          "name": "tsNext",
          "type": "uint256"
        }
      ],
      "stateMutability": "view",
      "type": "function"
    },
    {
      "inputs": [],
      "name": "getServiceIds",
      "outputs": [
        {
          "internalType": "uint256[]",
          "name": "",
          "type": "uint256[]"
        }
      ],
      "stateMutability": "view",
      "type": "function"
    },
    {
      "inputs": [
        {
          "internalType": "uint256",
          "name": "serviceId",
          "type": "uint256"
        }
      ],
      "name": "getServiceInfo",
      "outputs": [
        {
          "components": [
            {
              "internalType": "address",
              "name": "multisig",
              "type": "address"
            },
            {
              "internalType": "address",
              "name": "owner",
              "type": "address"
            },
            {
              "internalType": "uint256[]",
              "name": "nonces",
              "type": "uint256[]"
            },
            {
              "internalType": "uint256",
              "name": "tsStart",
              "type": "uint256"
            },
            {
              "internalType": "uint256",
              "name": "reward",
              "type": "uint256"
            },
            {
              "internalType": "uint256",
              "name": "inactivity",
              "type": "uint256"
            }
          ],
          "internalType": "struct ServiceInfo",
          "name": "sInfo",
          "type": "tuple"
        }
      ],
      "stateMutability": "view",
      "type": "function"
    },
    {
      "inputs": [
        {
          "internalType": "uint256",
          "name": "serviceId",
          "type": "uint256"
        }
      ],
      "name": "getServiceStakingState",
      "outputs": [
        {
          "internalType": "enum ServiceStakingBase.ServiceStakingState",
          "name": "stakingState",
          "type": "uint8"
        }
      ],
      "stateMutability": "view",
      "type": "function"
    },
    {
      "inputs": [],
      "name": "livenessPeriod",
      "outputs": [
        {
          "internalType": "uint256",
          "name": "",
          "type": "uint256"
        }
      ],
      "stateMutability": "view",
      "type": "function"
    },
    {
      "inputs": [],
      "name": "livenessRatio",
      "outputs": [
        {
          "internalType": "uint256",
          "name": "",
          "type": "uint256"
        }
      ],
      "stateMutability": "view",
      "type": "function"
    },
    {
      "inputs": [
        {
          "internalType": "uint256",
          "name": "",
          "type": "uint256"
        }
      ],
      "name": "mapServiceInfo",
      "outputs": [
        {
          "internalType": "address",
          "name": "multisig",
          "type": "address"
        },
        {
          "internalType": "address",
          "name": "owner",
          "type": "address"
        },
        {
          "internalType": "uint256",
          "name": "tsStart",
          "type": "uint256"
        },
        {
          "internalType": "uint256",
          "name": "reward",
          "type": "uint256"
        },
        {
          "internalType": "uint256",
          "name": "inactivity",
          "type": "uint256"
        }
      ],
      "stateMutability": "view",
      "type": "function"
    },
    {
      "inputs": [],
      "name": "maxInactivityDuration",
      "outputs": [
        {
          "internalType": "uint256",
          "name": "",
          "type": "uint256"
        }
      ],
      "stateMutability": "view",
      "type": "function"
    },
    {
      "inputs": [],
      "name": "maxNumInactivityPeriods",
      "outputs": [
        {
          "internalType": "uint256",
          "name": "",
          "type": "uint256"
        }
      ],
      "stateMutability": "view",
      "type": "function"
    },
    {
      "inputs": [],
      "name": "maxNumServices",
      "outputs": [
        {
          "internalType": "uint256",
          "name": "",
          "type": "uint256"
        }
      ],
      "stateMutability": "view",
      "type": "function"
    },
    {
      "inputs": [],
      "name": "minStakingDeposit",
      "outputs": [
        {
          "internalType": "uint256",
          "name": "",
          "type": "uint256"
        }
      ],
      "stateMutability": "view",
      "type": "function"
    },
    {
      "inputs": [],
      "name": "minStakingDuration",
      "outputs": [
        {
          "internalType": "uint256",
          "name": "",
          "type": "uint256"
        }
      ],
      "stateMutability": "view",
      "type": "function"
    },
    {
      "inputs": [],
      "name": "numAgentInstances",
      "outputs": [
        {
          "internalType": "uint256",
          "name": "",
          "type": "uint256"
        }
      ],
      "stateMutability": "view",
      "type": "function"
    },
    {
      "inputs": [
        {
          "internalType": "address",
          "name": "",
          "type": "address"
        },
        {
          "internalType": "address",
          "name": "",
          "type": "address"
        },
        {
          "internalType": "uint256",
          "name": "",
          "type": "uint256"
        },
        {
          "internalType": "bytes",
          "name": "",
          "type": "bytes"
        }
      ],
      "name": "onERC721Received",
      "outputs": [
        {
          "internalType": "bytes4",
          "name": "",
          "type": "bytes4"
        }
      ],
      "stateMutability": "nonpayable",
      "type": "function"
    },
    {
      "inputs": [],
      "name": "proxyHash",
      "outputs": [
        {
          "internalType": "bytes32",
          "name": "",
          "type": "bytes32"
        }
      ],
      "stateMutability": "view",
      "type": "function"
    },
    {
      "inputs": [],
      "name": "rewardsPerSecond",
      "outputs": [
        {
          "internalType": "uint256",
          "name": "",
          "type": "uint256"
        }
      ],
      "stateMutability": "view",
      "type": "function"
    },
    {
      "inputs": [],
      "name": "serviceRegistry",
      "outputs": [
        {
          "internalType": "address",
          "name": "",
          "type": "address"
        }
      ],
      "stateMutability": "view",
      "type": "function"
    },
    {
      "inputs": [
        {
          "internalType": "uint256",
          "name": "",
          "type": "uint256"
        }
      ],
      "name": "setServiceIds",
      "outputs": [
        {
          "internalType": "uint256",
          "name": "",
          "type": "uint256"
        }
      ],
      "stateMutability": "view",
      "type": "function"
    },
    {
      "inputs": [
        {
          "internalType": "uint256",
          "name": "serviceId",
          "type": "uint256"
        }
      ],
      "name": "stake",
      "outputs": [],
      "stateMutability": "nonpayable",
      "type": "function"
    },
    {
      "inputs": [],
      "name": "threshold",
      "outputs": [
        {
          "internalType": "uint256",
          "name": "",
          "type": "uint256"
        }
      ],
      "stateMutability": "view",
      "type": "function"
    },
    {
      "inputs": [],
      "name": "tsCheckpoint",
      "outputs": [
        {
          "internalType": "uint256",
          "name": "",
          "type": "uint256"
        }
      ],
      "stateMutability": "view",
      "type": "function"
    },
    {
      "inputs": [
        {
          "internalType": "uint256",
          "name": "serviceId",
          "type": "uint256"
        }
      ],
      "name": "unstake",
      "outputs": [],
      "stateMutability": "nonpayable",
      "type": "function"
    },
    {
      "stateMutability": "payable",
      "type": "receive"
    }
  ],
  "bytecode": "0x6102406040523480156200001257600080fd5b5060405162003eaf38038062003eaf833981016040819052620000359162000440565b808484848282828260000151600014806200005257506020830151155b8062000060575060a0830151155b806200006e575060c0830151155b806200007c575060e0830151155b806200008a57506060830151155b806200009857506080830151155b15620000b757604051637c946ed760e01b815260040160405180910390fd5b826080015183606001511015620000f9576060830151608084015160405163491a2bb160e01b8152600481019290925260248201526044015b60405180910390fd5b6002836040015110156200013157604080840151905163491a2bb160e01b8152600481019190915260026024820152604401620000f0565b6001600160a01b038216620001595760405163d92e233d60e01b815260040160405180910390fd5b82516080908152602084015160a0908152604085015160c09081529185015160e0908152908501516101005290840151610120908152908401516101409081526001600160a01b0384166101a0529084015161016052830151610180526000805b846101000151518110156200029657818561010001518281518110620001e457620001e462000550565b602002602001015111620002315784610100015181815181106200020c576200020c62000550565b6020026020010151604051632ab10b0b60e21b8152600401620000f091815260200190565b84610100015181815181106200024b576200024b62000550565b602090810291909101015160048054600181810183556000929092527f8a35acfbc15ff81a39ae7d344fd709f28e8600b4aa8c65c6b64bfe7fe36bd19b0182905590925001620001ba565b5081620002b657604051637c946ed760e01b815260040160405180910390fd5b6101c0829052610100516060850151620002d1919062000566565b6101e052610100516080850151620002ea919062000566565b610200525050426003555050506001600160a01b03831691506200032290505760405162ca95f960e81b815260040160405180910390fd5b6001600160a01b031661022052506200059292505050565b634e487b7160e01b600052604160045260246000fd5b60405161016081016001600160401b03811182821017156200037657620003766200033a565b60405290565b600082601f8301126200038e57600080fd5b815160206001600160401b0380831115620003ad57620003ad6200033a565b8260051b604051601f19603f83011681018181108482111715620003d557620003d56200033a565b6040529384526020818701810194908101925087851115620003f657600080fd5b6020870191505b848210156200041857815183529183019190830190620003fd565b979650505050505050565b80516001600160a01b03811681146200043b57600080fd5b919050565b600080600080608085870312156200045757600080fd5b84516001600160401b03808211156200046f57600080fd5b9086019061016082890312156200048557600080fd5b6200048f62000350565b825181526020830151602082015260408301516040820152606083015160608201526080830151608082015260a083015160a082015260c083015160c082015260e083015160e08201526101008084015183811115620004ee57600080fd5b620004fc8b8287016200037c565b9183019190915250610120838101519082015261014092830151928101929092525093506200052e6020860162000423565b925060408501519150620005456060860162000423565b905092959194509250565b634e487b7160e01b600052603260045260246000fd5b80820281158282048414176200058c57634e487b7160e01b600052601160045260246000fd5b92915050565b60805160a05160c05160e05161010051610120516101405161016051610180516101a0516101c0516101e05161020051610220516137db620006d4600039600081816104c10152612bd101526000818161086e01528181611c910152611f0d0152600081816102920152818161098501526109f001526000818161053a01526113a701526000818161075401528181610c90015281816110c701528181611624015261217e015260008181610788015281816111d301526112020152600081816103d1015281816112620152611296015260008181610459015261117801526000818161048d0152612dad01526000818161040501528181611fbf01526122f6015260006105b10152600081816107bc01526120d20152600081816107f001526125f90152600081816103650152818161101c015261106901526137db6000f3fe6080604052600436106102025760003560e01c8063a0ed60e01161011d578063cbcf252a116100b0578063eb338c961161007f578063f4dce71411610064578063f4dce71414610847578063f86ad2b61461085c578063ffa1ad741461089057600080fd5b8063eb338c9614610812578063f189e85a1461083257600080fd5b8063cbcf252a14610742578063e1f1176d14610776578063e77cdcc9146107aa578063eacdaabc146107de57600080fd5b8063b69ef8a8116100ec578063b69ef8a8146106b9578063c2c4c5c1146106cf578063c889921d146106f5578063cae2a5f01461071557600080fd5b8063a0ed60e01461059f578063a694fc3a146105d3578063a74466ad146105f3578063b15087601461069757600080fd5b806356e760581161019557806378e061361161016457806378e0613614610508578063809cee2f1461052857806382a8ea581461055c578063879d90901461058957600080fd5b806356e76058146104275780635829c5ec14610447578063592cf3fb1461047b57806375af4b6d146104af57600080fd5b80632e17de78116101d15780632e17de78146103875780633e732997146103a957806342cde4e8146103bf57806352c824f5146103f357600080fd5b806308ae7e541461028057806314b19c5a146102c7578063150b7a02146102dd57806316a751721461035357600080fd5b3661027b576000346001546102179190612e8b565b90506000346002546102299190612e8b565b60018390556002819055604080513481526020810185905290810182905290915033907f36af321ec8d3c75236829c5317affd40ddb308863a1236d2d277a4025cccee1e9060600160405180910390a2005b600080fd5b34801561028c57600080fd5b506102b47f000000000000000000000000000000000000000000000000000000000000000081565b6040519081526020015b60405180910390f35b3480156102d357600080fd5b506102b460005481565b3480156102e957600080fd5b506103226102f8366004612ec0565b7f150b7a020000000000000000000000000000000000000000000000000000000095945050505050565b6040517fffffffff0000000000000000000000000000000000000000000000000000000090911681526020016102be565b34801561035f57600080fd5b506102b47f000000000000000000000000000000000000000000000000000000000000000081565b34801561039357600080fd5b506103a76103a2366004612f5f565b6108e6565b005b3480156103b557600080fd5b506102b460035481565b3480156103cb57600080fd5b506102b47f000000000000000000000000000000000000000000000000000000000000000081565b3480156103ff57600080fd5b506102b47f000000000000000000000000000000000000000000000000000000000000000081565b34801561043357600080fd5b506102b4610442366004612f5f565b610d78565b34801561045357600080fd5b506102b47f000000000000000000000000000000000000000000000000000000000000000081565b34801561048757600080fd5b506102b47f000000000000000000000000000000000000000000000000000000000000000081565b3480156104bb57600080fd5b506104e37f000000000000000000000000000000000000000000000000000000000000000081565b60405173ffffffffffffffffffffffffffffffffffffffff90911681526020016102be565b34801561051457600080fd5b506102b4610523366004612f5f565b610d99565b34801561053457600080fd5b506102b47f000000000000000000000000000000000000000000000000000000000000000081565b34801561056857600080fd5b5061057c610577366004612f5f565b610e70565b6040516102be9190612fb4565b34801561059557600080fd5b506102b460025481565b3480156105ab57600080fd5b506102b47f000000000000000000000000000000000000000000000000000000000000000081565b3480156105df57600080fd5b506103a76105ee366004612f5f565b610f8e565b3480156105ff57600080fd5b5061065761060e366004612f5f565b60056020819052600091825260409091208054600182015460038301546004840154939094015473ffffffffffffffffffffffffffffffffffffffff9283169492909116929085565b6040805173ffffffffffffffffffffffffffffffffffffffff9687168152959094166020860152928401919091526060830152608082015260a0016102be565b3480156106a357600080fd5b506106ac61170c565b6040516102be9190613028565b3480156106c557600080fd5b506102b460015481565b3480156106db57600080fd5b506106e4611764565b6040516102be95949392919061303b565b34801561070157600080fd5b506102b4610710366004612f5f565b611d99565b34801561072157600080fd5b50610735610730366004612f5f565b611e55565b6040516102be9190613137565b34801561074e57600080fd5b506104e37f000000000000000000000000000000000000000000000000000000000000000081565b34801561078257600080fd5b506102b47f000000000000000000000000000000000000000000000000000000000000000081565b3480156107b657600080fd5b506102b47f000000000000000000000000000000000000000000000000000000000000000081565b3480156107ea57600080fd5b506102b47f000000000000000000000000000000000000000000000000000000000000000081565b34801561081e57600080fd5b506102b461082d366004612f5f565b611f55565b34801561083e57600080fd5b506106ac611f65565b34801561085357600080fd5b506102b4611fbb565b34801561086857600080fd5b506102b47f000000000000000000000000000000000000000000000000000000000000000081565b34801561089c57600080fd5b506108d96040518060400160405280600581526020017f302e312e3000000000000000000000000000000000000000000000000000000081525081565b6040516102be9190613178565b6000818152600560205260409020600181015473ffffffffffffffffffffffffffffffffffffffff1633146109705760018101546040517fa43d6ada00000000000000000000000000000000000000000000000000000000815233600482015273ffffffffffffffffffffffffffffffffffffffff90911660248201526044015b60405180910390fd5b6003810154600061098182426131e5565b90507f000000000000000000000000000000000000000000000000000000000000000081111580156109b557506000600254115b15610a1c576040517fba2bbc6b00000000000000000000000000000000000000000000000000000000815260048101859052602481018290527f00000000000000000000000000000000000000000000000000000000000000006044820152606401610967565b600080610a27611764565b945050505091508151600003610a8857610a3f611f65565b9150815167ffffffffffffffff811115610a5b57610a5b6131f8565b604051908082528060200260200182016040528015610a84578160200160208202803683370190505b5090505b6000805b8351821015610ae95787838381518110610aa857610aa8613227565b60200260200101510315610ae95787848381518110610ac957610ac9613227565b602002602001015103610ade57506001610ae9565b816001019150610a8c565b60048701546002880180546040805160208084028201810190925282815260009390929091830182828015610b3d57602002820191906000526020600020905b815481526020019060010190808311610b29575b50508c5460008f815260056020526040812080547fffffffffffffffffffffffff00000000000000000000000000000000000000009081168255600182018054909116905595965073ffffffffffffffffffffffffffffffffffffffff9091169493509150610bb190506002830182612ddb565b50600060038201819055600482018190556005909101558315610c405760068054610bde906001906131e5565b81548110610bee57610bee613227565b906000526020600020015460068681548110610c0c57610c0c613227565b6000918252602090912001556006805480610c2957610c29613256565b600190038181906000526020600020016000905590555b6040517f42842e0e000000000000000000000000000000000000000000000000000000008152306004820152336024820152604481018c905273ffffffffffffffffffffffffffffffffffffffff7f000000000000000000000000000000000000000000000000000000000000000016906342842e0e90606401600060405180830381600087803b158015610cd457600080fd5b505af1158015610ce8573d6000803e3d6000fd5b505050506000831115610cff57610cff8184611ff0565b8073ffffffffffffffffffffffffffffffffffffffff163373ffffffffffffffffffffffffffffffffffffffff168c7f950733f4c0bf951b8e770f3cc619a4288e7b59b1236d59aeaf2c238488e8ae816000548688604051610d6393929190613285565b60405180910390a45050505050505050505050565b60048181548110610d8857600080fd5b600091825260209091200154905081565b6000818152600560209081526040808320815160c081018352815473ffffffffffffffffffffffffffffffffffffffff90811682526001830154168185015260028201805484518187028101870186528181528796939586019390929190830182828015610e2657602002820191906000526020600020905b815481526020019060010190808311610e12575b505050505081526020016003820154815260200160048201548152602001600582015481525050905080608001519150610e5f83611d99565b610e699083612e8b565b9392505050565b610ed56040518060c00160405280600073ffffffffffffffffffffffffffffffffffffffff168152602001600073ffffffffffffffffffffffffffffffffffffffff168152602001606081526020016000815260200160008152602001600081525090565b600082815260056020908152604091829020825160c081018452815473ffffffffffffffffffffffffffffffffffffffff90811682526001830154168184015260028201805485518186028101860187528181529295939493860193830182828015610f6057602002820191906000526020600020905b815481526020019060010190808311610f4c575b5050505050815260200160038201548152602001600482015481526020016005820154815250509050919050565b600254600003610fca576040517fafb0be3300000000000000000000000000000000000000000000000000000000815260040160405180910390fd5b6000818152600560205260409020600381015415611017576040517fb4817ce700000000000000000000000000000000000000000000000000000000815260048101839052602401610967565b6006547f00000000000000000000000000000000000000000000000000000000000000008103611095576040517ffd2086150000000000000000000000000000000000000000000000000000000081527f00000000000000000000000000000000000000000000000000000000000000006004820152602401610967565b6040517fef0e239b000000000000000000000000000000000000000000000000000000008152600481018490526000907f000000000000000000000000000000000000000000000000000000000000000073ffffffffffffffffffffffffffffffffffffffff169063ef0e239b90602401600060405180830381865afa158015611123573d6000803e3d6000fd5b505050506040513d6000823e601f3d9081017fffffffffffffffffffffffffffffffffffffffffffffffffffffffffffffffe01682016040526111699190810190613433565b9050806080015163ffffffff167f0000000000000000000000000000000000000000000000000000000000000000146111d1576040517ff5a8097e00000000000000000000000000000000000000000000000000000000815260048101859052602401610967565b7f000000000000000000000000000000000000000000000000000000000000000015801590611224575080604001517f000000000000000000000000000000000000000000000000000000000000000014155b1561125e576040517ff5a8097e00000000000000000000000000000000000000000000000000000000815260048101859052602401610967565b60007f00000000000000000000000000000000000000000000000000000000000000001180156112b85750806060015163ffffffff167f000000000000000000000000000000000000000000000000000000000000000014155b156112f2576040517ff5a8097e00000000000000000000000000000000000000000000000000000000815260048101859052602401610967565b60048160c00151600581111561130a5761130a613108565b14611362578060c00151600581111561132557611325613108565b6040517ff014fe74000000000000000000000000000000000000000000000000000000008152600481019190915260248101859052604401610967565b6000816020015173ffffffffffffffffffffffffffffffffffffffff16803b806020016040519081016040528181526000908060200190933c805190602001209050807f00000000000000000000000000000000000000000000000000000000000000001461141b5760208201516040517f14460f2000000000000000000000000000000000000000000000000000000000815273ffffffffffffffffffffffffffffffffffffffff9091166004820152602401610967565b60045480156115165760e083015151818114611466576040517ff5a8097e00000000000000000000000000000000000000000000000000000000815260048101889052602401610967565b60005b81811015611513578460e00151818151811061148757611487613227565b602002602001015163ffffffff16600482815481106114a8576114a8613227565b90600052602060002001541461150b57600481815481106114cb576114cb613227565b90600052602060002001546040517faac42c2c00000000000000000000000000000000000000000000000000000000815260040161096791815260200190565b600101611469565b50505b6115378684600001516bffffffffffffffffffffffff168560e001516120d0565b6020830151855473ffffffffffffffffffffffffffffffffffffffff82167fffffffffffffffffffffffff000000000000000000000000000000000000000091821617875560018701805490911633179055600090611595906122ca565b80519091506115ad9060028801906020840190612dfc565b50426003870155600680546001810182556000919091527ff652222313e28459528d920b65115c16c04f3efc82aaedc97be59f3f377c0d3f018790556040517f42842e0e000000000000000000000000000000000000000000000000000000008152336004820152306024820152604481018890527f000000000000000000000000000000000000000000000000000000000000000073ffffffffffffffffffffffffffffffffffffffff16906342842e0e90606401600060405180830381600087803b15801561167d57600080fd5b505af1158015611691573d6000803e3d6000fd5b50505050836020015173ffffffffffffffffffffffffffffffffffffffff163373ffffffffffffffffffffffffffffffffffffffff16887faa6b005b4958114a0c90492461c24af6525ae0178db7fbf44125ae9217c69ccb600054856040516116fb929190613511565b60405180910390a450505050505050565b6060600480548060200260200160405190810160405280929190818152602001828054801561175a57602002820191906000526020600020905b815481526020019060010190808311611746575b5050505050905090565b60608060608060606000806000806000806000806117806122db565b97509750975097509750975097509750606080845167ffffffffffffffff8111156117ad576117ad6131f8565b6040519080825280602002602001820160405280156117d6578160200160208202803683370190505b509a5060008915611b69578967ffffffffffffffff8111156117fa576117fa6131f8565b604051908082528060200260200182016040528015611823578160200160208202803683370190505b5092508967ffffffffffffffff81111561183f5761183f6131f8565b604051908082528060200260200182016040528015611868578160200160208202803683370190505b5091508a891115611a725760008060015b8c811015611965578b8e8b838151811061189557611895613227565b60200260200101516118a7919061352a565b6118b19190613541565b92506118bd8383612e8b565b91508a81815181106118d1576118d1613227565b602002602001015193508a81815181106118ed576118ed613227565b602002602001015186828151811061190757611907613227565b6020026020010181815250508285828151811061192657611926613227565b602002602001018181525050826005600086815260200190815260200160002060040160008282546119589190612e8b565b9091555050600101611879565b508a8d8a60008151811061197b5761197b613227565b602002602001015161198d919061352a565b6119979190613541565b91506119a38282612e8b565b9050896000815181106119b8576119b8613227565b60200260200101519250896000815181106119d5576119d5613227565b6020026020010151856000815181106119f0576119f0613227565b602002602001018181525050808d1115611a1b57611a0e818e6131e5565b611a189083612e8b565b91505b8184600081518110611a2f57611a2f613227565b60200260200101818152505081600560008581526020019081526020016000206004016000828254611a619190612e8b565b9091555060009d50611b6392505050565b60005b8a811015611b5557888181518110611a8f57611a8f613227565b60200260200101519150888181518110611aab57611aab613227565b6020026020010151848281518110611ac557611ac5613227565b602002602001018181525050878181518110611ae357611ae3613227565b6020026020010151838281518110611afd57611afd613227565b602002602001018181525050878181518110611b1b57611b1b613227565b6020026020010151600560008481526020019081526020016000206004016000828254611b489190612e8b565b9091555050600101611a75565b50611b60898c6131e5565b9a505b60028b90555b855115611d83576000995060005b8651811015611d1c57868181518110611b9257611b92613227565b60200260200101519150858181518110611bae57611bae613227565b6020026020010151600560008481526020019081526020016000206002019080519060200190611bdf929190612dfc565b506000858281518110611bf457611bf4613227565b60200260200101511115611d0157848181518110611c1457611c14613227565b60200260200101516005600084815260200190815260200160002060050154611c3d9190612e8b565b858281518110611c4f57611c4f613227565b602002602001018181525050848181518110611c6d57611c6d613227565b602002602001015160056000848152602001908152602001600020600501819055507f0000000000000000000000000000000000000000000000000000000000000000858281518110611cc257611cc2613227565b60200260200101511115611cfc57818d8281518110611ce357611ce3613227565b60209081029190910101528a611cf88161357c565b9b50505b611d14565b6000828152600560208190526040822001555b600101611b77565b508915611d2e57611d2e8c858c6126e6565b42600355600054611d40816001612e8b565b60005560405181907f06a98bdd4732811ab3214800ed1ada2dce66a2bce301d250c3ca7d6b461ee66690611d79908f90889088906135b4565b60405180910390a2505b50939e929d509b50919950969750505050505050565b600080600080600080611daa6122db565b5050509450945094509450945060005b84811015611e4a5787838281518110611dd557611dd5613227565b602002602001015103611e425785841115611e21578386838381518110611dfe57611dfe613227565b6020026020010151611e10919061352a565b611e1a9190613541565b9650611e4a565b818181518110611e3357611e33613227565b60200260200101519650611e4a565b600101611dba565b505050505050919050565b6000818152600560209081526040808320815160c081018352815473ffffffffffffffffffffffffffffffffffffffff90811682526001830154168185015260028201805484518187028101870186528181528796939586019390929190830182828015611ee257602002820191906000526020600020905b815481526020019060010190808311611ece575b50505050508152602001600382015481526020016004820154815260200160058201548152505090507f00000000000000000000000000000000000000000000000000000000000000008160a001511115611f405760029150611f4f565b606081015115611f4f57600191505b50919050565b60068181548110610d8857600080fd5b6060600680548060200260200160405190810160405280929190818152602001828054801561175a5760200282019190600052602060002090815481526020019060010190808311611746575050505050905090565b60007f0000000000000000000000000000000000000000000000000000000000000000600354611feb9190612e8b565b905090565b806001600082825461200291906131e5565b909155505060405160009073ffffffffffffffffffffffffffffffffffffffff84169083908381818185875af1925050503d806000811461205f576040519150601f19603f3d011682016040523d82523d6000602084013e612064565b606091505b50509050806120cb576040517fcd3f16590000000000000000000000000000000000000000000000000000000081526000600482015230602482015273ffffffffffffffffffffffffffffffffffffffff8416604482015260648101839052608401610967565b505050565b7f000000000000000000000000000000000000000000000000000000000000000080831015612135576040517f491a2bb10000000000000000000000000000000000000000000000000000000081526004810184905260248101829052604401610967565b6040517f1de286ba00000000000000000000000000000000000000000000000000000000815260048101859052600090819073ffffffffffffffffffffffffffffffffffffffff7f00000000000000000000000000000000000000000000000000000000000000001690631de286ba90602401600060405180830381865afa1580156121c5573d6000803e3d6000fd5b505050506040513d6000823e601f3d9081017fffffffffffffffffffffffffffffffffffffffffffffffffffffffffffffffe016820160405261220b91908101906135e9565b9150915060005b828110156122c1578382828151811061222d5761222d613227565b6020026020010151602001516bffffffffffffffffffffffff1610156122b95781818151811061225f5761225f613227565b602002602001015160200151846040517f491a2bb10000000000000000000000000000000000000000000000000000000081526004016109679291906bffffffffffffffffffffffff929092168252602082015260400190565b600101612212565b50505050505050565b60606122d582612adf565b92915050565b600080600060608060608060606000600354905060025498507f0000000000000000000000000000000000000000000000000000000000000000814261232191906131e5565b1015801561232f5750600089115b156126db576006548067ffffffffffffffff811115612350576123506131f8565b604051908082528060200260200182016040528015612379578160200160208202803683370190505b5094508067ffffffffffffffff811115612395576123956131f8565b6040519080825280602002602001820160405280156123be578160200160208202803683370190505b5096508067ffffffffffffffff8111156123da576123da6131f8565b604051908082528060200260200182016040528015612403578160200160208202803683370190505b5095508067ffffffffffffffff81111561241f5761241f6131f8565b60405190808252806020026020018201604052801561245257816020015b606081526020019060019003908161243d5790505b5093508067ffffffffffffffff81111561246e5761246e6131f8565b604051908082528060200260200182016040528015612497578160200160208202803683370190505b50925060005b818110156126d857600681815481106124b8576124b8613227565b90600052602060002001548682815181106124d5576124d5613227565b6020026020010181815250506000600560008884815181106124f9576124f9613227565b602090810291909101810151825281019190915260400160002080549091506125379073ffffffffffffffffffffffffffffffffffffffff166122ca565b86838151811061254957612549613227565b60209081029190910101526003810154849081811115612567578091505b61257182426131e5565b905060006125eb89868151811061258a5761258a613227565b6020026020010151856002018054806020026020016040519081016040528092919081815260200182805480156125e057602002820191906000526020600020905b8154815260200190600101908083116125cc575b505050505084612c60565b905080156126a95761261d827f000000000000000000000000000000000000000000000000000000000000000061352a565b8b8f8151811061262f5761262f613227565b6020026020010181815250508a8e8151811061264d5761264d613227565b60200260200101518d6126609190612e8b565b9c5089858151811061267457612674613227565b60200260200101518c8f8151811061268e5761268e613227565b60209081029190910101526126a28e61357c565b9d506126c9565b818886815181106126bc576126bc613227565b6020026020010181815250505b5050505080600101905061249d565b50505b509091929394959697565b825160008267ffffffffffffffff811115612703576127036131f8565b60405190808252806020026020018201604052801561272c578160200160208202803683370190505b50905060008367ffffffffffffffff81111561274a5761274a6131f8565b604051908082528060200260200182016040528015612773578160200160208202803683370190505b50905060008467ffffffffffffffff811115612791576127916131f8565b6040519080825280602002602001820160405280156127ba578160200160208202803683370190505b50905060008567ffffffffffffffff8111156127d8576127d86131f8565b604051908082528060200260200182016040528015612801578160200160208202803683370190505b50905060008667ffffffffffffffff81111561281f5761281f6131f8565b604051908082528060200260200182016040528015612848578160200160208202803683370190505b50905060008060005b888110156129dc5760008c828151811061286d5761286d613227565b602002602001015111156129d4578b818151811061288d5761288d613227565b60200260200101519150818884815181106128aa576128aa613227565b60209081029190910181019190915260008381526005909152604090206001810154885173ffffffffffffffffffffffffffffffffffffffff909116908990869081106128f9576128f9613227565b73ffffffffffffffffffffffffffffffffffffffff92831660209182029290920101528154885191169088908690811061293557612935613227565b602002602001019073ffffffffffffffffffffffffffffffffffffffff16908173ffffffffffffffffffffffffffffffffffffffff16815250508b828151811061298157612981613227565b602002602001015186858151811061299b5761299b613227565b602002602001018181525050818585815181106129ba576129ba613227565b6020908102919091010152836129cf8161357c565b945050505b600101612851565b50885b8015612a9157886129ef816136b8565b99506000905084612a016001846131e5565b81518110612a1157612a11613227565b6020026020010151905060068a81548110612a2e57612a2e613227565b906000526020600020015460068281548110612a4c57612a4c613227565b6000918252602090912001556006805480612a6957612a69613256565b600190038181906000526020600020016000905590555080612a8a906136b8565b90506129df565b506000547fd19a3d42ed383465e4058c322d9411aeac76ddb8454d22e139fc99808bd5695288888888604051612aca9493929190613734565b60405180910390a25050505050505050505050565b60408051600280825260608083018452926020830190803683370190505090508173ffffffffffffffffffffffffffffffffffffffff1663affed0e06040518163ffffffff1660e01b8152600401602060405180830381865afa158015612b4a573d6000803e3d6000fd5b505050506040513d601f19601f82011682018060405250810190612b6e919061378c565b81600081518110612b8157612b81613227565b60209081029190910101526040517f7af7347300000000000000000000000000000000000000000000000000000000815273ffffffffffffffffffffffffffffffffffffffff83811660048301527f00000000000000000000000000000000000000000000000000000000000000001690637af7347390602401602060405180830381865afa158015612c18573d6000803e3d6000fd5b505050506040513d601f19601f82011682018060405250810190612c3c919061378c565b81600181518110612c4f57612c4f613227565b602002602001018181525050919050565b6000612c6d848484612c75565b949350505050565b60008082118015612cb9575082600081518110612c9457612c94613227565b602002602001015184600081518110612caf57612caf613227565b6020026020010151115b8015612cf8575082600181518110612cd357612cd3613227565b602002602001015184600181518110612cee57612cee613227565b6020026020010151115b15610e6957600083600081518110612d1257612d12613227565b602002602001015185600081518110612d2d57612d2d613227565b6020026020010151612d3f91906131e5565b9050600084600181518110612d5657612d56613227565b602002602001015186600181518110612d7157612d71613227565b6020026020010151612d8391906131e5565b9050818111612dd257600084612da183670de0b6b3a764000061352a565b612dab9190613541565b7f000000000000000000000000000000000000000000000000000000000000000011159350505b50509392505050565b5080546000825590600052602060002090810190612df99190612e47565b50565b828054828255906000526020600020908101928215612e37579160200282015b82811115612e37578251825591602001919060010190612e1c565b50612e43929150612e47565b5090565b5b80821115612e435760008155600101612e48565b7f4e487b7100000000000000000000000000000000000000000000000000000000600052601160045260246000fd5b808201808211156122d5576122d5612e5c565b73ffffffffffffffffffffffffffffffffffffffff81168114612df957600080fd5b600080600080600060808688031215612ed857600080fd5b8535612ee381612e9e565b94506020860135612ef381612e9e565b935060408601359250606086013567ffffffffffffffff80821115612f1757600080fd5b818801915088601f830112612f2b57600080fd5b813581811115612f3a57600080fd5b896020828501011115612f4c57600080fd5b9699959850939650602001949392505050565b600060208284031215612f7157600080fd5b5035919050565b60008151808452602080850194506020840160005b83811015612fa957815187529582019590820190600101612f8d565b509495945050505050565b60208152600073ffffffffffffffffffffffffffffffffffffffff80845116602084015280602085015116604084015250604083015160c06060840152612ffe60e0840182612f78565b905060608401516080840152608084015160a084015260a084015160c08401528091505092915050565b602081526000610e696020830184612f78565b60a08152600061304e60a0830188612f78565b6020838203818501528188518084528284019150828160051b850101838b0160005b838110156130bc577fffffffffffffffffffffffffffffffffffffffffffffffffffffffffffffffe08784030185526130aa838351612f78565b94860194925090850190600101613070565b505086810360408801526130d0818b612f78565b94505050505082810360608401526130e88186612f78565b905082810360808401526130fc8185612f78565b98975050505050505050565b7f4e487b7100000000000000000000000000000000000000000000000000000000600052602160045260246000fd5b6020810160038310613172577f4e487b7100000000000000000000000000000000000000000000000000000000600052602160045260246000fd5b91905290565b60006020808352835180602085015260005b818110156131a65785810183015185820160400152820161318a565b5060006040828601015260407fffffffffffffffffffffffffffffffffffffffffffffffffffffffffffffffe0601f8301168501019250505092915050565b818103818111156122d5576122d5612e5c565b7f4e487b7100000000000000000000000000000000000000000000000000000000600052604160045260246000fd5b7f4e487b7100000000000000000000000000000000000000000000000000000000600052603260045260246000fd5b7f4e487b7100000000000000000000000000000000000000000000000000000000600052603160045260246000fd5b83815260606020820152600061329e6060830185612f78565b9050826040830152949350505050565b604051610100810167ffffffffffffffff811182821017156132d2576132d26131f8565b60405290565b6040805190810167ffffffffffffffff811182821017156132d2576132d26131f8565b604051601f82017fffffffffffffffffffffffffffffffffffffffffffffffffffffffffffffffe016810167ffffffffffffffff81118282101715613342576133426131f8565b604052919050565b80516bffffffffffffffffffffffff8116811461336657600080fd5b919050565b805161336681612e9e565b805163ffffffff8116811461336657600080fd5b80516006811061336657600080fd5b600067ffffffffffffffff8211156133b3576133b36131f8565b5060051b60200190565b600082601f8301126133ce57600080fd5b815160206133e36133de83613399565b6132fb565b8083825260208201915060208460051b87010193508684111561340557600080fd5b602086015b848110156134285761341b81613376565b835291830191830161340a565b509695505050505050565b60006020828403121561344557600080fd5b815167ffffffffffffffff8082111561345d57600080fd5b90830190610100828603121561347257600080fd5b61347a6132ae565b6134838361334a565b81526134916020840161336b565b6020820152604083015160408201526134ac60608401613376565b60608201526134bd60808401613376565b60808201526134ce60a08401613376565b60a08201526134df60c0840161338a565b60c082015260e0830151828111156134f657600080fd5b613502878286016133bd565b60e08301525095945050505050565b828152604060208201526000612c6d6040830184612f78565b80820281158282048414176122d5576122d5612e5c565b600082613577577f4e487b7100000000000000000000000000000000000000000000000000000000600052601260045260246000fd5b500490565b60007fffffffffffffffffffffffffffffffffffffffffffffffffffffffffffffffff82036135ad576135ad612e5c565b5060010190565b8381526060602082015260006135cd6060830185612f78565b82810360408401526135df8185612f78565b9695505050505050565b60008060408084860312156135fd57600080fd5b8351925060208085015167ffffffffffffffff81111561361c57600080fd5b8501601f8101871361362d57600080fd5b805161363b6133de82613399565b81815260069190911b8201830190838101908983111561365a57600080fd5b928401925b828410156136a85785848b0312156136775760008081fd5b61367f6132d8565b61368885613376565b815261369586860161334a565b818701528252928501929084019061365f565b8096505050505050509250929050565b6000816136c7576136c7612e5c565b507fffffffffffffffffffffffffffffffffffffffffffffffffffffffffffffffff0190565b60008151808452602080850194506020840160005b83811015612fa957815173ffffffffffffffffffffffffffffffffffffffff1687529582019590820190600101613702565b6080815260006137476080830187612f78565b828103602084015261375981876136ed565b9050828103604084015261376d81866136ed565b905082810360608401526137818185612f78565b979650505050505050565b60006020828403121561379e57600080fd5b505191905056fea2646970667358221220545b0ee5f8e3ada31250e4c13d377dd4728e1f291174e8cd4792446fc5787f4364736f6c63430008170033",
  "linkReferences": {},
  "deployedLinkReferences": {}
}